{
  "_format": "hh-sol-artifact-1",
  "contractName": "Blog",
  "sourceName": "contracts/Blog.sol",
  "abi": [
    {
      "inputs": [
        {
          "internalType": "string",
          "name": "vsebina",
          "type": "string"
        }
      ],
      "name": "dodajObjavo",
      "outputs": [],
      "stateMutability": "nonpayable",
      "type": "function"
    },
    {
      "inputs": [],
      "name": "vseObjave",
      "outputs": [
        {
          "components": [
            {
              "internalType": "address",
              "name": "avtor",
              "type": "address"
            },
            {
              "internalType": "string",
              "name": "vsebina",
              "type": "string"
            },
            {
              "internalType": "uint256",
              "name": "timestamp",
              "type": "uint256"
            }
          ],
          "internalType": "struct Blog.Objava[]",
          "name": "",
          "type": "tuple[]"
        }
      ],
      "stateMutability": "view",
      "type": "function"
    }
  ],
  "bytecode": "0x608060405234801561001057600080fd5b50610788806100206000396000f3fe608060405234801561001057600080fd5b50600436106100365760003560e01c806362991ab01461003b578063eb7ab8e514610057575b600080fd5b61005560048036038101906100509190610492565b610075565b005b61005f610144565b60405161006c91906106cf565b60405180910390f35b600060405180606001604052803373ffffffffffffffffffffffffffffffffffffffff16815260200183815260200142815250908060018154018082558091505060019003906000526020600020906003020160009091909190915060008201518160000160006101000a81548173ffffffffffffffffffffffffffffffffffffffff021916908373ffffffffffffffffffffffffffffffffffffffff1602179055506020820151816001019080519060200190610134929190610295565b5060408201518160020155505050565b60606000805480602002602001604051908101604052809291908181526020016000905b8282101561028c57838290600052602060002090600302016040518060600160405290816000820160009054906101000a900473ffffffffffffffffffffffffffffffffffffffff1673ffffffffffffffffffffffffffffffffffffffff1673ffffffffffffffffffffffffffffffffffffffff1681526020016001820180546101f190610720565b80601f016020809104026020016040519081016040528092919081815260200182805461021d90610720565b801561026a5780601f1061023f5761010080835404028352916020019161026a565b820191906000526020600020905b81548152906001019060200180831161024d57829003601f168201915b5050505050815260200160028201548152505081526020019060010190610168565b50505050905090565b8280546102a190610720565b90600052602060002090601f0160209004810192826102c3576000855561030a565b82601f106102dc57805160ff191683800117855561030a565b8280016001018555821561030a579182015b828111156103095782518255916020019190600101906102ee565b5b509050610317919061031b565b5090565b5b8082111561033457600081600090555060010161031c565b5090565b6000604051905090565b600080fd5b600080fd5b600080fd5b600080fd5b6000601f19601f8301169050919050565b7f4e487b7100000000000000000000000000000000000000000000000000000000600052604160045260246000fd5b61039f82610356565b810181811067ffffffffffffffff821117156103be576103bd610367565b5b80604052505050565b60006103d1610338565b90506103dd8282610396565b919050565b600067ffffffffffffffff8211156103fd576103fc610367565b5b61040682610356565b9050602081019050919050565b82818337600083830152505050565b6000610435610430846103e2565b6103c7565b90508281526020810184848401111561045157610450610351565b5b61045c848285610413565b509392505050565b600082601f8301126104795761047861034c565b5b8135610489848260208601610422565b91505092915050565b6000602082840312156104a8576104a7610342565b5b600082013567ffffffffffffffff8111156104c6576104c5610347565b5b6104d284828501610464565b91505092915050565b600081519050919050565b600082825260208201905092915050565b6000819050602082019050919050565b600073ffffffffffffffffffffffffffffffffffffffff82169050919050565b600061053282610507565b9050919050565b61054281610527565b82525050565b600081519050919050565b600082825260208201905092915050565b60005b83811015610582578082015181840152602081019050610567565b83811115610591576000848401525b50505050565b60006105a282610548565b6105ac8185610553565b93506105bc818560208601610564565b6105c581610356565b840191505092915050565b6000819050919050565b6105e3816105d0565b82525050565b60006060830160008301516106016000860182610539565b50602083015184820360208601526106198282610597565b915050604083015161062e60408601826105da565b508091505092915050565b600061064583836105e9565b905092915050565b6000602082019050919050565b6000610665826104db565b61066f81856104e6565b935083602082028501610681856104f7565b8060005b858110156106bd578484038952815161069e8582610639565b94506106a98361064d565b925060208a01995050600181019050610685565b50829750879550505050505092915050565b600060208201905081810360008301526106e9818461065a565b905092915050565b7f4e487b7100000000000000000000000000000000000000000000000000000000600052602260045260246000fd5b6000600282049050600182168061073857607f821691505b6020821081141561074c5761074b6106f1565b5b5091905056fea2646970667358221220a9d04b8425d54fdf8a2968b5bee73a21e5c9cf05a7ef60cc0a8b8ce7a7d47a6f64736f6c63430008090033",
  "linkReferences": {},
  "deployedLinkReferences": {}
}