{
  "_format": "hh-sol-artifact-1",
  "contractName": "Blog",
  "sourceName": "contracts/Blog.sol",
  "abi": [
    {
      "inputs": [
        {
          "internalType": "string",
          "name": "vsebina",
          "type": "string"
        }
      ],
      "name": "dodajObjavo",
      "outputs": [],
      "stateMutability": "nonpayable",
      "type": "function"
    },
    {
      "inputs": [
        {
          "internalType": "address",
          "name": "from",
          "type": "address"
        },
        {
          "internalType": "address",
          "name": "to",
          "type": "address"
        }
      ],
      "name": "getChat",
      "outputs": [
        {
          "components": [
            {
              "internalType": "uint256",
              "name": "id",
              "type": "uint256"
            },
            {
              "internalType": "address",
              "name": "from",
              "type": "address"
            },
            {
              "internalType": "address",
              "name": "to",
              "type": "address"
            },
            {
              "internalType": "string",
              "name": "content",
              "type": "string"
            },
            {
              "internalType": "uint256",
              "name": "timestamp",
              "type": "uint256"
            }
          ],
          "internalType": "struct Blog.Message[]",
          "name": "",
          "type": "tuple[]"
        }
      ],
      "stateMutability": "view",
      "type": "function"
    },
    {
      "inputs": [],
      "name": "getModerator",
      "outputs": [
        {
          "internalType": "address",
          "name": "",
          "type": "address"
        }
      ],
      "stateMutability": "view",
      "type": "function"
    },
    {
      "inputs": [],
      "name": "getPosts",
      "outputs": [
        {
          "components": [
            {
              "internalType": "uint256",
              "name": "id",
              "type": "uint256"
            },
            {
              "internalType": "address",
              "name": "author",
              "type": "address"
            },
            {
              "internalType": "string",
              "name": "content",
              "type": "string"
            },
            {
              "internalType": "uint256",
              "name": "timestamp",
              "type": "uint256"
            }
          ],
          "internalType": "struct Blog.Post[]",
          "name": "",
          "type": "tuple[]"
        }
      ],
      "stateMutability": "view",
      "type": "function"
    },
    {
      "inputs": [
        {
          "internalType": "uint256",
          "name": "id",
          "type": "uint256"
        }
      ],
      "name": "izbrisiObjavo",
      "outputs": [],
      "stateMutability": "nonpayable",
      "type": "function"
    },
    {
      "inputs": [
        {
          "internalType": "address",
          "name": "from",
          "type": "address"
        },
        {
          "internalType": "address",
          "name": "to",
          "type": "address"
        },
        {
          "internalType": "string",
          "name": "content",
          "type": "string"
        }
      ],
      "name": "sendMessage",
      "outputs": [],
      "stateMutability": "nonpayable",
      "type": "function"
    },
    {
      "inputs": [
        {
          "internalType": "address",
          "name": "newMod",
          "type": "address"
        }
      ],
      "name": "setModerator",
      "outputs": [],
      "stateMutability": "nonpayable",
      "type": "function"
    },
    {
      "inputs": [
        {
          "internalType": "string",
          "name": "urejenaVsebina",
          "type": "string"
        },
        {
          "internalType": "uint256",
          "name": "id",
          "type": "uint256"
        }
      ],
      "name": "urediObjavo",
      "outputs": [],
      "stateMutability": "nonpayable",
      "type": "function"
    }
  ],
  "bytecode": "0x608060405234801561001057600080fd5b506113da806100206000396000f3fe608060405234801561001057600080fd5b50600436106100885760003560e01c80639673ebc81161005b5780639673ebc814610101578063b88e318d1461011d578063d3a2699d14610139578063eb0442661461015557610088565b806341f3004a1461008d57806348adfbdb146100ab57806362991ab0146100c957806375bba189146100e5575b600080fd5b610095610185565b6040516100a29190610dab565b60405180910390f35b6100b36102e0565b6040516100c09190610ddc565b60405180910390f35b6100e360048036038101906100de9190610f40565b610309565b005b6100ff60048036038101906100fa9190610fb5565b6103ed565b005b61011b6004803603810190610116919061100e565b610430565b005b6101376004803603810190610132919061103b565b6104f4565b005b610153600480360381019061014e91906110aa565b610827565b005b61016f600480360381019061016a9190611106565b6108ba565b60405161017c919061127e565b60405180910390f35b60606001805480602002602001604051908101604052809291908181526020016000905b828210156102d75783829060005260206000209060040201604051806080016040529081600082015481526020016001820160009054906101000a900473ffffffffffffffffffffffffffffffffffffffff1673ffffffffffffffffffffffffffffffffffffffff1673ffffffffffffffffffffffffffffffffffffffff16815260200160028201805461023c906112cf565b80601f0160208091040260200160405190810160405280929190818152602001828054610268906112cf565b80156102b55780601f1061028a576101008083540402835291602001916102b5565b820191906000526020600020905b81548152906001019060200180831161029857829003601f168201915b50505050508152602001600382015481525050815260200190600101906101a9565b50505050905090565b60008060009054906101000a900473ffffffffffffffffffffffffffffffffffffffff16905090565b6001604051806080016040528060018054905081526020013373ffffffffffffffffffffffffffffffffffffffff1681526020018381526020014281525090806001815401808255809150506001900390600052602060002090600402016000909190919091506000820151816000015560208201518160010160006101000a81548173ffffffffffffffffffffffffffffffffffffffff021916908373ffffffffffffffffffffffffffffffffffffffff16021790555060408201518160020190805190602001906103dd929190610ab0565b5060608201518160030155505050565b806000806101000a81548173ffffffffffffffffffffffffffffffffffffffff021916908373ffffffffffffffffffffffffffffffffffffffff16021790555050565b60008054906101000a900473ffffffffffffffffffffffffffffffffffffffff1673ffffffffffffffffffffffffffffffffffffffff163373ffffffffffffffffffffffffffffffffffffffff1614156104f1576001818154811061049857610497611301565b5b90600052602060002090600402016000808201600090556001820160006101000a81549073ffffffffffffffffffffffffffffffffffffffff02191690556002820160006104e69190610b36565b600382016000905550505b50565b60008383604051602001610509929190611378565b6040516020818303038152906040528051906020012060001c9050600260008281526020019081526020016000206040518060a00160405280600260008581526020019081526020016000208054905081526020018673ffffffffffffffffffffffffffffffffffffffff1681526020018573ffffffffffffffffffffffffffffffffffffffff1681526020018481526020014281525090806001815401808255809150506001900390600052602060002090600502016000909190919091506000820151816000015560208201518160010160006101000a81548173ffffffffffffffffffffffffffffffffffffffff021916908373ffffffffffffffffffffffffffffffffffffffff16021790555060408201518160020160006101000a81548173ffffffffffffffffffffffffffffffffffffffff021916908373ffffffffffffffffffffffffffffffffffffffff160217905550606082015181600301908051906020019061067d929190610ab0565b506080820151816004015550506000838560405160200161069f929190611378565b6040516020818303038152906040528051906020012060001c9050600260008281526020019081526020016000206040518060a00160405280600260008581526020019081526020016000208054905081526020018773ffffffffffffffffffffffffffffffffffffffff1681526020018673ffffffffffffffffffffffffffffffffffffffff1681526020018581526020014281525090806001815401808255809150506001900390600052602060002090600502016000909190919091506000820151816000015560208201518160010160006101000a81548173ffffffffffffffffffffffffffffffffffffffff021916908373ffffffffffffffffffffffffffffffffffffffff16021790555060408201518160020160006101000a81548173ffffffffffffffffffffffffffffffffffffffff021916908373ffffffffffffffffffffffffffffffffffffffff1602179055506060820151816003019080519060200190610813929190610ab0565b506080820151816004015550505050505050565b60008054906101000a900473ffffffffffffffffffffffffffffffffffffffff1673ffffffffffffffffffffffffffffffffffffffff163373ffffffffffffffffffffffffffffffffffffffff1614156108b65781600182815481106108905761088f611301565b5b906000526020600020906004020160020190805190602001906108b4929190610ab0565b505b5050565b6060600083836040516020016108d1929190611378565b6040516020818303038152906040528051906020012060001c905060026000828152602001908152602001600020805480602002602001604051908101604052809291908181526020016000905b82821015610aa357838290600052602060002090600502016040518060a0016040529081600082015481526020016001820160009054906101000a900473ffffffffffffffffffffffffffffffffffffffff1673ffffffffffffffffffffffffffffffffffffffff1673ffffffffffffffffffffffffffffffffffffffff1681526020016002820160009054906101000a900473ffffffffffffffffffffffffffffffffffffffff1673ffffffffffffffffffffffffffffffffffffffff1673ffffffffffffffffffffffffffffffffffffffff168152602001600382018054610a08906112cf565b80601f0160208091040260200160405190810160405280929190818152602001828054610a34906112cf565b8015610a815780601f10610a5657610100808354040283529160200191610a81565b820191906000526020600020905b815481529060010190602001808311610a6457829003601f168201915b505050505081526020016004820154815250508152602001906001019061091f565b5050505091505092915050565b828054610abc906112cf565b90600052602060002090601f016020900481019282610ade5760008555610b25565b82601f10610af757805160ff1916838001178555610b25565b82800160010185558215610b25579182015b82811115610b24578251825591602001919060010190610b09565b5b509050610b329190610b76565b5090565b508054610b42906112cf565b6000825580601f10610b545750610b73565b601f016020900490600052602060002090810190610b729190610b76565b5b50565b5b80821115610b8f576000816000905550600101610b77565b5090565b600081519050919050565b600082825260208201905092915050565b6000819050602082019050919050565b6000819050919050565b610bd281610bbf565b82525050565b600073ffffffffffffffffffffffffffffffffffffffff82169050919050565b6000610c0382610bd8565b9050919050565b610c1381610bf8565b82525050565b600081519050919050565b600082825260208201905092915050565b60005b83811015610c53578082015181840152602081019050610c38565b83811115610c62576000848401525b50505050565b6000601f19601f8301169050919050565b6000610c8482610c19565b610c8e8185610c24565b9350610c9e818560208601610c35565b610ca781610c68565b840191505092915050565b6000608083016000830151610cca6000860182610bc9565b506020830151610cdd6020860182610c0a565b5060408301518482036040860152610cf58282610c79565b9150506060830151610d0a6060860182610bc9565b508091505092915050565b6000610d218383610cb2565b905092915050565b6000602082019050919050565b6000610d4182610b93565b610d4b8185610b9e565b935083602082028501610d5d85610baf565b8060005b85811015610d995784840389528151610d7a8582610d15565b9450610d8583610d29565b925060208a01995050600181019050610d61565b50829750879550505050505092915050565b60006020820190508181036000830152610dc58184610d36565b905092915050565b610dd681610bf8565b82525050565b6000602082019050610df16000830184610dcd565b92915050565b6000604051905090565b600080fd5b600080fd5b600080fd5b600080fd5b7f4e487b7100000000000000000000000000000000000000000000000000000000600052604160045260246000fd5b610e4d82610c68565b810181811067ffffffffffffffff82111715610e6c57610e6b610e15565b5b80604052505050565b6000610e7f610df7565b9050610e8b8282610e44565b919050565b600067ffffffffffffffff821115610eab57610eaa610e15565b5b610eb482610c68565b9050602081019050919050565b82818337600083830152505050565b6000610ee3610ede84610e90565b610e75565b905082815260208101848484011115610eff57610efe610e10565b5b610f0a848285610ec1565b509392505050565b600082601f830112610f2757610f26610e0b565b5b8135610f37848260208601610ed0565b91505092915050565b600060208284031215610f5657610f55610e01565b5b600082013567ffffffffffffffff811115610f7457610f73610e06565b5b610f8084828501610f12565b91505092915050565b610f9281610bf8565b8114610f9d57600080fd5b50565b600081359050610faf81610f89565b92915050565b600060208284031215610fcb57610fca610e01565b5b6000610fd984828501610fa0565b91505092915050565b610feb81610bbf565b8114610ff657600080fd5b50565b60008135905061100881610fe2565b92915050565b60006020828403121561102457611023610e01565b5b600061103284828501610ff9565b91505092915050565b60008060006060848603121561105457611053610e01565b5b600061106286828701610fa0565b935050602061107386828701610fa0565b925050604084013567ffffffffffffffff81111561109457611093610e06565b5b6110a086828701610f12565b9150509250925092565b600080604083850312156110c1576110c0610e01565b5b600083013567ffffffffffffffff8111156110df576110de610e06565b5b6110eb85828601610f12565b92505060206110fc85828601610ff9565b9150509250929050565b6000806040838503121561111d5761111c610e01565b5b600061112b85828601610fa0565b925050602061113c85828601610fa0565b9150509250929050565b600081519050919050565b600082825260208201905092915050565b6000819050602082019050919050565b600060a08301600083015161118a6000860182610bc9565b50602083015161119d6020860182610c0a565b5060408301516111b06040860182610c0a565b50606083015184820360608601526111c88282610c79565b91505060808301516111dd6080860182610bc9565b508091505092915050565b60006111f48383611172565b905092915050565b6000602082019050919050565b600061121482611146565b61121e8185611151565b93508360208202850161123085611162565b8060005b8581101561126c578484038952815161124d85826111e8565b9450611258836111fc565b925060208a01995050600181019050611234565b50829750879550505050505092915050565b600060208201905081810360008301526112988184611209565b905092915050565b7f4e487b7100000000000000000000000000000000000000000000000000000000600052602260045260246000fd5b600060028204905060018216806112e757607f821691505b602082108114156112fb576112fa6112a0565b5b50919050565b7f4e487b7100000000000000000000000000000000000000000000000000000000600052603260045260246000fd5b60008160601b9050919050565b600061134882611330565b9050919050565b600061135a8261133d565b9050919050565b61137261136d82610bf8565b61134f565b82525050565b60006113848285611361565b6014820191506113948284611361565b601482019150819050939250505056fea2646970667358221220636128dc5d97944e2a60fe058d76e3b3eb1d9e539be469b0615bbb0cdc78fb7d64736f6c63430008090033",
  "linkReferences": {},
  "deployedLinkReferences": {}
}