{
  "_format": "hh-sol-artifact-1",
  "contractName": "Blog",
  "sourceName": "contracts/Blog.sol",
  "abi": [
    {
      "anonymous": false,
      "inputs": [
        {
          "indexed": false,
          "internalType": "address",
          "name": "avtor",
          "type": "address"
        }
      ],
      "name": "DodajObjavo",
      "type": "event"
    },
    {
      "inputs": [
        {
          "internalType": "string",
          "name": "vsebina",
          "type": "string"
        }
      ],
      "name": "dodajObjavo",
      "outputs": [],
      "stateMutability": "nonpayable",
      "type": "function"
    },
    {
      "inputs": [],
      "name": "vseObjave",
      "outputs": [
        {
          "components": [
            {
              "internalType": "address",
              "name": "avtor",
              "type": "address"
            },
            {
              "internalType": "string",
              "name": "vsebina",
              "type": "string"
            },
            {
              "internalType": "uint256",
              "name": "timestamp",
              "type": "uint256"
            }
          ],
          "internalType": "struct Blog.Objava[]",
          "name": "",
          "type": "tuple[]"
        }
      ],
      "stateMutability": "view",
      "type": "function"
    }
  ],
  "bytecode": "0x608060405234801561001057600080fd5b506107e9806100206000396000f3fe608060405234801561001057600080fd5b50600436106100365760003560e01c806362991ab01461003b578063eb7ab8e514610057575b600080fd5b610055600480360381019061005091906104c9565b610075565b005b61005f61017b565b60405161006c9190610706565b60405180910390f35b600060405180606001604052803373ffffffffffffffffffffffffffffffffffffffff16815260200183815260200142815250908060018154018082558091505060019003906000526020600020906003020160009091909190915060008201518160000160006101000a81548173ffffffffffffffffffffffffffffffffffffffff021916908373ffffffffffffffffffffffffffffffffffffffff16021790555060208201518160010190805190602001906101349291906102cc565b506040820151816002015550507f697abc936c615c4cd1a2bffdc61c61c1a31fb5c12e72ae43218dd67e0fb19f74336040516101709190610737565b60405180910390a150565b60606000805480602002602001604051908101604052809291908181526020016000905b828210156102c357838290600052602060002090600302016040518060600160405290816000820160009054906101000a900473ffffffffffffffffffffffffffffffffffffffff1673ffffffffffffffffffffffffffffffffffffffff1673ffffffffffffffffffffffffffffffffffffffff16815260200160018201805461022890610781565b80601f016020809104026020016040519081016040528092919081815260200182805461025490610781565b80156102a15780601f10610276576101008083540402835291602001916102a1565b820191906000526020600020905b81548152906001019060200180831161028457829003601f168201915b505050505081526020016002820154815250508152602001906001019061019f565b50505050905090565b8280546102d890610781565b90600052602060002090601f0160209004810192826102fa5760008555610341565b82601f1061031357805160ff1916838001178555610341565b82800160010185558215610341579182015b82811115610340578251825591602001919060010190610325565b5b50905061034e9190610352565b5090565b5b8082111561036b576000816000905550600101610353565b5090565b6000604051905090565b600080fd5b600080fd5b600080fd5b600080fd5b6000601f19601f8301169050919050565b7f4e487b7100000000000000000000000000000000000000000000000000000000600052604160045260246000fd5b6103d68261038d565b810181811067ffffffffffffffff821117156103f5576103f461039e565b5b80604052505050565b600061040861036f565b905061041482826103cd565b919050565b600067ffffffffffffffff8211156104345761043361039e565b5b61043d8261038d565b9050602081019050919050565b82818337600083830152505050565b600061046c61046784610419565b6103fe565b90508281526020810184848401111561048857610487610388565b5b61049384828561044a565b509392505050565b600082601f8301126104b0576104af610383565b5b81356104c0848260208601610459565b91505092915050565b6000602082840312156104df576104de610379565b5b600082013567ffffffffffffffff8111156104fd576104fc61037e565b5b6105098482850161049b565b91505092915050565b600081519050919050565b600082825260208201905092915050565b6000819050602082019050919050565b600073ffffffffffffffffffffffffffffffffffffffff82169050919050565b60006105698261053e565b9050919050565b6105798161055e565b82525050565b600081519050919050565b600082825260208201905092915050565b60005b838110156105b957808201518184015260208101905061059e565b838111156105c8576000848401525b50505050565b60006105d98261057f565b6105e3818561058a565b93506105f381856020860161059b565b6105fc8161038d565b840191505092915050565b6000819050919050565b61061a81610607565b82525050565b60006060830160008301516106386000860182610570565b506020830151848203602086015261065082826105ce565b91505060408301516106656040860182610611565b508091505092915050565b600061067c8383610620565b905092915050565b6000602082019050919050565b600061069c82610512565b6106a6818561051d565b9350836020820285016106b88561052e565b8060005b858110156106f457848403895281516106d58582610670565b94506106e083610684565b925060208a019950506001810190506106bc565b50829750879550505050505092915050565b600060208201905081810360008301526107208184610691565b905092915050565b6107318161055e565b82525050565b600060208201905061074c6000830184610728565b92915050565b7f4e487b7100000000000000000000000000000000000000000000000000000000600052602260045260246000fd5b6000600282049050600182168061079957607f821691505b602082108114156107ad576107ac610752565b5b5091905056fea2646970667358221220e5d9b3fd040e3fcb19bdcf6b376c2989c3fe3404b59cbe6cdb83f27cb1a6fcf464736f6c63430008090033",
  "linkReferences": {},
  "deployedLinkReferences": {}
}