{
  "_format": "hh-sol-artifact-1",
  "contractName": "Blog",
  "sourceName": "contracts/Blog.sol",
  "abi": [
    {
      "inputs": [
        {
          "internalType": "address",
          "name": "friend_key",
          "type": "address"
        },
        {
          "internalType": "string",
          "name": "name",
          "type": "string"
        }
      ],
      "name": "addFriend",
      "outputs": [],
      "stateMutability": "nonpayable",
      "type": "function"
    },
    {
      "inputs": [
        {
          "internalType": "string",
          "name": "vsebina",
          "type": "string"
        }
      ],
      "name": "addPost",
      "outputs": [],
      "stateMutability": "nonpayable",
      "type": "function"
    },
    {
      "inputs": [
        {
          "internalType": "bytes32",
          "name": "",
          "type": "bytes32"
        },
        {
          "internalType": "uint256",
          "name": "",
          "type": "uint256"
        }
      ],
      "name": "chats",
      "outputs": [
        {
          "internalType": "uint256",
          "name": "id",
          "type": "uint256"
        },
        {
          "internalType": "address",
          "name": "from",
          "type": "address"
        },
        {
          "internalType": "string",
          "name": "nameOfSender",
          "type": "string"
        },
        {
          "internalType": "address",
          "name": "to",
          "type": "address"
        },
        {
          "internalType": "string",
          "name": "content",
          "type": "string"
        },
        {
          "internalType": "uint256",
          "name": "timestamp",
          "type": "uint256"
        }
      ],
      "stateMutability": "view",
      "type": "function"
    },
    {
      "inputs": [
        {
          "internalType": "string",
          "name": "name",
          "type": "string"
        }
      ],
      "name": "createNewUser",
      "outputs": [],
      "stateMutability": "nonpayable",
      "type": "function"
    },
    {
      "inputs": [
        {
          "internalType": "address",
          "name": "pubkey",
          "type": "address"
        }
      ],
      "name": "doesUserExist",
      "outputs": [
        {
          "internalType": "bool",
          "name": "",
          "type": "bool"
        }
      ],
      "stateMutability": "view",
      "type": "function"
    },
    {
      "inputs": [
        {
          "internalType": "address",
          "name": "to",
          "type": "address"
        }
      ],
      "name": "getChat",
      "outputs": [
        {
          "components": [
            {
              "internalType": "uint256",
              "name": "id",
              "type": "uint256"
            },
            {
              "internalType": "address",
              "name": "from",
              "type": "address"
            },
            {
              "internalType": "string",
              "name": "nameOfSender",
              "type": "string"
            },
            {
              "internalType": "address",
              "name": "to",
              "type": "address"
            },
            {
              "internalType": "string",
              "name": "content",
              "type": "string"
            },
            {
              "internalType": "uint256",
              "name": "timestamp",
              "type": "uint256"
            }
          ],
          "internalType": "struct Blog.Message[]",
          "name": "",
          "type": "tuple[]"
        }
      ],
      "stateMutability": "view",
      "type": "function"
    },
    {
      "inputs": [],
      "name": "getMyFriends",
      "outputs": [
        {
          "components": [
            {
              "internalType": "address",
              "name": "pubkey",
              "type": "address"
            },
            {
              "internalType": "string",
              "name": "name",
              "type": "string"
            }
          ],
          "internalType": "struct Blog.Friend[]",
          "name": "",
          "type": "tuple[]"
        }
      ],
      "stateMutability": "view",
      "type": "function"
    },
    {
      "inputs": [],
      "name": "getPosts",
      "outputs": [
        {
          "components": [
            {
              "internalType": "uint256",
              "name": "id",
              "type": "uint256"
            },
            {
              "internalType": "string",
              "name": "author",
              "type": "string"
            },
            {
              "internalType": "address",
              "name": "pubkey",
              "type": "address"
            },
            {
              "internalType": "string",
              "name": "content",
              "type": "string"
            },
            {
              "internalType": "uint256",
              "name": "timestamp",
              "type": "uint256"
            }
          ],
          "internalType": "struct Blog.Post[]",
          "name": "",
          "type": "tuple[]"
        }
      ],
      "stateMutability": "view",
      "type": "function"
    },
    {
      "inputs": [
        {
          "internalType": "address",
          "name": "to",
          "type": "address"
        },
        {
          "internalType": "string",
          "name": "content",
          "type": "string"
        }
      ],
      "name": "sendMessage",
      "outputs": [],
      "stateMutability": "nonpayable",
      "type": "function"
    }
  ],
  "bytecode": "0x608060405234801561001057600080fd5b5061263a806100206000396000f3fe608060405234801561001057600080fd5b50600436106100935760003560e01c8063a632281911610066578063a632281914610137578063ad637de114610153578063be34ebbf1461016f578063de6f24bb1461018d578063ecb41054146101a957610093565b80632efcb62f14610098578063354ed5f7146100c85780633b9f708d146100fd57806341f3004a14610119575b600080fd5b6100b260048036038101906100ad9190611860565b6101d9565b6040516100bf9190611aa0565b60405180910390f35b6100e260048036038101906100dd9190611b24565b61043e565b6040516100f496959493929190611bcc565b60405180910390f35b61011760048036038101906101129190611ca0565b6105e7565b005b610121610a4a565b60405161012e9190611e3f565b60405180910390f35b610151600480360381019061014c9190611f91565b610c37565b005b61016d60048036038101906101689190611fda565b610e08565b005b610177610ef3565b6040516101849190612126565b60405180910390f35b6101a760048036038101906101a29190612148565b61107a565b005b6101c360048036038101906101be9190611860565b6112e0565b6040516101d091906121bf565b60405180910390f35b606060006101e7338461133a565b905060026000828152602001908152602001600020805480602002602001604051908101604052809291908181526020016000905b8282101561043257838290600052602060002090600602016040518060c0016040529081600082015481526020016001820160009054906101000a900473ffffffffffffffffffffffffffffffffffffffff1673ffffffffffffffffffffffffffffffffffffffff1673ffffffffffffffffffffffffffffffffffffffff1681526020016002820180546102af90612209565b80601f01602080910402602001604051908101604052809291908181526020018280546102db90612209565b80156103285780601f106102fd57610100808354040283529160200191610328565b820191906000526020600020905b81548152906001019060200180831161030b57829003601f168201915b505050505081526020016003820160009054906101000a900473ffffffffffffffffffffffffffffffffffffffff1673ffffffffffffffffffffffffffffffffffffffff1673ffffffffffffffffffffffffffffffffffffffff16815260200160048201805461039790612209565b80601f01602080910402602001604051908101604052809291908181526020018280546103c390612209565b80156104105780601f106103e557610100808354040283529160200191610410565b820191906000526020600020905b8154815290600101906020018083116103f357829003601f168201915b505050505081526020016005820154815250508152602001906001019061021c565b50505050915050919050565b6002602052816000526040600020818154811061045a57600080fd5b9060005260206000209060060201600091509150508060000154908060010160009054906101000a900473ffffffffffffffffffffffffffffffffffffffff16908060020180546104aa90612209565b80601f01602080910402602001604051908101604052809291908181526020018280546104d690612209565b80156105235780601f106104f857610100808354040283529160200191610523565b820191906000526020600020905b81548152906001019060200180831161050657829003601f168201915b5050505050908060030160009054906101000a900473ffffffffffffffffffffffffffffffffffffffff169080600401805461055e90612209565b80601f016020809104026020016040519081016040528092919081815260200182805461058a90612209565b80156105d75780601f106105ac576101008083540402835291602001916105d7565b820191906000526020600020905b8154815290600101906020018083116105ba57829003601f168201915b5050505050908060050154905086565b6105f0336112e0565b61062f576040517f08c379a000000000000000000000000000000000000000000000000000000000815260040161062690612287565b60405180910390fd5b610638836112e0565b610677576040517f08c379a000000000000000000000000000000000000000000000000000000000815260040161066e906122f3565b60405180910390fd5b8273ffffffffffffffffffffffffffffffffffffffff163373ffffffffffffffffffffffffffffffffffffffff1614156106e6576040517f08c379a00000000000000000000000000000000000000000000000000000000081526004016106dd90612385565b60405180910390fd5b600015156106f433856113d2565b151514610736576040517f08c379a000000000000000000000000000000000000000000000000000000000815260040161072d906123f1565b60405180910390fd5b600060405180604001604052808573ffffffffffffffffffffffffffffffffffffffff16815260200184848080601f016020809104026020016040519081016040528093929190818152602001838380828437600081840152601f19601f820116905080830192505050505050508152509050600160003373ffffffffffffffffffffffffffffffffffffffff1673ffffffffffffffffffffffffffffffffffffffff16815260200190815260200160002060010181908060018154018082558091505060019003906000526020600020906002020160009091909190915060008201518160000160006101000a81548173ffffffffffffffffffffffffffffffffffffffff021916908373ffffffffffffffffffffffffffffffffffffffff16021790555060208201518160010190805190602001906108789291906116c5565b50505060405180604001604052803373ffffffffffffffffffffffffffffffffffffffff168152602001600160003373ffffffffffffffffffffffffffffffffffffffff1673ffffffffffffffffffffffffffffffffffffffff16815260200190815260200160002060000180546108ef90612209565b80601f016020809104026020016040519081016040528092919081815260200182805461091b90612209565b80156109685780601f1061093d57610100808354040283529160200191610968565b820191906000526020600020905b81548152906001019060200180831161094b57829003601f168201915b50505050508152509050600160008573ffffffffffffffffffffffffffffffffffffffff1673ffffffffffffffffffffffffffffffffffffffff16815260200190815260200160002060010181908060018154018082558091505060019003906000526020600020906002020160009091909190915060008201518160000160006101000a81548173ffffffffffffffffffffffffffffffffffffffff021916908373ffffffffffffffffffffffffffffffffffffffff1602179055506020820151816001019080519060200190610a419291906116c5565b50505050505050565b60606000805480602002602001604051908101604052809291908181526020016000905b82821015610c2e57838290600052602060002090600502016040518060a001604052908160008201548152602001600182018054610aab90612209565b80601f0160208091040260200160405190810160405280929190818152602001828054610ad790612209565b8015610b245780601f10610af957610100808354040283529160200191610b24565b820191906000526020600020905b815481529060010190602001808311610b0757829003601f168201915b505050505081526020016002820160009054906101000a900473ffffffffffffffffffffffffffffffffffffffff1673ffffffffffffffffffffffffffffffffffffffff1673ffffffffffffffffffffffffffffffffffffffff168152602001600382018054610b9390612209565b80601f0160208091040260200160405190810160405280929190818152602001828054610bbf90612209565b8015610c0c5780601f10610be157610100808354040283529160200191610c0c565b820191906000526020600020905b815481529060010190602001808311610bef57829003601f168201915b5050505050815260200160048201548152505081526020019060010190610a6e565b50505050905090565b60006040518060a001604052806000805490508152602001600160003373ffffffffffffffffffffffffffffffffffffffff1673ffffffffffffffffffffffffffffffffffffffff1681526020019081526020016000206000018054610c9c90612209565b80601f0160208091040260200160405190810160405280929190818152602001828054610cc890612209565b8015610d155780601f10610cea57610100808354040283529160200191610d15565b820191906000526020600020905b815481529060010190602001808311610cf857829003601f168201915b505050505081526020013373ffffffffffffffffffffffffffffffffffffffff168152602001838152602001428152509080600181540180825580915050600190039060005260206000209060050201600090919091909150600082015181600001556020820151816001019080519060200190610d949291906116c5565b5060408201518160020160006101000a81548173ffffffffffffffffffffffffffffffffffffffff021916908373ffffffffffffffffffffffffffffffffffffffff1602179055506060820151816003019080519060200190610df89291906116c5565b5060808201518160040155505050565b60001515610e15336112e0565b151514610e57576040517f08c379a0000000000000000000000000000000000000000000000000000000008152600401610e4e9061245d565b60405180910390fd5b60008282905011610e9d576040517f08c379a0000000000000000000000000000000000000000000000000000000008152600401610e94906124c9565b60405180910390fd5b8181600160003373ffffffffffffffffffffffffffffffffffffffff1673ffffffffffffffffffffffffffffffffffffffff1681526020019081526020016000206000019190610eee92919061174b565b505050565b6060600160003373ffffffffffffffffffffffffffffffffffffffff1673ffffffffffffffffffffffffffffffffffffffff168152602001908152602001600020600101805480602002602001604051908101604052809291908181526020016000905b8282101561107157838290600052602060002090600202016040518060400160405290816000820160009054906101000a900473ffffffffffffffffffffffffffffffffffffffff1673ffffffffffffffffffffffffffffffffffffffff1673ffffffffffffffffffffffffffffffffffffffff168152602001600182018054610fe090612209565b80601f016020809104026020016040519081016040528092919081815260200182805461100c90612209565b80156110595780601f1061102e57610100808354040283529160200191611059565b820191906000526020600020905b81548152906001019060200180831161103c57829003601f168201915b50505050508152505081526020019060010190610f57565b50505050905090565b6000611086338461133a565b9050600260008281526020019081526020016000206040518060c00160405280600260008581526020019081526020016000208054905081526020013373ffffffffffffffffffffffffffffffffffffffff168152602001600160003373ffffffffffffffffffffffffffffffffffffffff1673ffffffffffffffffffffffffffffffffffffffff168152602001908152602001600020600001805461112b90612209565b80601f016020809104026020016040519081016040528092919081815260200182805461115790612209565b80156111a45780601f10611179576101008083540402835291602001916111a4565b820191906000526020600020905b81548152906001019060200180831161118757829003601f168201915b505050505081526020018573ffffffffffffffffffffffffffffffffffffffff1681526020018481526020014281525090806001815401808255809150506001900390600052602060002090600602016000909190919091506000820151816000015560208201518160010160006101000a81548173ffffffffffffffffffffffffffffffffffffffff021916908373ffffffffffffffffffffffffffffffffffffffff160217905550604082015181600201908051906020019061126a9291906116c5565b5060608201518160030160006101000a81548173ffffffffffffffffffffffffffffffffffffffff021916908373ffffffffffffffffffffffffffffffffffffffff16021790555060808201518160040190805190602001906112ce9291906116c5565b5060a082015181600501555050505050565b600080600160008473ffffffffffffffffffffffffffffffffffffffff1673ffffffffffffffffffffffffffffffffffffffff168152602001908152602001600020600001805461133090612209565b9050119050919050565b60008173ffffffffffffffffffffffffffffffffffffffff168373ffffffffffffffffffffffffffffffffffffffff1610156113a0578282604051602001611383929190612531565b6040516020818303038152906040528051906020012090506113cc565b81836040516020016113b3929190612531565b6040516020818303038152906040528051906020012090505b92915050565b6000600160008373ffffffffffffffffffffffffffffffffffffffff1673ffffffffffffffffffffffffffffffffffffffff16815260200190815260200160002060010180549050600160008573ffffffffffffffffffffffffffffffffffffffff1673ffffffffffffffffffffffffffffffffffffffff1681526020019081526020016000206001018054905011156115925760005b600160008473ffffffffffffffffffffffffffffffffffffffff1673ffffffffffffffffffffffffffffffffffffffff1681526020019081526020016000206001018054905081101561158c578373ffffffffffffffffffffffffffffffffffffffff16600160008573ffffffffffffffffffffffffffffffffffffffff1673ffffffffffffffffffffffffffffffffffffffff16815260200190815260200160002060010182815481106115215761152061255d565b5b906000526020600020906002020160000160009054906101000a900473ffffffffffffffffffffffffffffffffffffffff1673ffffffffffffffffffffffffffffffffffffffff1614156115795760019150506116bf565b8080611584906125bb565b915050611469565b506116ba565b60005b600160008573ffffffffffffffffffffffffffffffffffffffff1673ffffffffffffffffffffffffffffffffffffffff168152602001908152602001600020600101805490508110156116b8578273ffffffffffffffffffffffffffffffffffffffff16600160008673ffffffffffffffffffffffffffffffffffffffff1673ffffffffffffffffffffffffffffffffffffffff168152602001908152602001600020600101828154811061164d5761164c61255d565b5b906000526020600020906002020160000160009054906101000a900473ffffffffffffffffffffffffffffffffffffffff1673ffffffffffffffffffffffffffffffffffffffff1614156116a55760019150506116bf565b80806116b0906125bb565b915050611595565b505b600090505b92915050565b8280546116d190612209565b90600052602060002090601f0160209004810192826116f3576000855561173a565b82601f1061170c57805160ff191683800117855561173a565b8280016001018555821561173a579182015b8281111561173957825182559160200191906001019061171e565b5b50905061174791906117d1565b5090565b82805461175790612209565b90600052602060002090601f01602090048101928261177957600085556117c0565b82601f1061179257803560ff19168380011785556117c0565b828001600101855582156117c0579182015b828111156117bf5782358255916020019190600101906117a4565b5b5090506117cd91906117d1565b5090565b5b808211156117ea5760008160009055506001016117d2565b5090565b6000604051905090565b600080fd5b600080fd5b600073ffffffffffffffffffffffffffffffffffffffff82169050919050565b600061182d82611802565b9050919050565b61183d81611822565b811461184857600080fd5b50565b60008135905061185a81611834565b92915050565b600060208284031215611876576118756117f8565b5b60006118848482850161184b565b91505092915050565b600081519050919050565b600082825260208201905092915050565b6000819050602082019050919050565b6000819050919050565b6118cc816118b9565b82525050565b6118db81611822565b82525050565b600081519050919050565b600082825260208201905092915050565b60005b8381101561191b578082015181840152602081019050611900565b8381111561192a576000848401525b50505050565b6000601f19601f8301169050919050565b600061194c826118e1565b61195681856118ec565b93506119668185602086016118fd565b61196f81611930565b840191505092915050565b600060c08301600083015161199260008601826118c3565b5060208301516119a560208601826118d2565b50604083015184820360408601526119bd8282611941565b91505060608301516119d260608601826118d2565b50608083015184820360808601526119ea8282611941565b91505060a08301516119ff60a08601826118c3565b508091505092915050565b6000611a16838361197a565b905092915050565b6000602082019050919050565b6000611a368261188d565b611a408185611898565b935083602082028501611a52856118a9565b8060005b85811015611a8e5784840389528151611a6f8582611a0a565b9450611a7a83611a1e565b925060208a01995050600181019050611a56565b50829750879550505050505092915050565b60006020820190508181036000830152611aba8184611a2b565b905092915050565b6000819050919050565b611ad581611ac2565b8114611ae057600080fd5b50565b600081359050611af281611acc565b92915050565b611b01816118b9565b8114611b0c57600080fd5b50565b600081359050611b1e81611af8565b92915050565b60008060408385031215611b3b57611b3a6117f8565b5b6000611b4985828601611ae3565b9250506020611b5a85828601611b0f565b9150509250929050565b611b6d816118b9565b82525050565b611b7c81611822565b82525050565b600082825260208201905092915050565b6000611b9e826118e1565b611ba88185611b82565b9350611bb88185602086016118fd565b611bc181611930565b840191505092915050565b600060c082019050611be16000830189611b64565b611bee6020830188611b73565b8181036040830152611c008187611b93565b9050611c0f6060830186611b73565b8181036080830152611c218185611b93565b9050611c3060a0830184611b64565b979650505050505050565b600080fd5b600080fd5b600080fd5b60008083601f840112611c6057611c5f611c3b565b5b8235905067ffffffffffffffff811115611c7d57611c7c611c40565b5b602083019150836001820283011115611c9957611c98611c45565b5b9250929050565b600080600060408486031215611cb957611cb86117f8565b5b6000611cc78682870161184b565b935050602084013567ffffffffffffffff811115611ce857611ce76117fd565b5b611cf486828701611c4a565b92509250509250925092565b600081519050919050565b600082825260208201905092915050565b6000819050602082019050919050565b600060a083016000830151611d4460008601826118c3565b5060208301518482036020860152611d5c8282611941565b9150506040830151611d7160408601826118d2565b5060608301518482036060860152611d898282611941565b9150506080830151611d9e60808601826118c3565b508091505092915050565b6000611db58383611d2c565b905092915050565b6000602082019050919050565b6000611dd582611d00565b611ddf8185611d0b565b935083602082028501611df185611d1c565b8060005b85811015611e2d5784840389528151611e0e8582611da9565b9450611e1983611dbd565b925060208a01995050600181019050611df5565b50829750879550505050505092915050565b60006020820190508181036000830152611e598184611dca565b905092915050565b600080fd5b7f4e487b7100000000000000000000000000000000000000000000000000000000600052604160045260246000fd5b611e9e82611930565b810181811067ffffffffffffffff82111715611ebd57611ebc611e66565b5b80604052505050565b6000611ed06117ee565b9050611edc8282611e95565b919050565b600067ffffffffffffffff821115611efc57611efb611e66565b5b611f0582611930565b9050602081019050919050565b82818337600083830152505050565b6000611f34611f2f84611ee1565b611ec6565b905082815260208101848484011115611f5057611f4f611e61565b5b611f5b848285611f12565b509392505050565b600082601f830112611f7857611f77611c3b565b5b8135611f88848260208601611f21565b91505092915050565b600060208284031215611fa757611fa66117f8565b5b600082013567ffffffffffffffff811115611fc557611fc46117fd565b5b611fd184828501611f63565b91505092915050565b60008060208385031215611ff157611ff06117f8565b5b600083013567ffffffffffffffff81111561200f5761200e6117fd565b5b61201b85828601611c4a565b92509250509250929050565b600081519050919050565b600082825260208201905092915050565b6000819050602082019050919050565b600060408301600083015161206b60008601826118d2565b50602083015184820360208601526120838282611941565b9150508091505092915050565b600061209c8383612053565b905092915050565b6000602082019050919050565b60006120bc82612027565b6120c68185612032565b9350836020820285016120d885612043565b8060005b8581101561211457848403895281516120f58582612090565b9450612100836120a4565b925060208a019950506001810190506120dc565b50829750879550505050505092915050565b6000602082019050818103600083015261214081846120b1565b905092915050565b6000806040838503121561215f5761215e6117f8565b5b600061216d8582860161184b565b925050602083013567ffffffffffffffff81111561218e5761218d6117fd565b5b61219a85828601611f63565b9150509250929050565b60008115159050919050565b6121b9816121a4565b82525050565b60006020820190506121d460008301846121b0565b92915050565b7f4e487b7100000000000000000000000000000000000000000000000000000000600052602260045260246000fd5b6000600282049050600182168061222157607f821691505b60208210811415612235576122346121da565b5b50919050565b7f43726561746520616e206163636f756e74206669727374210000000000000000600082015250565b6000612271601883611b82565b915061227c8261223b565b602082019050919050565b600060208201905081810360008301526122a081612264565b9050919050565b7f55736572206973206e6f74207265676973746572656421000000000000000000600082015250565b60006122dd601783611b82565b91506122e8826122a7565b602082019050919050565b6000602082019050818103600083015261230c816122d0565b9050919050565b7f55736572732063616e6e6f7420616464207468656d73656c766573206173206660008201527f7269656e64732100000000000000000000000000000000000000000000000000602082015250565b600061236f602783611b82565b915061237a82612313565b604082019050919050565b6000602082019050818103600083015261239e81612362565b9050919050565b7f54686573652075736572732061726520616c726561647920667269656e647321600082015250565b60006123db602083611b82565b91506123e6826123a5565b602082019050919050565b6000602082019050818103600083015261240a816123ce565b9050919050565b7f5573657220616c72656164792065786973747321000000000000000000000000600082015250565b6000612447601483611b82565b915061245282612411565b602082019050919050565b600060208201905081810360008301526124768161243a565b9050919050565b7f557365726e616d652063616e6e6f7420626520656d7074792100000000000000600082015250565b60006124b3601983611b82565b91506124be8261247d565b602082019050919050565b600060208201905081810360008301526124e2816124a6565b9050919050565b60008160601b9050919050565b6000612501826124e9565b9050919050565b6000612513826124f6565b9050919050565b61252b61252682611822565b612508565b82525050565b600061253d828561251a565b60148201915061254d828461251a565b6014820191508190509392505050565b7f4e487b7100000000000000000000000000000000000000000000000000000000600052603260045260246000fd5b7f4e487b7100000000000000000000000000000000000000000000000000000000600052601160045260246000fd5b60006125c6826118b9565b91507fffffffffffffffffffffffffffffffffffffffffffffffffffffffffffffffff8214156125f9576125f861258c565b5b60018201905091905056fea2646970667358221220257d0f307b49c642f9b81c46ac5afe28f033833dd1de7e7e725b002c477e52f164736f6c63430008090033",
  "linkReferences": {},
  "deployedLinkReferences": {}
}