{
  "_format": "hh-sol-artifact-1",
  "contractName": "Blog",
  "sourceName": "contracts/Blog.sol",
  "abi": [
    {
      "inputs": [
        {
          "internalType": "address",
          "name": "friend_key",
          "type": "address"
        },
        {
          "internalType": "string",
          "name": "name",
          "type": "string"
        }
      ],
      "name": "addFriend",
      "outputs": [],
      "stateMutability": "nonpayable",
      "type": "function"
    },
    {
      "inputs": [
        {
          "internalType": "string",
          "name": "vsebina",
          "type": "string"
        }
      ],
      "name": "addPost",
      "outputs": [],
      "stateMutability": "nonpayable",
      "type": "function"
    },
    {
      "inputs": [
        {
          "internalType": "bytes32",
          "name": "",
          "type": "bytes32"
        },
        {
          "internalType": "uint256",
          "name": "",
          "type": "uint256"
        }
      ],
      "name": "chats",
      "outputs": [
        {
          "internalType": "uint256",
          "name": "id",
          "type": "uint256"
        },
        {
          "internalType": "address",
          "name": "from",
          "type": "address"
        },
        {
          "internalType": "string",
          "name": "nameOfSender",
          "type": "string"
        },
        {
          "internalType": "address",
          "name": "to",
          "type": "address"
        },
        {
          "internalType": "string",
          "name": "content",
          "type": "string"
        },
        {
          "internalType": "uint256",
          "name": "timestamp",
          "type": "uint256"
        }
      ],
      "stateMutability": "view",
      "type": "function"
    },
    {
      "inputs": [
        {
          "internalType": "string",
          "name": "name",
          "type": "string"
        },
        {
          "internalType": "bool",
          "name": "isMod",
          "type": "bool"
        }
      ],
      "name": "createNewUser",
      "outputs": [],
      "stateMutability": "nonpayable",
      "type": "function"
    },
    {
      "inputs": [
        {
          "internalType": "uint256",
          "name": "id",
          "type": "uint256"
        }
      ],
      "name": "deletePost",
      "outputs": [],
      "stateMutability": "nonpayable",
      "type": "function"
    },
    {
      "inputs": [
        {
          "internalType": "address",
          "name": "pubkey",
          "type": "address"
        }
      ],
      "name": "doesUserExist",
      "outputs": [
        {
          "internalType": "bool",
          "name": "",
          "type": "bool"
        }
      ],
      "stateMutability": "view",
      "type": "function"
    },
    {
      "inputs": [
        {
          "internalType": "address",
          "name": "to",
          "type": "address"
        }
      ],
      "name": "getChat",
      "outputs": [
        {
          "components": [
            {
              "internalType": "uint256",
              "name": "id",
              "type": "uint256"
            },
            {
              "internalType": "address",
              "name": "from",
              "type": "address"
            },
            {
              "internalType": "string",
              "name": "nameOfSender",
              "type": "string"
            },
            {
              "internalType": "address",
              "name": "to",
              "type": "address"
            },
            {
              "internalType": "string",
              "name": "content",
              "type": "string"
            },
            {
              "internalType": "uint256",
              "name": "timestamp",
              "type": "uint256"
            }
          ],
          "internalType": "struct Blog.Message[]",
          "name": "",
          "type": "tuple[]"
        }
      ],
      "stateMutability": "view",
      "type": "function"
    },
    {
      "inputs": [],
      "name": "getFriendRequests",
      "outputs": [
        {
          "components": [
            {
              "internalType": "address",
              "name": "pubkey",
              "type": "address"
            },
            {
              "internalType": "string",
              "name": "name",
              "type": "string"
            }
          ],
          "internalType": "struct Blog.FriendRequest[]",
          "name": "",
          "type": "tuple[]"
        }
      ],
      "stateMutability": "view",
      "type": "function"
    },
    {
      "inputs": [],
      "name": "getPosts",
      "outputs": [
        {
          "components": [
            {
              "internalType": "uint256",
              "name": "id",
              "type": "uint256"
            },
            {
              "internalType": "string",
              "name": "author",
              "type": "string"
            },
            {
              "internalType": "address",
              "name": "pubkey",
              "type": "address"
            },
            {
              "internalType": "string",
              "name": "content",
              "type": "string"
            },
            {
              "internalType": "uint256",
              "name": "timestamp",
              "type": "uint256"
            }
          ],
          "internalType": "struct Blog.Post[]",
          "name": "",
          "type": "tuple[]"
        }
      ],
      "stateMutability": "view",
      "type": "function"
    },
    {
      "inputs": [
        {
          "internalType": "address",
          "name": "userAddress",
          "type": "address"
        }
      ],
      "name": "getUser",
      "outputs": [
        {
          "components": [
            {
              "internalType": "string",
              "name": "name",
              "type": "string"
            },
            {
              "components": [
                {
                  "internalType": "address",
                  "name": "pubkey",
                  "type": "address"
                },
                {
                  "internalType": "string",
                  "name": "name",
                  "type": "string"
                }
              ],
              "internalType": "struct Blog.Friend[]",
              "name": "friends",
              "type": "tuple[]"
            },
            {
              "components": [
                {
                  "internalType": "uint256",
                  "name": "id",
                  "type": "uint256"
                },
                {
                  "internalType": "string",
                  "name": "author",
                  "type": "string"
                },
                {
                  "internalType": "address",
                  "name": "pubkey",
                  "type": "address"
                },
                {
                  "internalType": "string",
                  "name": "content",
                  "type": "string"
                },
                {
                  "internalType": "uint256",
                  "name": "timestamp",
                  "type": "uint256"
                }
              ],
              "internalType": "struct Blog.Post[]",
              "name": "posts",
              "type": "tuple[]"
            },
            {
              "components": [
                {
                  "internalType": "address",
                  "name": "pubkey",
                  "type": "address"
                },
                {
                  "internalType": "string",
                  "name": "name",
                  "type": "string"
                }
              ],
              "internalType": "struct Blog.FriendRequest[]",
              "name": "friendRequests",
              "type": "tuple[]"
            },
            {
              "internalType": "bool",
              "name": "isMod",
              "type": "bool"
            }
          ],
          "internalType": "struct Blog.User",
          "name": "",
          "type": "tuple"
        }
      ],
      "stateMutability": "view",
      "type": "function"
    },
    {
      "inputs": [
        {
          "internalType": "address",
          "name": "friend_request_key",
          "type": "address"
        },
        {
          "internalType": "bool",
          "name": "accept",
          "type": "bool"
        }
      ],
      "name": "handleFriendRequest",
      "outputs": [],
      "stateMutability": "nonpayable",
      "type": "function"
    },
    {
      "inputs": [
        {
          "internalType": "address",
          "name": "friend_key",
          "type": "address"
        }
      ],
      "name": "sendFriendRequest",
      "outputs": [],
      "stateMutability": "nonpayable",
      "type": "function"
    },
    {
      "inputs": [
        {
          "internalType": "address",
          "name": "to",
          "type": "address"
        },
        {
          "internalType": "string",
          "name": "content",
          "type": "string"
        }
      ],
      "name": "sendMessage",
      "outputs": [],
      "stateMutability": "nonpayable",
      "type": "function"
    }
  ],
  "bytecode": "0x608060405234801561001057600080fd5b50613a7c806100206000396000f3fe608060405234801561001057600080fd5b50600436106100cf5760003560e01c80636ee0a58a1161008c578063a632281911610066578063a632281914610213578063d6688cbd1461022f578063de6f24bb1461024d578063ecb4105414610269576100cf565b80636ee0a58a146101ab5780636f77926b146101c7578063837b770a146101f7576100cf565b806302a76135146100d4578063094cd5ee146100f05780632efcb62f1461010c578063354ed5f71461013c5780633b9f708d1461017157806341f3004a1461018d575b600080fd5b6100ee60048036038101906100e99190612ae1565b610299565b005b61010a60048036038101906101059190612b77565b6103df565b005b61012660048036038101906101219190612c02565b6105e8565b6040516101339190612e38565b60405180910390f35b61015660048036038101906101519190612e90565b61084d565b60405161016896959493929190612f38565b60405180910390f35b61018b60048036038101906101869190612fa7565b6109f6565b005b610195610d0a565b6040516101a29190613146565b60405180910390f35b6101c560048036038101906101c09190613168565b610ef7565b005b6101e160048036038101906101dc9190612c02565b611900565b6040516101ee91906134c6565b60405180910390f35b610211600480360381019061020c9190612c02565b611e81565b005b61022d60048036038101906102289190613618565b612050565b005b61023761232a565b60405161024491906136e7565b60405180910390f35b61026760048036038101906102629190613709565b6124b1565b005b610283600480360381019061027e9190612c02565b612717565b6040516102909190613774565b60405180910390f35b600015156102a633612717565b1515146102e8576040517f08c379a00000000000000000000000000000000000000000000000000000000081526004016102df906137db565b60405180910390fd5b6000838390501161032e576040517f08c379a000000000000000000000000000000000000000000000000000000000815260040161032590613847565b60405180910390fd5b8282600160003373ffffffffffffffffffffffffffffffffffffffff1673ffffffffffffffffffffffffffffffffffffffff168152602001908152602001600020600001919061037f929190612809565b5080600160003373ffffffffffffffffffffffffffffffffffffffff1673ffffffffffffffffffffffffffffffffffffffff16815260200190815260200160002060040160006101000a81548160ff021916908315150217905550505050565b60011515600160003373ffffffffffffffffffffffffffffffffffffffff1673ffffffffffffffffffffffffffffffffffffffff16815260200190815260200160002060040160009054906101000a900460ff1615151461043f57600080fd5b600080549050811061045057600080fd5b600060016000805490506104649190613896565b81548110610475576104746138ca565b5b906000526020600020906005020160008281548110610497576104966138ca565b5b90600052602060002090600502016000820154816000015560018201816001019080546104c390613928565b6104ce92919061288f565b506002820160009054906101000a900473ffffffffffffffffffffffffffffffffffffffff168160020160006101000a81548173ffffffffffffffffffffffffffffffffffffffff021916908373ffffffffffffffffffffffffffffffffffffffff160217905550600382018160030190805461054a90613928565b61055592919061288f565b506004820154816004015590505060008054806105755761057461395a565b5b60019003818190600052602060002090600502016000808201600090556001820160006105a2919061291c565b6002820160006101000a81549073ffffffffffffffffffffffffffffffffffffffff02191690556003820160006105d9919061291c565b60048201600090555050905550565b606060006105f63384612771565b905060026000828152602001908152602001600020805480602002602001604051908101604052809291908181526020016000905b8282101561084157838290600052602060002090600602016040518060c0016040529081600082015481526020016001820160009054906101000a900473ffffffffffffffffffffffffffffffffffffffff1673ffffffffffffffffffffffffffffffffffffffff1673ffffffffffffffffffffffffffffffffffffffff1681526020016002820180546106be90613928565b80601f01602080910402602001604051908101604052809291908181526020018280546106ea90613928565b80156107375780601f1061070c57610100808354040283529160200191610737565b820191906000526020600020905b81548152906001019060200180831161071a57829003601f168201915b505050505081526020016003820160009054906101000a900473ffffffffffffffffffffffffffffffffffffffff1673ffffffffffffffffffffffffffffffffffffffff1673ffffffffffffffffffffffffffffffffffffffff1681526020016004820180546107a690613928565b80601f01602080910402602001604051908101604052809291908181526020018280546107d290613928565b801561081f5780601f106107f45761010080835404028352916020019161081f565b820191906000526020600020905b81548152906001019060200180831161080257829003601f168201915b505050505081526020016005820154815250508152602001906001019061062b565b50505050915050919050565b6002602052816000526040600020818154811061086957600080fd5b9060005260206000209060060201600091509150508060000154908060010160009054906101000a900473ffffffffffffffffffffffffffffffffffffffff16908060020180546108b990613928565b80601f01602080910402602001604051908101604052809291908181526020018280546108e590613928565b80156109325780601f1061090757610100808354040283529160200191610932565b820191906000526020600020905b81548152906001019060200180831161091557829003601f168201915b5050505050908060030160009054906101000a900473ffffffffffffffffffffffffffffffffffffffff169080600401805461096d90613928565b80601f016020809104026020016040519081016040528092919081815260200182805461099990613928565b80156109e65780601f106109bb576101008083540402835291602001916109e6565b820191906000526020600020905b8154815290600101906020018083116109c957829003601f168201915b5050505050908060050154905086565b600060405180604001604052808573ffffffffffffffffffffffffffffffffffffffff16815260200184848080601f016020809104026020016040519081016040528093929190818152602001838380828437600081840152601f19601f820116905080830192505050505050508152509050600160003373ffffffffffffffffffffffffffffffffffffffff1673ffffffffffffffffffffffffffffffffffffffff16815260200190815260200160002060010181908060018154018082558091505060019003906000526020600020906002020160009091909190915060008201518160000160006101000a81548173ffffffffffffffffffffffffffffffffffffffff021916908373ffffffffffffffffffffffffffffffffffffffff1602179055506020820151816001019080519060200190610b3892919061295c565b50505060405180604001604052803373ffffffffffffffffffffffffffffffffffffffff168152602001600160003373ffffffffffffffffffffffffffffffffffffffff1673ffffffffffffffffffffffffffffffffffffffff1681526020019081526020016000206000018054610baf90613928565b80601f0160208091040260200160405190810160405280929190818152602001828054610bdb90613928565b8015610c285780601f10610bfd57610100808354040283529160200191610c28565b820191906000526020600020905b815481529060010190602001808311610c0b57829003601f168201915b50505050508152509050600160008573ffffffffffffffffffffffffffffffffffffffff1673ffffffffffffffffffffffffffffffffffffffff16815260200190815260200160002060010181908060018154018082558091505060019003906000526020600020906002020160009091909190915060008201518160000160006101000a81548173ffffffffffffffffffffffffffffffffffffffff021916908373ffffffffffffffffffffffffffffffffffffffff1602179055506020820151816001019080519060200190610d0192919061295c565b50505050505050565b60606000805480602002602001604051908101604052809291908181526020016000905b82821015610eee57838290600052602060002090600502016040518060a001604052908160008201548152602001600182018054610d6b90613928565b80601f0160208091040260200160405190810160405280929190818152602001828054610d9790613928565b8015610de45780601f10610db957610100808354040283529160200191610de4565b820191906000526020600020905b815481529060010190602001808311610dc757829003601f168201915b505050505081526020016002820160009054906101000a900473ffffffffffffffffffffffffffffffffffffffff1673ffffffffffffffffffffffffffffffffffffffff1673ffffffffffffffffffffffffffffffffffffffff168152602001600382018054610e5390613928565b80601f0160208091040260200160405190810160405280929190818152602001828054610e7f90613928565b8015610ecc5780601f10610ea157610100808354040283529160200191610ecc565b820191906000526020600020905b815481529060010190602001808311610eaf57829003601f168201915b5050505050815260200160048201548152505081526020019060010190610d2e565b50505050905090565b60005b600160003373ffffffffffffffffffffffffffffffffffffffff1673ffffffffffffffffffffffffffffffffffffffff168152602001908152602001600020600301805490508110156118fb578273ffffffffffffffffffffffffffffffffffffffff16600160003373ffffffffffffffffffffffffffffffffffffffff1673ffffffffffffffffffffffffffffffffffffffff1681526020019081526020016000206003018281548110610fb257610fb16138ca565b5b906000526020600020906002020160000160009054906101000a900473ffffffffffffffffffffffffffffffffffffffff1673ffffffffffffffffffffffffffffffffffffffff161480156110045750815b156115e357600060405180604001604052808573ffffffffffffffffffffffffffffffffffffffff168152602001600160008773ffffffffffffffffffffffffffffffffffffffff1673ffffffffffffffffffffffffffffffffffffffff168152602001908152602001600020600001805461107f90613928565b80601f01602080910402602001604051908101604052809291908181526020018280546110ab90613928565b80156110f85780601f106110cd576101008083540402835291602001916110f8565b820191906000526020600020905b8154815290600101906020018083116110db57829003601f168201915b50505050508152509050600160003373ffffffffffffffffffffffffffffffffffffffff1673ffffffffffffffffffffffffffffffffffffffff16815260200190815260200160002060010181908060018154018082558091505060019003906000526020600020906002020160009091909190915060008201518160000160006101000a81548173ffffffffffffffffffffffffffffffffffffffff021916908373ffffffffffffffffffffffffffffffffffffffff16021790555060208201518160010190805190602001906111d192919061295c565b50505060405180604001604052803373ffffffffffffffffffffffffffffffffffffffff168152602001600160003373ffffffffffffffffffffffffffffffffffffffff1673ffffffffffffffffffffffffffffffffffffffff168152602001908152602001600020600001805461124890613928565b80601f016020809104026020016040519081016040528092919081815260200182805461127490613928565b80156112c15780601f10611296576101008083540402835291602001916112c1565b820191906000526020600020905b8154815290600101906020018083116112a457829003601f168201915b50505050508152509050600160008573ffffffffffffffffffffffffffffffffffffffff1673ffffffffffffffffffffffffffffffffffffffff16815260200190815260200160002060010181908060018154018082558091505060019003906000526020600020906002020160009091909190915060008201518160000160006101000a81548173ffffffffffffffffffffffffffffffffffffffff021916908373ffffffffffffffffffffffffffffffffffffffff160217905550602082015181600101908051906020019061139a92919061295c565b505050600160003373ffffffffffffffffffffffffffffffffffffffff1673ffffffffffffffffffffffffffffffffffffffff16815260200190815260200160002060030160018060003373ffffffffffffffffffffffffffffffffffffffff1673ffffffffffffffffffffffffffffffffffffffff168152602001908152602001600020600301805490506114309190613896565b81548110611441576114406138ca565b5b9060005260206000209060020201600160003373ffffffffffffffffffffffffffffffffffffffff1673ffffffffffffffffffffffffffffffffffffffff16815260200190815260200160002060030183815481106114a3576114a26138ca565b5b90600052602060002090600202016000820160009054906101000a900473ffffffffffffffffffffffffffffffffffffffff168160000160006101000a81548173ffffffffffffffffffffffffffffffffffffffff021916908373ffffffffffffffffffffffffffffffffffffffff160217905550600182018160010190805461152c90613928565b61153792919061288f565b50905050600160003373ffffffffffffffffffffffffffffffffffffffff1673ffffffffffffffffffffffffffffffffffffffff16815260200190815260200160002060030180548061158d5761158c61395a565b5b6001900381819060005260206000209060020201600080820160006101000a81549073ffffffffffffffffffffffffffffffffffffffff02191690556001820160006115d9919061291c565b50509055506118e8565b8273ffffffffffffffffffffffffffffffffffffffff16600160003373ffffffffffffffffffffffffffffffffffffffff1673ffffffffffffffffffffffffffffffffffffffff168152602001908152602001600020600301828154811061164e5761164d6138ca565b5b906000526020600020906002020160000160009054906101000a900473ffffffffffffffffffffffffffffffffffffffff1673ffffffffffffffffffffffffffffffffffffffff161480156116a1575081155b156118e757600160003373ffffffffffffffffffffffffffffffffffffffff1673ffffffffffffffffffffffffffffffffffffffff16815260200190815260200160002060030160018060003373ffffffffffffffffffffffffffffffffffffffff1673ffffffffffffffffffffffffffffffffffffffff168152602001908152602001600020600301805490506117399190613896565b8154811061174a576117496138ca565b5b9060005260206000209060020201600160003373ffffffffffffffffffffffffffffffffffffffff1673ffffffffffffffffffffffffffffffffffffffff16815260200190815260200160002060030182815481106117ac576117ab6138ca565b5b90600052602060002090600202016000820160009054906101000a900473ffffffffffffffffffffffffffffffffffffffff168160000160006101000a81548173ffffffffffffffffffffffffffffffffffffffff021916908373ffffffffffffffffffffffffffffffffffffffff160217905550600182018160010190805461183590613928565b61184092919061288f565b50905050600160003373ffffffffffffffffffffffffffffffffffffffff1673ffffffffffffffffffffffffffffffffffffffff1681526020019081526020016000206003018054806118965761189561395a565b5b6001900381819060005260206000209060020201600080820160006101000a81549073ffffffffffffffffffffffffffffffffffffffff02191690556001820160006118e2919061291c565b505090555b5b80806118f390613989565b915050610efa565b505050565b6119086129e2565b600160008373ffffffffffffffffffffffffffffffffffffffff1673ffffffffffffffffffffffffffffffffffffffff1681526020019081526020016000206040518060a001604052908160008201805461196290613928565b80601f016020809104026020016040519081016040528092919081815260200182805461198e90613928565b80156119db5780601f106119b0576101008083540402835291602001916119db565b820191906000526020600020905b8154815290600101906020018083116119be57829003601f168201915b5050505050815260200160018201805480602002602001604051908101604052809291908181526020016000905b82821015611b2357838290600052602060002090600202016040518060400160405290816000820160009054906101000a900473ffffffffffffffffffffffffffffffffffffffff1673ffffffffffffffffffffffffffffffffffffffff1673ffffffffffffffffffffffffffffffffffffffff168152602001600182018054611a9290613928565b80601f0160208091040260200160405190810160405280929190818152602001828054611abe90613928565b8015611b0b5780601f10611ae057610100808354040283529160200191611b0b565b820191906000526020600020905b815481529060010190602001808311611aee57829003601f168201915b50505050508152505081526020019060010190611a09565b50505050815260200160028201805480602002602001604051908101604052809291908181526020016000905b82821015611d1057838290600052602060002090600502016040518060a001604052908160008201548152602001600182018054611b8d90613928565b80601f0160208091040260200160405190810160405280929190818152602001828054611bb990613928565b8015611c065780601f10611bdb57610100808354040283529160200191611c06565b820191906000526020600020905b815481529060010190602001808311611be957829003601f168201915b505050505081526020016002820160009054906101000a900473ffffffffffffffffffffffffffffffffffffffff1673ffffffffffffffffffffffffffffffffffffffff1673ffffffffffffffffffffffffffffffffffffffff168152602001600382018054611c7590613928565b80601f0160208091040260200160405190810160405280929190818152602001828054611ca190613928565b8015611cee5780601f10611cc357610100808354040283529160200191611cee565b820191906000526020600020905b815481529060010190602001808311611cd157829003601f168201915b5050505050815260200160048201548152505081526020019060010190611b50565b50505050815260200160038201805480602002602001604051908101604052809291908181526020016000905b82821015611e5757838290600052602060002090600202016040518060400160405290816000820160009054906101000a900473ffffffffffffffffffffffffffffffffffffffff1673ffffffffffffffffffffffffffffffffffffffff1673ffffffffffffffffffffffffffffffffffffffff168152602001600182018054611dc690613928565b80601f0160208091040260200160405190810160405280929190818152602001828054611df290613928565b8015611e3f5780601f10611e1457610100808354040283529160200191611e3f565b820191906000526020600020905b815481529060010190602001808311611e2257829003601f168201915b50505050508152505081526020019060010190611d3d565b5050505081526020016004820160009054906101000a900460ff1615151515815250509050919050565b600060405180604001604052803373ffffffffffffffffffffffffffffffffffffffff168152602001600160003373ffffffffffffffffffffffffffffffffffffffff1673ffffffffffffffffffffffffffffffffffffffff1681526020019081526020016000206000018054611ef790613928565b80601f0160208091040260200160405190810160405280929190818152602001828054611f2390613928565b8015611f705780601f10611f4557610100808354040283529160200191611f70565b820191906000526020600020905b815481529060010190602001808311611f5357829003601f168201915b50505050508152509050600160008373ffffffffffffffffffffffffffffffffffffffff1673ffffffffffffffffffffffffffffffffffffffff16815260200190815260200160002060030181908060018154018082558091505060019003906000526020600020906002020160009091909190915060008201518160000160006101000a81548173ffffffffffffffffffffffffffffffffffffffff021916908373ffffffffffffffffffffffffffffffffffffffff160217905550602082015181600101908051906020019061204992919061295c565b5050505050565b60006040518060a001604052806000805490508152602001600160003373ffffffffffffffffffffffffffffffffffffffff1673ffffffffffffffffffffffffffffffffffffffff16815260200190815260200160002060000180546120b590613928565b80601f01602080910402602001604051908101604052809291908181526020018280546120e190613928565b801561212e5780601f106121035761010080835404028352916020019161212e565b820191906000526020600020905b81548152906001019060200180831161211157829003601f168201915b505050505081526020013373ffffffffffffffffffffffffffffffffffffffff16815260200183815260200142815250905060008190806001815401808255809150506001900390600052602060002090600502016000909190919091506000820151816000015560208201518160010190805190602001906121b292919061295c565b5060408201518160020160006101000a81548173ffffffffffffffffffffffffffffffffffffffff021916908373ffffffffffffffffffffffffffffffffffffffff160217905550606082015181600301908051906020019061221692919061295c565b50608082015181600401555050600160003373ffffffffffffffffffffffffffffffffffffffff1673ffffffffffffffffffffffffffffffffffffffff1681526020019081526020016000206002018190806001815401808255809150506001900390600052602060002090600502016000909190919091506000820151816000015560208201518160010190805190602001906122b592919061295c565b5060408201518160020160006101000a81548173ffffffffffffffffffffffffffffffffffffffff021916908373ffffffffffffffffffffffffffffffffffffffff160217905550606082015181600301908051906020019061231992919061295c565b506080820151816004015550505050565b6060600160003373ffffffffffffffffffffffffffffffffffffffff1673ffffffffffffffffffffffffffffffffffffffff168152602001908152602001600020600301805480602002602001604051908101604052809291908181526020016000905b828210156124a857838290600052602060002090600202016040518060400160405290816000820160009054906101000a900473ffffffffffffffffffffffffffffffffffffffff1673ffffffffffffffffffffffffffffffffffffffff1673ffffffffffffffffffffffffffffffffffffffff16815260200160018201805461241790613928565b80601f016020809104026020016040519081016040528092919081815260200182805461244390613928565b80156124905780601f1061246557610100808354040283529160200191612490565b820191906000526020600020905b81548152906001019060200180831161247357829003601f168201915b5050505050815250508152602001906001019061238e565b50505050905090565b60006124bd3384612771565b9050600260008281526020019081526020016000206040518060c00160405280600260008581526020019081526020016000208054905081526020013373ffffffffffffffffffffffffffffffffffffffff168152602001600160003373ffffffffffffffffffffffffffffffffffffffff1673ffffffffffffffffffffffffffffffffffffffff168152602001908152602001600020600001805461256290613928565b80601f016020809104026020016040519081016040528092919081815260200182805461258e90613928565b80156125db5780601f106125b0576101008083540402835291602001916125db565b820191906000526020600020905b8154815290600101906020018083116125be57829003601f168201915b505050505081526020018573ffffffffffffffffffffffffffffffffffffffff1681526020018481526020014281525090806001815401808255809150506001900390600052602060002090600602016000909190919091506000820151816000015560208201518160010160006101000a81548173ffffffffffffffffffffffffffffffffffffffff021916908373ffffffffffffffffffffffffffffffffffffffff16021790555060408201518160020190805190602001906126a192919061295c565b5060608201518160030160006101000a81548173ffffffffffffffffffffffffffffffffffffffff021916908373ffffffffffffffffffffffffffffffffffffffff160217905550608082015181600401908051906020019061270592919061295c565b5060a082015181600501555050505050565b600080600160008473ffffffffffffffffffffffffffffffffffffffff1673ffffffffffffffffffffffffffffffffffffffff168152602001908152602001600020600001805461276790613928565b9050119050919050565b60008173ffffffffffffffffffffffffffffffffffffffff168373ffffffffffffffffffffffffffffffffffffffff1610156127d75782826040516020016127ba929190613a1a565b604051602081830303815290604052805190602001209050612803565b81836040516020016127ea929190613a1a565b6040516020818303038152906040528051906020012090505b92915050565b82805461281590613928565b90600052602060002090601f016020900481019282612837576000855561287e565b82601f1061285057803560ff191683800117855561287e565b8280016001018555821561287e579182015b8281111561287d578235825591602001919060010190612862565b5b50905061288b9190612a13565b5090565b82805461289b90613928565b90600052602060002090601f0160209004810192826128bd576000855561290b565b82601f106128ce578054855561290b565b8280016001018555821561290b57600052602060002091601f016020900482015b8281111561290a5782548255916001019190600101906128ef565b5b5090506129189190612a13565b5090565b50805461292890613928565b6000825580601f1061293a5750612959565b601f0160209004906000526020600020908101906129589190612a13565b5b50565b82805461296890613928565b90600052602060002090601f01602090048101928261298a57600085556129d1565b82601f106129a357805160ff19168380011785556129d1565b828001600101855582156129d1579182015b828111156129d05782518255916020019190600101906129b5565b5b5090506129de9190612a13565b5090565b6040518060a00160405280606081526020016060815260200160608152602001606081526020016000151581525090565b5b80821115612a2c576000816000905550600101612a14565b5090565b6000604051905090565b600080fd5b600080fd5b600080fd5b600080fd5b600080fd5b60008083601f840112612a6957612a68612a44565b5b8235905067ffffffffffffffff811115612a8657612a85612a49565b5b602083019150836001820283011115612aa257612aa1612a4e565b5b9250929050565b60008115159050919050565b612abe81612aa9565b8114612ac957600080fd5b50565b600081359050612adb81612ab5565b92915050565b600080600060408486031215612afa57612af9612a3a565b5b600084013567ffffffffffffffff811115612b1857612b17612a3f565b5b612b2486828701612a53565b93509350506020612b3786828701612acc565b9150509250925092565b6000819050919050565b612b5481612b41565b8114612b5f57600080fd5b50565b600081359050612b7181612b4b565b92915050565b600060208284031215612b8d57612b8c612a3a565b5b6000612b9b84828501612b62565b91505092915050565b600073ffffffffffffffffffffffffffffffffffffffff82169050919050565b6000612bcf82612ba4565b9050919050565b612bdf81612bc4565b8114612bea57600080fd5b50565b600081359050612bfc81612bd6565b92915050565b600060208284031215612c1857612c17612a3a565b5b6000612c2684828501612bed565b91505092915050565b600081519050919050565b600082825260208201905092915050565b6000819050602082019050919050565b612c6481612b41565b82525050565b612c7381612bc4565b82525050565b600081519050919050565b600082825260208201905092915050565b60005b83811015612cb3578082015181840152602081019050612c98565b83811115612cc2576000848401525b50505050565b6000601f19601f8301169050919050565b6000612ce482612c79565b612cee8185612c84565b9350612cfe818560208601612c95565b612d0781612cc8565b840191505092915050565b600060c083016000830151612d2a6000860182612c5b565b506020830151612d3d6020860182612c6a565b5060408301518482036040860152612d558282612cd9565b9150506060830151612d6a6060860182612c6a565b5060808301518482036080860152612d828282612cd9565b91505060a0830151612d9760a0860182612c5b565b508091505092915050565b6000612dae8383612d12565b905092915050565b6000602082019050919050565b6000612dce82612c2f565b612dd88185612c3a565b935083602082028501612dea85612c4b565b8060005b85811015612e265784840389528151612e078582612da2565b9450612e1283612db6565b925060208a01995050600181019050612dee565b50829750879550505050505092915050565b60006020820190508181036000830152612e528184612dc3565b905092915050565b6000819050919050565b612e6d81612e5a565b8114612e7857600080fd5b50565b600081359050612e8a81612e64565b92915050565b60008060408385031215612ea757612ea6612a3a565b5b6000612eb585828601612e7b565b9250506020612ec685828601612b62565b9150509250929050565b612ed981612b41565b82525050565b612ee881612bc4565b82525050565b600082825260208201905092915050565b6000612f0a82612c79565b612f148185612eee565b9350612f24818560208601612c95565b612f2d81612cc8565b840191505092915050565b600060c082019050612f4d6000830189612ed0565b612f5a6020830188612edf565b8181036040830152612f6c8187612eff565b9050612f7b6060830186612edf565b8181036080830152612f8d8185612eff565b9050612f9c60a0830184612ed0565b979650505050505050565b600080600060408486031215612fc057612fbf612a3a565b5b6000612fce86828701612bed565b935050602084013567ffffffffffffffff811115612fef57612fee612a3f565b5b612ffb86828701612a53565b92509250509250925092565b600081519050919050565b600082825260208201905092915050565b6000819050602082019050919050565b600060a08301600083015161304b6000860182612c5b565b50602083015184820360208601526130638282612cd9565b91505060408301516130786040860182612c6a565b50606083015184820360608601526130908282612cd9565b91505060808301516130a56080860182612c5b565b508091505092915050565b60006130bc8383613033565b905092915050565b6000602082019050919050565b60006130dc82613007565b6130e68185613012565b9350836020820285016130f885613023565b8060005b85811015613134578484038952815161311585826130b0565b9450613120836130c4565b925060208a019950506001810190506130fc565b50829750879550505050505092915050565b6000602082019050818103600083015261316081846130d1565b905092915050565b6000806040838503121561317f5761317e612a3a565b5b600061318d85828601612bed565b925050602061319e85828601612acc565b9150509250929050565b600081519050919050565b600082825260208201905092915050565b6000819050602082019050919050565b60006040830160008301516131ec6000860182612c6a565b50602083015184820360208601526132048282612cd9565b9150508091505092915050565b600061321d83836131d4565b905092915050565b6000602082019050919050565b600061323d826131a8565b61324781856131b3565b935083602082028501613259856131c4565b8060005b8581101561329557848403895281516132768582613211565b945061328183613225565b925060208a0199505060018101905061325d565b50829750879550505050505092915050565b600082825260208201905092915050565b60006132c382613007565b6132cd81856132a7565b9350836020820285016132df85613023565b8060005b8581101561331b57848403895281516132fc85826130b0565b9450613307836130c4565b925060208a019950506001810190506132e3565b50829750879550505050505092915050565b600081519050919050565b600082825260208201905092915050565b6000819050602082019050919050565b60006040830160008301516133716000860182612c6a565b50602083015184820360208601526133898282612cd9565b9150508091505092915050565b60006133a28383613359565b905092915050565b6000602082019050919050565b60006133c28261332d565b6133cc8185613338565b9350836020820285016133de85613349565b8060005b8581101561341a57848403895281516133fb8582613396565b9450613406836133aa565b925060208a019950506001810190506133e2565b50829750879550505050505092915050565b61343581612aa9565b82525050565b600060a08301600083015184820360008601526134588282612cd9565b915050602083015184820360208601526134728282613232565b9150506040830151848203604086015261348c82826132b8565b915050606083015184820360608601526134a682826133b7565b91505060808301516134bb608086018261342c565b508091505092915050565b600060208201905081810360008301526134e0818461343b565b905092915050565b600080fd5b7f4e487b7100000000000000000000000000000000000000000000000000000000600052604160045260246000fd5b61352582612cc8565b810181811067ffffffffffffffff82111715613544576135436134ed565b5b80604052505050565b6000613557612a30565b9050613563828261351c565b919050565b600067ffffffffffffffff821115613583576135826134ed565b5b61358c82612cc8565b9050602081019050919050565b82818337600083830152505050565b60006135bb6135b684613568565b61354d565b9050828152602081018484840111156135d7576135d66134e8565b5b6135e2848285613599565b509392505050565b600082601f8301126135ff576135fe612a44565b5b813561360f8482602086016135a8565b91505092915050565b60006020828403121561362e5761362d612a3a565b5b600082013567ffffffffffffffff81111561364c5761364b612a3f565b5b613658848285016135ea565b91505092915050565b600082825260208201905092915050565b600061367d8261332d565b6136878185613661565b93508360208202850161369985613349565b8060005b858110156136d557848403895281516136b68582613396565b94506136c1836133aa565b925060208a0199505060018101905061369d565b50829750879550505050505092915050565b600060208201905081810360008301526137018184613672565b905092915050565b600080604083850312156137205761371f612a3a565b5b600061372e85828601612bed565b925050602083013567ffffffffffffffff81111561374f5761374e612a3f565b5b61375b858286016135ea565b9150509250929050565b61376e81612aa9565b82525050565b60006020820190506137896000830184613765565b92915050565b7f5573657220616c72656164792065786973747321000000000000000000000000600082015250565b60006137c5601483612eee565b91506137d08261378f565b602082019050919050565b600060208201905081810360008301526137f4816137b8565b9050919050565b7f557365726e616d652063616e6e6f7420626520656d7074792100000000000000600082015250565b6000613831601983612eee565b915061383c826137fb565b602082019050919050565b6000602082019050818103600083015261386081613824565b9050919050565b7f4e487b7100000000000000000000000000000000000000000000000000000000600052601160045260246000fd5b60006138a182612b41565b91506138ac83612b41565b9250828210156138bf576138be613867565b5b828203905092915050565b7f4e487b7100000000000000000000000000000000000000000000000000000000600052603260045260246000fd5b7f4e487b7100000000000000000000000000000000000000000000000000000000600052602260045260246000fd5b6000600282049050600182168061394057607f821691505b60208210811415613954576139536138f9565b5b50919050565b7f4e487b7100000000000000000000000000000000000000000000000000000000600052603160045260246000fd5b600061399482612b41565b91507fffffffffffffffffffffffffffffffffffffffffffffffffffffffffffffffff8214156139c7576139c6613867565b5b600182019050919050565b60008160601b9050919050565b60006139ea826139d2565b9050919050565b60006139fc826139df565b9050919050565b613a14613a0f82612bc4565b6139f1565b82525050565b6000613a268285613a03565b601482019150613a368284613a03565b601482019150819050939250505056fea26469706673582212201a058cd5c1de9ba8809d544cb7f324e8df6a5d1c63529b1dc17175e3cd64e30064736f6c63430008090033",
  "linkReferences": {},
  "deployedLinkReferences": {}
}