{
  "_format": "hh-sol-artifact-1",
  "contractName": "Blog",
  "sourceName": "contracts/Blog.sol",
  "abi": [
    {
      "inputs": [
        {
          "internalType": "address",
          "name": "friend_key",
          "type": "address"
        },
        {
          "internalType": "string",
          "name": "name",
          "type": "string"
        }
      ],
      "name": "addFriend",
      "outputs": [],
      "stateMutability": "nonpayable",
      "type": "function"
    },
    {
      "inputs": [
        {
          "internalType": "string",
          "name": "vsebina",
          "type": "string"
        }
      ],
      "name": "addPost",
      "outputs": [],
      "stateMutability": "nonpayable",
      "type": "function"
    },
    {
      "inputs": [
        {
          "internalType": "bytes32",
          "name": "",
          "type": "bytes32"
        },
        {
          "internalType": "uint256",
          "name": "",
          "type": "uint256"
        }
      ],
      "name": "chats",
      "outputs": [
        {
          "internalType": "uint256",
          "name": "id",
          "type": "uint256"
        },
        {
          "internalType": "address",
          "name": "from",
          "type": "address"
        },
        {
          "internalType": "string",
          "name": "nameOfSender",
          "type": "string"
        },
        {
          "internalType": "address",
          "name": "to",
          "type": "address"
        },
        {
          "internalType": "string",
          "name": "content",
          "type": "string"
        },
        {
          "internalType": "uint256",
          "name": "timestamp",
          "type": "uint256"
        }
      ],
      "stateMutability": "view",
      "type": "function"
    },
    {
      "inputs": [
        {
          "internalType": "string",
          "name": "name",
          "type": "string"
        },
        {
          "internalType": "bool",
          "name": "isMod",
          "type": "bool"
        }
      ],
      "name": "createNewUser",
      "outputs": [],
      "stateMutability": "nonpayable",
      "type": "function"
    },
    {
      "inputs": [
        {
          "internalType": "uint256",
          "name": "id",
          "type": "uint256"
        }
      ],
      "name": "deletePost",
      "outputs": [],
      "stateMutability": "nonpayable",
      "type": "function"
    },
    {
      "inputs": [
        {
          "internalType": "address",
          "name": "pubkey",
          "type": "address"
        }
      ],
      "name": "doesUserExist",
      "outputs": [
        {
          "internalType": "bool",
          "name": "",
          "type": "bool"
        }
      ],
      "stateMutability": "view",
      "type": "function"
    },
    {
      "inputs": [
        {
          "internalType": "address",
          "name": "to",
          "type": "address"
        }
      ],
      "name": "getChat",
      "outputs": [
        {
          "components": [
            {
              "internalType": "uint256",
              "name": "id",
              "type": "uint256"
            },
            {
              "internalType": "address",
              "name": "from",
              "type": "address"
            },
            {
              "internalType": "string",
              "name": "nameOfSender",
              "type": "string"
            },
            {
              "internalType": "address",
              "name": "to",
              "type": "address"
            },
            {
              "internalType": "string",
              "name": "content",
              "type": "string"
            },
            {
              "internalType": "uint256",
              "name": "timestamp",
              "type": "uint256"
            }
          ],
          "internalType": "struct Blog.Message[]",
          "name": "",
          "type": "tuple[]"
        }
      ],
      "stateMutability": "view",
      "type": "function"
    },
    {
      "inputs": [],
      "name": "getMyFriends",
      "outputs": [
        {
          "components": [
            {
              "internalType": "address",
              "name": "pubkey",
              "type": "address"
            },
            {
              "internalType": "string",
              "name": "name",
              "type": "string"
            }
          ],
          "internalType": "struct Blog.Friend[]",
          "name": "",
          "type": "tuple[]"
        }
      ],
      "stateMutability": "view",
      "type": "function"
    },
    {
      "inputs": [],
      "name": "getPosts",
      "outputs": [
        {
          "components": [
            {
              "internalType": "uint256",
              "name": "id",
              "type": "uint256"
            },
            {
              "internalType": "string",
              "name": "author",
              "type": "string"
            },
            {
              "internalType": "address",
              "name": "pubkey",
              "type": "address"
            },
            {
              "internalType": "string",
              "name": "content",
              "type": "string"
            },
            {
              "internalType": "uint256",
              "name": "timestamp",
              "type": "uint256"
            }
          ],
          "internalType": "struct Blog.Post[]",
          "name": "",
          "type": "tuple[]"
        }
      ],
      "stateMutability": "view",
      "type": "function"
    },
    {
      "inputs": [],
      "name": "getUser",
      "outputs": [
        {
          "components": [
            {
              "internalType": "string",
              "name": "name",
              "type": "string"
            },
            {
              "components": [
                {
                  "internalType": "address",
                  "name": "pubkey",
                  "type": "address"
                },
                {
                  "internalType": "string",
                  "name": "name",
                  "type": "string"
                }
              ],
              "internalType": "struct Blog.Friend[]",
              "name": "friends",
              "type": "tuple[]"
            },
            {
              "internalType": "bool",
              "name": "isMod",
              "type": "bool"
            }
          ],
          "internalType": "struct Blog.User",
          "name": "",
          "type": "tuple"
        }
      ],
      "stateMutability": "view",
      "type": "function"
    },
    {
      "inputs": [
        {
          "internalType": "address",
          "name": "to",
          "type": "address"
        },
        {
          "internalType": "string",
          "name": "content",
          "type": "string"
        }
      ],
      "name": "sendMessage",
      "outputs": [],
      "stateMutability": "nonpayable",
      "type": "function"
    }
  ],
  "bytecode": "0x608060405234801561001057600080fd5b506127a5806100206000396000f3fe608060405234801561001057600080fd5b50600436106100a95760003560e01c806341f3004a1161007157806341f3004a14610167578063832880e714610185578063a6322819146101a3578063be34ebbf146101bf578063de6f24bb146101dd578063ecb41054146101f9576100a9565b806302a76135146100ae578063094cd5ee146100ca5780632efcb62f146100e6578063354ed5f7146101165780633b9f708d1461014b575b600080fd5b6100c860048036038101906100c39190611a4c565b610229565b005b6100e460048036038101906100df9190611ae2565b61036f565b005b61010060048036038101906100fb9190611b6d565b610578565b60405161010d9190611da3565b60405180910390f35b610130600480360381019061012b9190611dfb565b6107dd565b60405161014296959493929190611ea3565b60405180910390f35b61016560048036038101906101609190611f12565b610986565b005b61016f610c9a565b60405161017c91906120b1565b60405180910390f35b61018d610e87565b60405161019a9190612238565b60405180910390f35b6101bd60048036038101906101b8919061238a565b6110d2565b005b6101c76112a3565b6040516101d49190612459565b60405180910390f35b6101f760048036038101906101f2919061247b565b61142a565b005b610213600480360381019061020e9190611b6d565b611690565b60405161022091906124e6565b60405180910390f35b6000151561023633611690565b151514610278576040517f08c379a000000000000000000000000000000000000000000000000000000000815260040161026f9061254d565b60405180910390fd5b600083839050116102be576040517f08c379a00000000000000000000000000000000000000000000000000000000081526004016102b5906125b9565b60405180910390fd5b8282600160003373ffffffffffffffffffffffffffffffffffffffff1673ffffffffffffffffffffffffffffffffffffffff168152602001908152602001600020600001919061030f929190611782565b5080600160003373ffffffffffffffffffffffffffffffffffffffff1673ffffffffffffffffffffffffffffffffffffffff16815260200190815260200160002060020160006101000a81548160ff021916908315150217905550505050565b60011515600160003373ffffffffffffffffffffffffffffffffffffffff1673ffffffffffffffffffffffffffffffffffffffff16815260200190815260200160002060020160009054906101000a900460ff161515146103cf57600080fd5b60008054905081106103e057600080fd5b600060016000805490506103f49190612608565b815481106104055761040461263c565b5b9060005260206000209060050201600082815481106104275761042661263c565b5b90600052602060002090600502016000820154816000015560018201816001019080546104539061269a565b61045e929190611808565b506002820160009054906101000a900473ffffffffffffffffffffffffffffffffffffffff168160020160006101000a81548173ffffffffffffffffffffffffffffffffffffffff021916908373ffffffffffffffffffffffffffffffffffffffff16021790555060038201816003019080546104da9061269a565b6104e5929190611808565b50600482015481600401559050506000805480610505576105046126cc565b5b60019003818190600052602060002090600502016000808201600090556001820160006105329190611895565b6002820160006101000a81549073ffffffffffffffffffffffffffffffffffffffff02191690556003820160006105699190611895565b60048201600090555050905550565b6060600061058633846116ea565b905060026000828152602001908152602001600020805480602002602001604051908101604052809291908181526020016000905b828210156107d157838290600052602060002090600602016040518060c0016040529081600082015481526020016001820160009054906101000a900473ffffffffffffffffffffffffffffffffffffffff1673ffffffffffffffffffffffffffffffffffffffff1673ffffffffffffffffffffffffffffffffffffffff16815260200160028201805461064e9061269a565b80601f016020809104026020016040519081016040528092919081815260200182805461067a9061269a565b80156106c75780601f1061069c576101008083540402835291602001916106c7565b820191906000526020600020905b8154815290600101906020018083116106aa57829003601f168201915b505050505081526020016003820160009054906101000a900473ffffffffffffffffffffffffffffffffffffffff1673ffffffffffffffffffffffffffffffffffffffff1673ffffffffffffffffffffffffffffffffffffffff1681526020016004820180546107369061269a565b80601f01602080910402602001604051908101604052809291908181526020018280546107629061269a565b80156107af5780601f10610784576101008083540402835291602001916107af565b820191906000526020600020905b81548152906001019060200180831161079257829003601f168201915b50505050508152602001600582015481525050815260200190600101906105bb565b50505050915050919050565b600260205281600052604060002081815481106107f957600080fd5b9060005260206000209060060201600091509150508060000154908060010160009054906101000a900473ffffffffffffffffffffffffffffffffffffffff16908060020180546108499061269a565b80601f01602080910402602001604051908101604052809291908181526020018280546108759061269a565b80156108c25780601f10610897576101008083540402835291602001916108c2565b820191906000526020600020905b8154815290600101906020018083116108a557829003601f168201915b5050505050908060030160009054906101000a900473ffffffffffffffffffffffffffffffffffffffff16908060040180546108fd9061269a565b80601f01602080910402602001604051908101604052809291908181526020018280546109299061269a565b80156109765780601f1061094b57610100808354040283529160200191610976565b820191906000526020600020905b81548152906001019060200180831161095957829003601f168201915b5050505050908060050154905086565b600060405180604001604052808573ffffffffffffffffffffffffffffffffffffffff16815260200184848080601f016020809104026020016040519081016040528093929190818152602001838380828437600081840152601f19601f820116905080830192505050505050508152509050600160003373ffffffffffffffffffffffffffffffffffffffff1673ffffffffffffffffffffffffffffffffffffffff16815260200190815260200160002060010181908060018154018082558091505060019003906000526020600020906002020160009091909190915060008201518160000160006101000a81548173ffffffffffffffffffffffffffffffffffffffff021916908373ffffffffffffffffffffffffffffffffffffffff1602179055506020820151816001019080519060200190610ac89291906118d5565b50505060405180604001604052803373ffffffffffffffffffffffffffffffffffffffff168152602001600160003373ffffffffffffffffffffffffffffffffffffffff1673ffffffffffffffffffffffffffffffffffffffff1681526020019081526020016000206000018054610b3f9061269a565b80601f0160208091040260200160405190810160405280929190818152602001828054610b6b9061269a565b8015610bb85780601f10610b8d57610100808354040283529160200191610bb8565b820191906000526020600020905b815481529060010190602001808311610b9b57829003601f168201915b50505050508152509050600160008573ffffffffffffffffffffffffffffffffffffffff1673ffffffffffffffffffffffffffffffffffffffff16815260200190815260200160002060010181908060018154018082558091505060019003906000526020600020906002020160009091909190915060008201518160000160006101000a81548173ffffffffffffffffffffffffffffffffffffffff021916908373ffffffffffffffffffffffffffffffffffffffff1602179055506020820151816001019080519060200190610c919291906118d5565b50505050505050565b60606000805480602002602001604051908101604052809291908181526020016000905b82821015610e7e57838290600052602060002090600502016040518060a001604052908160008201548152602001600182018054610cfb9061269a565b80601f0160208091040260200160405190810160405280929190818152602001828054610d279061269a565b8015610d745780601f10610d4957610100808354040283529160200191610d74565b820191906000526020600020905b815481529060010190602001808311610d5757829003601f168201915b505050505081526020016002820160009054906101000a900473ffffffffffffffffffffffffffffffffffffffff1673ffffffffffffffffffffffffffffffffffffffff1673ffffffffffffffffffffffffffffffffffffffff168152602001600382018054610de39061269a565b80601f0160208091040260200160405190810160405280929190818152602001828054610e0f9061269a565b8015610e5c5780601f10610e3157610100808354040283529160200191610e5c565b820191906000526020600020905b815481529060010190602001808311610e3f57829003601f168201915b5050505050815260200160048201548152505081526020019060010190610cbe565b50505050905090565b610e8f61195b565b600160003373ffffffffffffffffffffffffffffffffffffffff1673ffffffffffffffffffffffffffffffffffffffff168152602001908152602001600020604051806060016040529081600082018054610ee99061269a565b80601f0160208091040260200160405190810160405280929190818152602001828054610f159061269a565b8015610f625780601f10610f3757610100808354040283529160200191610f62565b820191906000526020600020905b815481529060010190602001808311610f4557829003601f168201915b5050505050815260200160018201805480602002602001604051908101604052809291908181526020016000905b828210156110aa57838290600052602060002090600202016040518060400160405290816000820160009054906101000a900473ffffffffffffffffffffffffffffffffffffffff1673ffffffffffffffffffffffffffffffffffffffff1673ffffffffffffffffffffffffffffffffffffffff1681526020016001820180546110199061269a565b80601f01602080910402602001604051908101604052809291908181526020018280546110459061269a565b80156110925780601f1061106757610100808354040283529160200191611092565b820191906000526020600020905b81548152906001019060200180831161107557829003601f168201915b50505050508152505081526020019060010190610f90565b5050505081526020016002820160009054906101000a900460ff161515151581525050905090565b60006040518060a001604052806000805490508152602001600160003373ffffffffffffffffffffffffffffffffffffffff1673ffffffffffffffffffffffffffffffffffffffff16815260200190815260200160002060000180546111379061269a565b80601f01602080910402602001604051908101604052809291908181526020018280546111639061269a565b80156111b05780601f10611185576101008083540402835291602001916111b0565b820191906000526020600020905b81548152906001019060200180831161119357829003601f168201915b505050505081526020013373ffffffffffffffffffffffffffffffffffffffff16815260200183815260200142815250908060018154018082558091505060019003906000526020600020906005020160009091909190915060008201518160000155602082015181600101908051906020019061122f9291906118d5565b5060408201518160020160006101000a81548173ffffffffffffffffffffffffffffffffffffffff021916908373ffffffffffffffffffffffffffffffffffffffff16021790555060608201518160030190805190602001906112939291906118d5565b5060808201518160040155505050565b6060600160003373ffffffffffffffffffffffffffffffffffffffff1673ffffffffffffffffffffffffffffffffffffffff168152602001908152602001600020600101805480602002602001604051908101604052809291908181526020016000905b8282101561142157838290600052602060002090600202016040518060400160405290816000820160009054906101000a900473ffffffffffffffffffffffffffffffffffffffff1673ffffffffffffffffffffffffffffffffffffffff1673ffffffffffffffffffffffffffffffffffffffff1681526020016001820180546113909061269a565b80601f01602080910402602001604051908101604052809291908181526020018280546113bc9061269a565b80156114095780601f106113de57610100808354040283529160200191611409565b820191906000526020600020905b8154815290600101906020018083116113ec57829003601f168201915b50505050508152505081526020019060010190611307565b50505050905090565b600061143633846116ea565b9050600260008281526020019081526020016000206040518060c00160405280600260008581526020019081526020016000208054905081526020013373ffffffffffffffffffffffffffffffffffffffff168152602001600160003373ffffffffffffffffffffffffffffffffffffffff1673ffffffffffffffffffffffffffffffffffffffff16815260200190815260200160002060000180546114db9061269a565b80601f01602080910402602001604051908101604052809291908181526020018280546115079061269a565b80156115545780601f1061152957610100808354040283529160200191611554565b820191906000526020600020905b81548152906001019060200180831161153757829003601f168201915b505050505081526020018573ffffffffffffffffffffffffffffffffffffffff1681526020018481526020014281525090806001815401808255809150506001900390600052602060002090600602016000909190919091506000820151816000015560208201518160010160006101000a81548173ffffffffffffffffffffffffffffffffffffffff021916908373ffffffffffffffffffffffffffffffffffffffff160217905550604082015181600201908051906020019061161a9291906118d5565b5060608201518160030160006101000a81548173ffffffffffffffffffffffffffffffffffffffff021916908373ffffffffffffffffffffffffffffffffffffffff160217905550608082015181600401908051906020019061167e9291906118d5565b5060a082015181600501555050505050565b600080600160008473ffffffffffffffffffffffffffffffffffffffff1673ffffffffffffffffffffffffffffffffffffffff16815260200190815260200160002060000180546116e09061269a565b9050119050919050565b60008173ffffffffffffffffffffffffffffffffffffffff168373ffffffffffffffffffffffffffffffffffffffff161015611750578282604051602001611733929190612743565b60405160208183030381529060405280519060200120905061177c565b8183604051602001611763929190612743565b6040516020818303038152906040528051906020012090505b92915050565b82805461178e9061269a565b90600052602060002090601f0160209004810192826117b057600085556117f7565b82601f106117c957803560ff19168380011785556117f7565b828001600101855582156117f7579182015b828111156117f65782358255916020019190600101906117db565b5b509050611804919061197e565b5090565b8280546118149061269a565b90600052602060002090601f0160209004810192826118365760008555611884565b82601f106118475780548555611884565b8280016001018555821561188457600052602060002091601f016020900482015b82811115611883578254825591600101919060010190611868565b5b509050611891919061197e565b5090565b5080546118a19061269a565b6000825580601f106118b357506118d2565b601f0160209004906000526020600020908101906118d1919061197e565b5b50565b8280546118e19061269a565b90600052602060002090601f016020900481019282611903576000855561194a565b82601f1061191c57805160ff191683800117855561194a565b8280016001018555821561194a579182015b8281111561194957825182559160200191906001019061192e565b5b509050611957919061197e565b5090565b604051806060016040528060608152602001606081526020016000151581525090565b5b8082111561199757600081600090555060010161197f565b5090565b6000604051905090565b600080fd5b600080fd5b600080fd5b600080fd5b600080fd5b60008083601f8401126119d4576119d36119af565b5b8235905067ffffffffffffffff8111156119f1576119f06119b4565b5b602083019150836001820283011115611a0d57611a0c6119b9565b5b9250929050565b60008115159050919050565b611a2981611a14565b8114611a3457600080fd5b50565b600081359050611a4681611a20565b92915050565b600080600060408486031215611a6557611a646119a5565b5b600084013567ffffffffffffffff811115611a8357611a826119aa565b5b611a8f868287016119be565b93509350506020611aa286828701611a37565b9150509250925092565b6000819050919050565b611abf81611aac565b8114611aca57600080fd5b50565b600081359050611adc81611ab6565b92915050565b600060208284031215611af857611af76119a5565b5b6000611b0684828501611acd565b91505092915050565b600073ffffffffffffffffffffffffffffffffffffffff82169050919050565b6000611b3a82611b0f565b9050919050565b611b4a81611b2f565b8114611b5557600080fd5b50565b600081359050611b6781611b41565b92915050565b600060208284031215611b8357611b826119a5565b5b6000611b9184828501611b58565b91505092915050565b600081519050919050565b600082825260208201905092915050565b6000819050602082019050919050565b611bcf81611aac565b82525050565b611bde81611b2f565b82525050565b600081519050919050565b600082825260208201905092915050565b60005b83811015611c1e578082015181840152602081019050611c03565b83811115611c2d576000848401525b50505050565b6000601f19601f8301169050919050565b6000611c4f82611be4565b611c598185611bef565b9350611c69818560208601611c00565b611c7281611c33565b840191505092915050565b600060c083016000830151611c956000860182611bc6565b506020830151611ca86020860182611bd5565b5060408301518482036040860152611cc08282611c44565b9150506060830151611cd56060860182611bd5565b5060808301518482036080860152611ced8282611c44565b91505060a0830151611d0260a0860182611bc6565b508091505092915050565b6000611d198383611c7d565b905092915050565b6000602082019050919050565b6000611d3982611b9a565b611d438185611ba5565b935083602082028501611d5585611bb6565b8060005b85811015611d915784840389528151611d728582611d0d565b9450611d7d83611d21565b925060208a01995050600181019050611d59565b50829750879550505050505092915050565b60006020820190508181036000830152611dbd8184611d2e565b905092915050565b6000819050919050565b611dd881611dc5565b8114611de357600080fd5b50565b600081359050611df581611dcf565b92915050565b60008060408385031215611e1257611e116119a5565b5b6000611e2085828601611de6565b9250506020611e3185828601611acd565b9150509250929050565b611e4481611aac565b82525050565b611e5381611b2f565b82525050565b600082825260208201905092915050565b6000611e7582611be4565b611e7f8185611e59565b9350611e8f818560208601611c00565b611e9881611c33565b840191505092915050565b600060c082019050611eb86000830189611e3b565b611ec56020830188611e4a565b8181036040830152611ed78187611e6a565b9050611ee66060830186611e4a565b8181036080830152611ef88185611e6a565b9050611f0760a0830184611e3b565b979650505050505050565b600080600060408486031215611f2b57611f2a6119a5565b5b6000611f3986828701611b58565b935050602084013567ffffffffffffffff811115611f5a57611f596119aa565b5b611f66868287016119be565b92509250509250925092565b600081519050919050565b600082825260208201905092915050565b6000819050602082019050919050565b600060a083016000830151611fb66000860182611bc6565b5060208301518482036020860152611fce8282611c44565b9150506040830151611fe36040860182611bd5565b5060608301518482036060860152611ffb8282611c44565b91505060808301516120106080860182611bc6565b508091505092915050565b60006120278383611f9e565b905092915050565b6000602082019050919050565b600061204782611f72565b6120518185611f7d565b93508360208202850161206385611f8e565b8060005b8581101561209f5784840389528151612080858261201b565b945061208b8361202f565b925060208a01995050600181019050612067565b50829750879550505050505092915050565b600060208201905081810360008301526120cb818461203c565b905092915050565b600081519050919050565b600082825260208201905092915050565b6000819050602082019050919050565b60006040830160008301516121176000860182611bd5565b506020830151848203602086015261212f8282611c44565b9150508091505092915050565b600061214883836120ff565b905092915050565b6000602082019050919050565b6000612168826120d3565b61217281856120de565b935083602082028501612184856120ef565b8060005b858110156121c057848403895281516121a1858261213c565b94506121ac83612150565b925060208a01995050600181019050612188565b50829750879550505050505092915050565b6121db81611a14565b82525050565b600060608301600083015184820360008601526121fe8282611c44565b91505060208301518482036020860152612218828261215d565b915050604083015161222d60408601826121d2565b508091505092915050565b6000602082019050818103600083015261225281846121e1565b905092915050565b600080fd5b7f4e487b7100000000000000000000000000000000000000000000000000000000600052604160045260246000fd5b61229782611c33565b810181811067ffffffffffffffff821117156122b6576122b561225f565b5b80604052505050565b60006122c961199b565b90506122d5828261228e565b919050565b600067ffffffffffffffff8211156122f5576122f461225f565b5b6122fe82611c33565b9050602081019050919050565b82818337600083830152505050565b600061232d612328846122da565b6122bf565b9050828152602081018484840111156123495761234861225a565b5b61235484828561230b565b509392505050565b600082601f830112612371576123706119af565b5b813561238184826020860161231a565b91505092915050565b6000602082840312156123a05761239f6119a5565b5b600082013567ffffffffffffffff8111156123be576123bd6119aa565b5b6123ca8482850161235c565b91505092915050565b600082825260208201905092915050565b60006123ef826120d3565b6123f981856123d3565b93508360208202850161240b856120ef565b8060005b858110156124475784840389528151612428858261213c565b945061243383612150565b925060208a0199505060018101905061240f565b50829750879550505050505092915050565b6000602082019050818103600083015261247381846123e4565b905092915050565b60008060408385031215612492576124916119a5565b5b60006124a085828601611b58565b925050602083013567ffffffffffffffff8111156124c1576124c06119aa565b5b6124cd8582860161235c565b9150509250929050565b6124e081611a14565b82525050565b60006020820190506124fb60008301846124d7565b92915050565b7f5573657220616c72656164792065786973747321000000000000000000000000600082015250565b6000612537601483611e59565b915061254282612501565b602082019050919050565b600060208201905081810360008301526125668161252a565b9050919050565b7f557365726e616d652063616e6e6f7420626520656d7074792100000000000000600082015250565b60006125a3601983611e59565b91506125ae8261256d565b602082019050919050565b600060208201905081810360008301526125d281612596565b9050919050565b7f4e487b7100000000000000000000000000000000000000000000000000000000600052601160045260246000fd5b600061261382611aac565b915061261e83611aac565b925082821015612631576126306125d9565b5b828203905092915050565b7f4e487b7100000000000000000000000000000000000000000000000000000000600052603260045260246000fd5b7f4e487b7100000000000000000000000000000000000000000000000000000000600052602260045260246000fd5b600060028204905060018216806126b257607f821691505b602082108114156126c6576126c561266b565b5b50919050565b7f4e487b7100000000000000000000000000000000000000000000000000000000600052603160045260246000fd5b60008160601b9050919050565b6000612713826126fb565b9050919050565b600061272582612708565b9050919050565b61273d61273882611b2f565b61271a565b82525050565b600061274f828561272c565b60148201915061275f828461272c565b601482019150819050939250505056fea2646970667358221220f9ad1d762d07a1900b51821fddae5c92a70ce890d30568cd655f6bf9fb43a5d564736f6c63430008090033",
  "linkReferences": {},
  "deployedLinkReferences": {}
}