{
  "_format": "hh-sol-artifact-1",
  "contractName": "Blog",
  "sourceName": "contracts/Blog.sol",
  "abi": [
    {
      "inputs": [
        {
          "internalType": "address",
          "name": "friend_key",
          "type": "address"
        },
        {
          "internalType": "string",
          "name": "name",
          "type": "string"
        }
      ],
      "name": "addFriend",
      "outputs": [],
      "stateMutability": "nonpayable",
      "type": "function"
    },
    {
      "inputs": [
        {
          "internalType": "string",
          "name": "vsebina",
          "type": "string"
        }
      ],
      "name": "addPost",
      "outputs": [],
      "stateMutability": "nonpayable",
      "type": "function"
    },
    {
      "inputs": [
        {
          "internalType": "bytes32",
          "name": "",
          "type": "bytes32"
        },
        {
          "internalType": "uint256",
          "name": "",
          "type": "uint256"
        }
      ],
      "name": "chats",
      "outputs": [
        {
          "internalType": "uint256",
          "name": "id",
          "type": "uint256"
        },
        {
          "internalType": "address",
          "name": "from",
          "type": "address"
        },
        {
          "internalType": "string",
          "name": "nameOfSender",
          "type": "string"
        },
        {
          "internalType": "address",
          "name": "to",
          "type": "address"
        },
        {
          "internalType": "string",
          "name": "content",
          "type": "string"
        },
        {
          "internalType": "uint256",
          "name": "timestamp",
          "type": "uint256"
        }
      ],
      "stateMutability": "view",
      "type": "function"
    },
    {
      "inputs": [
        {
          "internalType": "string",
          "name": "name",
          "type": "string"
        },
        {
          "internalType": "bool",
          "name": "isMod",
          "type": "bool"
        }
      ],
      "name": "createNewUser",
      "outputs": [],
      "stateMutability": "nonpayable",
      "type": "function"
    },
    {
      "inputs": [
        {
          "internalType": "uint256",
          "name": "id",
          "type": "uint256"
        }
      ],
      "name": "deletePost",
      "outputs": [],
      "stateMutability": "nonpayable",
      "type": "function"
    },
    {
      "inputs": [
        {
          "internalType": "address",
          "name": "pubkey",
          "type": "address"
        }
      ],
      "name": "doesUserExist",
      "outputs": [
        {
          "internalType": "bool",
          "name": "",
          "type": "bool"
        }
      ],
      "stateMutability": "view",
      "type": "function"
    },
    {
      "inputs": [
        {
          "internalType": "address",
          "name": "to",
          "type": "address"
        }
      ],
      "name": "getChat",
      "outputs": [
        {
          "components": [
            {
              "internalType": "uint256",
              "name": "id",
              "type": "uint256"
            },
            {
              "internalType": "address",
              "name": "from",
              "type": "address"
            },
            {
              "internalType": "string",
              "name": "nameOfSender",
              "type": "string"
            },
            {
              "internalType": "address",
              "name": "to",
              "type": "address"
            },
            {
              "internalType": "string",
              "name": "content",
              "type": "string"
            },
            {
              "internalType": "uint256",
              "name": "timestamp",
              "type": "uint256"
            }
          ],
          "internalType": "struct Blog.Message[]",
          "name": "",
          "type": "tuple[]"
        }
      ],
      "stateMutability": "view",
      "type": "function"
    },
    {
      "inputs": [
        {
          "internalType": "address",
          "name": "user",
          "type": "address"
        }
      ],
      "name": "getFriendRequests",
      "outputs": [
        {
          "components": [
            {
              "internalType": "address",
              "name": "pubkey",
              "type": "address"
            },
            {
              "internalType": "string",
              "name": "name",
              "type": "string"
            }
          ],
          "internalType": "struct Blog.FriendRequest[]",
          "name": "",
          "type": "tuple[]"
        }
      ],
      "stateMutability": "view",
      "type": "function"
    },
    {
      "inputs": [],
      "name": "getPosts",
      "outputs": [
        {
          "components": [
            {
              "internalType": "uint256",
              "name": "id",
              "type": "uint256"
            },
            {
              "internalType": "string",
              "name": "author",
              "type": "string"
            },
            {
              "internalType": "address",
              "name": "pubkey",
              "type": "address"
            },
            {
              "internalType": "string",
              "name": "content",
              "type": "string"
            },
            {
              "internalType": "uint256",
              "name": "timestamp",
              "type": "uint256"
            }
          ],
          "internalType": "struct Blog.Post[]",
          "name": "",
          "type": "tuple[]"
        }
      ],
      "stateMutability": "view",
      "type": "function"
    },
    {
      "inputs": [
        {
          "internalType": "address",
          "name": "userAddress",
          "type": "address"
        }
      ],
      "name": "getUser",
      "outputs": [
        {
          "components": [
            {
              "internalType": "string",
              "name": "name",
              "type": "string"
            },
            {
              "components": [
                {
                  "internalType": "address",
                  "name": "pubkey",
                  "type": "address"
                },
                {
                  "internalType": "string",
                  "name": "name",
                  "type": "string"
                }
              ],
              "internalType": "struct Blog.Friend[]",
              "name": "friends",
              "type": "tuple[]"
            },
            {
              "components": [
                {
                  "internalType": "uint256",
                  "name": "id",
                  "type": "uint256"
                },
                {
                  "internalType": "string",
                  "name": "author",
                  "type": "string"
                },
                {
                  "internalType": "address",
                  "name": "pubkey",
                  "type": "address"
                },
                {
                  "internalType": "string",
                  "name": "content",
                  "type": "string"
                },
                {
                  "internalType": "uint256",
                  "name": "timestamp",
                  "type": "uint256"
                }
              ],
              "internalType": "struct Blog.Post[]",
              "name": "posts",
              "type": "tuple[]"
            },
            {
              "components": [
                {
                  "internalType": "address",
                  "name": "pubkey",
                  "type": "address"
                },
                {
                  "internalType": "string",
                  "name": "name",
                  "type": "string"
                }
              ],
              "internalType": "struct Blog.FriendRequest[]",
              "name": "friendRequests",
              "type": "tuple[]"
            },
            {
              "internalType": "bool",
              "name": "isMod",
              "type": "bool"
            }
          ],
          "internalType": "struct Blog.User",
          "name": "",
          "type": "tuple"
        }
      ],
      "stateMutability": "view",
      "type": "function"
    },
    {
      "inputs": [
        {
          "internalType": "address",
          "name": "friend_request_key",
          "type": "address"
        },
        {
          "internalType": "bool",
          "name": "accept",
          "type": "bool"
        }
      ],
      "name": "handleFriendRequest",
      "outputs": [],
      "stateMutability": "nonpayable",
      "type": "function"
    },
    {
      "inputs": [
        {
          "internalType": "address",
          "name": "user",
          "type": "address"
        }
      ],
      "name": "removeFriend",
      "outputs": [],
      "stateMutability": "nonpayable",
      "type": "function"
    },
    {
      "inputs": [
        {
          "internalType": "address",
          "name": "friend_key",
          "type": "address"
        }
      ],
      "name": "sendFriendRequest",
      "outputs": [],
      "stateMutability": "nonpayable",
      "type": "function"
    },
    {
      "inputs": [
        {
          "internalType": "address",
          "name": "to",
          "type": "address"
        },
        {
          "internalType": "string",
          "name": "content",
          "type": "string"
        }
      ],
      "name": "sendMessage",
      "outputs": [],
      "stateMutability": "nonpayable",
      "type": "function"
    }
  ],
  "bytecode": "0x608060405234801561001057600080fd5b50614186806100206000396000f3fe608060405234801561001057600080fd5b50600436106100ea5760003560e01c80636ee0a58a1161008c578063837b770a11610066578063837b770a1461025e578063a63228191461027a578063de6f24bb14610296578063ecb41054146102b2576100ea565b80636ee0a58a146101f65780636f77926b1461021257806380cee8a514610242576100ea565b8063354ed5f7116100c8578063354ed5f7146101575780633b9f708d1461018c57806341f3004a146101a857806353d056c0146101c6576100ea565b806302a76135146100ef578063094cd5ee1461010b5780632efcb62f14610127575b600080fd5b610109600480360381019061010491906131eb565b6102e2565b005b61012560048036038101906101209190613281565b610428565b005b610141600480360381019061013c919061330c565b610631565b60405161014e9190613542565b60405180910390f35b610171600480360381019061016c919061359a565b610896565b60405161018396959493929190613642565b60405180910390f35b6101a660048036038101906101a191906136b1565b610a3f565b005b6101b0610d53565b6040516101bd9190613850565b60405180910390f35b6101e060048036038101906101db919061330c565b610f40565b6040516101ed9190613971565b60405180910390f35b610210600480360381019061020b9190613993565b6110c9565b005b61022c6004803603810190610227919061330c565b611ad2565b6040516102399190613c78565b60405180910390f35b61025c6004803603810190610257919061330c565b612053565b005b6102786004803603810190610273919061330c565b612712565b005b610294600480360381019061028f9190613dca565b6128e1565b005b6102b060048036038101906102ab9190613e13565b612bbb565b005b6102cc60048036038101906102c7919061330c565b612e21565b6040516102d99190613e7e565b60405180910390f35b600015156102ef33612e21565b151514610331576040517f08c379a000000000000000000000000000000000000000000000000000000000815260040161032890613ee5565b60405180910390fd5b60008383905011610377576040517f08c379a000000000000000000000000000000000000000000000000000000000815260040161036e90613f51565b60405180910390fd5b8282600160003373ffffffffffffffffffffffffffffffffffffffff1673ffffffffffffffffffffffffffffffffffffffff16815260200190815260200160002060000191906103c8929190612f13565b5080600160003373ffffffffffffffffffffffffffffffffffffffff1673ffffffffffffffffffffffffffffffffffffffff16815260200190815260200160002060040160006101000a81548160ff021916908315150217905550505050565b60011515600160003373ffffffffffffffffffffffffffffffffffffffff1673ffffffffffffffffffffffffffffffffffffffff16815260200190815260200160002060040160009054906101000a900460ff1615151461048857600080fd5b600080549050811061049957600080fd5b600060016000805490506104ad9190613fa0565b815481106104be576104bd613fd4565b5b9060005260206000209060050201600082815481106104e0576104df613fd4565b5b906000526020600020906005020160008201548160000155600182018160010190805461050c90614032565b610517929190612f99565b506002820160009054906101000a900473ffffffffffffffffffffffffffffffffffffffff168160020160006101000a81548173ffffffffffffffffffffffffffffffffffffffff021916908373ffffffffffffffffffffffffffffffffffffffff160217905550600382018160030190805461059390614032565b61059e929190612f99565b506004820154816004015590505060008054806105be576105bd614064565b5b60019003818190600052602060002090600502016000808201600090556001820160006105eb9190613026565b6002820160006101000a81549073ffffffffffffffffffffffffffffffffffffffff02191690556003820160006106229190613026565b60048201600090555050905550565b6060600061063f3384612e7b565b905060026000828152602001908152602001600020805480602002602001604051908101604052809291908181526020016000905b8282101561088a57838290600052602060002090600602016040518060c0016040529081600082015481526020016001820160009054906101000a900473ffffffffffffffffffffffffffffffffffffffff1673ffffffffffffffffffffffffffffffffffffffff1673ffffffffffffffffffffffffffffffffffffffff16815260200160028201805461070790614032565b80601f016020809104026020016040519081016040528092919081815260200182805461073390614032565b80156107805780601f1061075557610100808354040283529160200191610780565b820191906000526020600020905b81548152906001019060200180831161076357829003601f168201915b505050505081526020016003820160009054906101000a900473ffffffffffffffffffffffffffffffffffffffff1673ffffffffffffffffffffffffffffffffffffffff1673ffffffffffffffffffffffffffffffffffffffff1681526020016004820180546107ef90614032565b80601f016020809104026020016040519081016040528092919081815260200182805461081b90614032565b80156108685780601f1061083d57610100808354040283529160200191610868565b820191906000526020600020905b81548152906001019060200180831161084b57829003601f168201915b5050505050815260200160058201548152505081526020019060010190610674565b50505050915050919050565b600260205281600052604060002081815481106108b257600080fd5b9060005260206000209060060201600091509150508060000154908060010160009054906101000a900473ffffffffffffffffffffffffffffffffffffffff169080600201805461090290614032565b80601f016020809104026020016040519081016040528092919081815260200182805461092e90614032565b801561097b5780601f106109505761010080835404028352916020019161097b565b820191906000526020600020905b81548152906001019060200180831161095e57829003601f168201915b5050505050908060030160009054906101000a900473ffffffffffffffffffffffffffffffffffffffff16908060040180546109b690614032565b80601f01602080910402602001604051908101604052809291908181526020018280546109e290614032565b8015610a2f5780601f10610a0457610100808354040283529160200191610a2f565b820191906000526020600020905b815481529060010190602001808311610a1257829003601f168201915b5050505050908060050154905086565b600060405180604001604052808573ffffffffffffffffffffffffffffffffffffffff16815260200184848080601f016020809104026020016040519081016040528093929190818152602001838380828437600081840152601f19601f820116905080830192505050505050508152509050600160003373ffffffffffffffffffffffffffffffffffffffff1673ffffffffffffffffffffffffffffffffffffffff16815260200190815260200160002060010181908060018154018082558091505060019003906000526020600020906002020160009091909190915060008201518160000160006101000a81548173ffffffffffffffffffffffffffffffffffffffff021916908373ffffffffffffffffffffffffffffffffffffffff1602179055506020820151816001019080519060200190610b81929190613066565b50505060405180604001604052803373ffffffffffffffffffffffffffffffffffffffff168152602001600160003373ffffffffffffffffffffffffffffffffffffffff1673ffffffffffffffffffffffffffffffffffffffff1681526020019081526020016000206000018054610bf890614032565b80601f0160208091040260200160405190810160405280929190818152602001828054610c2490614032565b8015610c715780601f10610c4657610100808354040283529160200191610c71565b820191906000526020600020905b815481529060010190602001808311610c5457829003601f168201915b50505050508152509050600160008573ffffffffffffffffffffffffffffffffffffffff1673ffffffffffffffffffffffffffffffffffffffff16815260200190815260200160002060010181908060018154018082558091505060019003906000526020600020906002020160009091909190915060008201518160000160006101000a81548173ffffffffffffffffffffffffffffffffffffffff021916908373ffffffffffffffffffffffffffffffffffffffff1602179055506020820151816001019080519060200190610d4a929190613066565b50505050505050565b60606000805480602002602001604051908101604052809291908181526020016000905b82821015610f3757838290600052602060002090600502016040518060a001604052908160008201548152602001600182018054610db490614032565b80601f0160208091040260200160405190810160405280929190818152602001828054610de090614032565b8015610e2d5780601f10610e0257610100808354040283529160200191610e2d565b820191906000526020600020905b815481529060010190602001808311610e1057829003601f168201915b505050505081526020016002820160009054906101000a900473ffffffffffffffffffffffffffffffffffffffff1673ffffffffffffffffffffffffffffffffffffffff1673ffffffffffffffffffffffffffffffffffffffff168152602001600382018054610e9c90614032565b80601f0160208091040260200160405190810160405280929190818152602001828054610ec890614032565b8015610f155780601f10610eea57610100808354040283529160200191610f15565b820191906000526020600020905b815481529060010190602001808311610ef857829003601f168201915b5050505050815260200160048201548152505081526020019060010190610d77565b50505050905090565b6060600160008373ffffffffffffffffffffffffffffffffffffffff1673ffffffffffffffffffffffffffffffffffffffff168152602001908152602001600020600301805480602002602001604051908101604052809291908181526020016000905b828210156110be57838290600052602060002090600202016040518060400160405290816000820160009054906101000a900473ffffffffffffffffffffffffffffffffffffffff1673ffffffffffffffffffffffffffffffffffffffff1673ffffffffffffffffffffffffffffffffffffffff16815260200160018201805461102d90614032565b80601f016020809104026020016040519081016040528092919081815260200182805461105990614032565b80156110a65780601f1061107b576101008083540402835291602001916110a6565b820191906000526020600020905b81548152906001019060200180831161108957829003601f168201915b50505050508152505081526020019060010190610fa4565b505050509050919050565b60005b600160003373ffffffffffffffffffffffffffffffffffffffff1673ffffffffffffffffffffffffffffffffffffffff16815260200190815260200160002060030180549050811015611acd578273ffffffffffffffffffffffffffffffffffffffff16600160003373ffffffffffffffffffffffffffffffffffffffff1673ffffffffffffffffffffffffffffffffffffffff168152602001908152602001600020600301828154811061118457611183613fd4565b5b906000526020600020906002020160000160009054906101000a900473ffffffffffffffffffffffffffffffffffffffff1673ffffffffffffffffffffffffffffffffffffffff161480156111d65750815b156117b557600060405180604001604052808573ffffffffffffffffffffffffffffffffffffffff168152602001600160008773ffffffffffffffffffffffffffffffffffffffff1673ffffffffffffffffffffffffffffffffffffffff168152602001908152602001600020600001805461125190614032565b80601f016020809104026020016040519081016040528092919081815260200182805461127d90614032565b80156112ca5780601f1061129f576101008083540402835291602001916112ca565b820191906000526020600020905b8154815290600101906020018083116112ad57829003601f168201915b50505050508152509050600160003373ffffffffffffffffffffffffffffffffffffffff1673ffffffffffffffffffffffffffffffffffffffff16815260200190815260200160002060010181908060018154018082558091505060019003906000526020600020906002020160009091909190915060008201518160000160006101000a81548173ffffffffffffffffffffffffffffffffffffffff021916908373ffffffffffffffffffffffffffffffffffffffff16021790555060208201518160010190805190602001906113a3929190613066565b50505060405180604001604052803373ffffffffffffffffffffffffffffffffffffffff168152602001600160003373ffffffffffffffffffffffffffffffffffffffff1673ffffffffffffffffffffffffffffffffffffffff168152602001908152602001600020600001805461141a90614032565b80601f016020809104026020016040519081016040528092919081815260200182805461144690614032565b80156114935780601f1061146857610100808354040283529160200191611493565b820191906000526020600020905b81548152906001019060200180831161147657829003601f168201915b50505050508152509050600160008573ffffffffffffffffffffffffffffffffffffffff1673ffffffffffffffffffffffffffffffffffffffff16815260200190815260200160002060010181908060018154018082558091505060019003906000526020600020906002020160009091909190915060008201518160000160006101000a81548173ffffffffffffffffffffffffffffffffffffffff021916908373ffffffffffffffffffffffffffffffffffffffff160217905550602082015181600101908051906020019061156c929190613066565b505050600160003373ffffffffffffffffffffffffffffffffffffffff1673ffffffffffffffffffffffffffffffffffffffff16815260200190815260200160002060030160018060003373ffffffffffffffffffffffffffffffffffffffff1673ffffffffffffffffffffffffffffffffffffffff168152602001908152602001600020600301805490506116029190613fa0565b8154811061161357611612613fd4565b5b9060005260206000209060020201600160003373ffffffffffffffffffffffffffffffffffffffff1673ffffffffffffffffffffffffffffffffffffffff168152602001908152602001600020600301838154811061167557611674613fd4565b5b90600052602060002090600202016000820160009054906101000a900473ffffffffffffffffffffffffffffffffffffffff168160000160006101000a81548173ffffffffffffffffffffffffffffffffffffffff021916908373ffffffffffffffffffffffffffffffffffffffff16021790555060018201816001019080546116fe90614032565b611709929190612f99565b50905050600160003373ffffffffffffffffffffffffffffffffffffffff1673ffffffffffffffffffffffffffffffffffffffff16815260200190815260200160002060030180548061175f5761175e614064565b5b6001900381819060005260206000209060020201600080820160006101000a81549073ffffffffffffffffffffffffffffffffffffffff02191690556001820160006117ab9190613026565b5050905550611aba565b8273ffffffffffffffffffffffffffffffffffffffff16600160003373ffffffffffffffffffffffffffffffffffffffff1673ffffffffffffffffffffffffffffffffffffffff16815260200190815260200160002060030182815481106118205761181f613fd4565b5b906000526020600020906002020160000160009054906101000a900473ffffffffffffffffffffffffffffffffffffffff1673ffffffffffffffffffffffffffffffffffffffff16148015611873575081155b15611ab957600160003373ffffffffffffffffffffffffffffffffffffffff1673ffffffffffffffffffffffffffffffffffffffff16815260200190815260200160002060030160018060003373ffffffffffffffffffffffffffffffffffffffff1673ffffffffffffffffffffffffffffffffffffffff1681526020019081526020016000206003018054905061190b9190613fa0565b8154811061191c5761191b613fd4565b5b9060005260206000209060020201600160003373ffffffffffffffffffffffffffffffffffffffff1673ffffffffffffffffffffffffffffffffffffffff168152602001908152602001600020600301828154811061197e5761197d613fd4565b5b90600052602060002090600202016000820160009054906101000a900473ffffffffffffffffffffffffffffffffffffffff168160000160006101000a81548173ffffffffffffffffffffffffffffffffffffffff021916908373ffffffffffffffffffffffffffffffffffffffff1602179055506001820181600101908054611a0790614032565b611a12929190612f99565b50905050600160003373ffffffffffffffffffffffffffffffffffffffff1673ffffffffffffffffffffffffffffffffffffffff168152602001908152602001600020600301805480611a6857611a67614064565b5b6001900381819060005260206000209060020201600080820160006101000a81549073ffffffffffffffffffffffffffffffffffffffff0219169055600182016000611ab49190613026565b505090555b5b8080611ac590614093565b9150506110cc565b505050565b611ada6130ec565b600160008373ffffffffffffffffffffffffffffffffffffffff1673ffffffffffffffffffffffffffffffffffffffff1681526020019081526020016000206040518060a0016040529081600082018054611b3490614032565b80601f0160208091040260200160405190810160405280929190818152602001828054611b6090614032565b8015611bad5780601f10611b8257610100808354040283529160200191611bad565b820191906000526020600020905b815481529060010190602001808311611b9057829003601f168201915b5050505050815260200160018201805480602002602001604051908101604052809291908181526020016000905b82821015611cf557838290600052602060002090600202016040518060400160405290816000820160009054906101000a900473ffffffffffffffffffffffffffffffffffffffff1673ffffffffffffffffffffffffffffffffffffffff1673ffffffffffffffffffffffffffffffffffffffff168152602001600182018054611c6490614032565b80601f0160208091040260200160405190810160405280929190818152602001828054611c9090614032565b8015611cdd5780601f10611cb257610100808354040283529160200191611cdd565b820191906000526020600020905b815481529060010190602001808311611cc057829003601f168201915b50505050508152505081526020019060010190611bdb565b50505050815260200160028201805480602002602001604051908101604052809291908181526020016000905b82821015611ee257838290600052602060002090600502016040518060a001604052908160008201548152602001600182018054611d5f90614032565b80601f0160208091040260200160405190810160405280929190818152602001828054611d8b90614032565b8015611dd85780601f10611dad57610100808354040283529160200191611dd8565b820191906000526020600020905b815481529060010190602001808311611dbb57829003601f168201915b505050505081526020016002820160009054906101000a900473ffffffffffffffffffffffffffffffffffffffff1673ffffffffffffffffffffffffffffffffffffffff1673ffffffffffffffffffffffffffffffffffffffff168152602001600382018054611e4790614032565b80601f0160208091040260200160405190810160405280929190818152602001828054611e7390614032565b8015611ec05780601f10611e9557610100808354040283529160200191611ec0565b820191906000526020600020905b815481529060010190602001808311611ea357829003601f168201915b5050505050815260200160048201548152505081526020019060010190611d22565b50505050815260200160038201805480602002602001604051908101604052809291908181526020016000905b8282101561202957838290600052602060002090600202016040518060400160405290816000820160009054906101000a900473ffffffffffffffffffffffffffffffffffffffff1673ffffffffffffffffffffffffffffffffffffffff1673ffffffffffffffffffffffffffffffffffffffff168152602001600182018054611f9890614032565b80601f0160208091040260200160405190810160405280929190818152602001828054611fc490614032565b80156120115780601f10611fe657610100808354040283529160200191612011565b820191906000526020600020905b815481529060010190602001808311611ff457829003601f168201915b50505050508152505081526020019060010190611f0f565b5050505081526020016004820160009054906101000a900460ff1615151515815250509050919050565b60005b600160003373ffffffffffffffffffffffffffffffffffffffff1673ffffffffffffffffffffffffffffffffffffffff168152602001908152602001600020600101805490508110156123b0578173ffffffffffffffffffffffffffffffffffffffff16600160003373ffffffffffffffffffffffffffffffffffffffff1673ffffffffffffffffffffffffffffffffffffffff168152602001908152602001600020600101828154811061210e5761210d613fd4565b5b906000526020600020906002020160000160009054906101000a900473ffffffffffffffffffffffffffffffffffffffff1673ffffffffffffffffffffffffffffffffffffffff16141561239d57600160003373ffffffffffffffffffffffffffffffffffffffff1673ffffffffffffffffffffffffffffffffffffffff16815260200190815260200160002060010160018060003373ffffffffffffffffffffffffffffffffffffffff1673ffffffffffffffffffffffffffffffffffffffff168152602001908152602001600020600101805490506121ef9190613fa0565b81548110612200576121ff613fd4565b5b9060005260206000209060020201600160003373ffffffffffffffffffffffffffffffffffffffff1673ffffffffffffffffffffffffffffffffffffffff168152602001908152602001600020600101828154811061226257612261613fd4565b5b90600052602060002090600202016000820160009054906101000a900473ffffffffffffffffffffffffffffffffffffffff168160000160006101000a81548173ffffffffffffffffffffffffffffffffffffffff021916908373ffffffffffffffffffffffffffffffffffffffff16021790555060018201816001019080546122eb90614032565b6122f6929190612f99565b50905050600160003373ffffffffffffffffffffffffffffffffffffffff1673ffffffffffffffffffffffffffffffffffffffff16815260200190815260200160002060010180548061234c5761234b614064565b5b6001900381819060005260206000209060020201600080820160006101000a81549073ffffffffffffffffffffffffffffffffffffffff02191690556001820160006123989190613026565b505090555b80806123a890614093565b915050612056565b5060005b600160008373ffffffffffffffffffffffffffffffffffffffff1673ffffffffffffffffffffffffffffffffffffffff1681526020019081526020016000206001018054905081101561270e573373ffffffffffffffffffffffffffffffffffffffff16600160008473ffffffffffffffffffffffffffffffffffffffff1673ffffffffffffffffffffffffffffffffffffffff168152602001908152602001600020600101828154811061246c5761246b613fd4565b5b906000526020600020906002020160000160009054906101000a900473ffffffffffffffffffffffffffffffffffffffff1673ffffffffffffffffffffffffffffffffffffffff1614156126fb57600160008373ffffffffffffffffffffffffffffffffffffffff1673ffffffffffffffffffffffffffffffffffffffff16815260200190815260200160002060010160018060008573ffffffffffffffffffffffffffffffffffffffff1673ffffffffffffffffffffffffffffffffffffffff1681526020019081526020016000206001018054905061254d9190613fa0565b8154811061255e5761255d613fd4565b5b9060005260206000209060020201600160008473ffffffffffffffffffffffffffffffffffffffff1673ffffffffffffffffffffffffffffffffffffffff16815260200190815260200160002060010182815481106125c0576125bf613fd4565b5b90600052602060002090600202016000820160009054906101000a900473ffffffffffffffffffffffffffffffffffffffff168160000160006101000a81548173ffffffffffffffffffffffffffffffffffffffff021916908373ffffffffffffffffffffffffffffffffffffffff160217905550600182018160010190805461264990614032565b612654929190612f99565b50905050600160008373ffffffffffffffffffffffffffffffffffffffff1673ffffffffffffffffffffffffffffffffffffffff1681526020019081526020016000206001018054806126aa576126a9614064565b5b6001900381819060005260206000209060020201600080820160006101000a81549073ffffffffffffffffffffffffffffffffffffffff02191690556001820160006126f69190613026565b505090555b808061270690614093565b9150506123b4565b5050565b600060405180604001604052803373ffffffffffffffffffffffffffffffffffffffff168152602001600160003373ffffffffffffffffffffffffffffffffffffffff1673ffffffffffffffffffffffffffffffffffffffff168152602001908152602001600020600001805461278890614032565b80601f01602080910402602001604051908101604052809291908181526020018280546127b490614032565b80156128015780601f106127d657610100808354040283529160200191612801565b820191906000526020600020905b8154815290600101906020018083116127e457829003601f168201915b50505050508152509050600160008373ffffffffffffffffffffffffffffffffffffffff1673ffffffffffffffffffffffffffffffffffffffff16815260200190815260200160002060030181908060018154018082558091505060019003906000526020600020906002020160009091909190915060008201518160000160006101000a81548173ffffffffffffffffffffffffffffffffffffffff021916908373ffffffffffffffffffffffffffffffffffffffff16021790555060208201518160010190805190602001906128da929190613066565b5050505050565b60006040518060a001604052806000805490508152602001600160003373ffffffffffffffffffffffffffffffffffffffff1673ffffffffffffffffffffffffffffffffffffffff168152602001908152602001600020600001805461294690614032565b80601f016020809104026020016040519081016040528092919081815260200182805461297290614032565b80156129bf5780601f10612994576101008083540402835291602001916129bf565b820191906000526020600020905b8154815290600101906020018083116129a257829003601f168201915b505050505081526020013373ffffffffffffffffffffffffffffffffffffffff1681526020018381526020014281525090506000819080600181540180825580915050600190039060005260206000209060050201600090919091909150600082015181600001556020820151816001019080519060200190612a43929190613066565b5060408201518160020160006101000a81548173ffffffffffffffffffffffffffffffffffffffff021916908373ffffffffffffffffffffffffffffffffffffffff1602179055506060820151816003019080519060200190612aa7929190613066565b50608082015181600401555050600160003373ffffffffffffffffffffffffffffffffffffffff1673ffffffffffffffffffffffffffffffffffffffff168152602001908152602001600020600201819080600181540180825580915050600190039060005260206000209060050201600090919091909150600082015181600001556020820151816001019080519060200190612b46929190613066565b5060408201518160020160006101000a81548173ffffffffffffffffffffffffffffffffffffffff021916908373ffffffffffffffffffffffffffffffffffffffff1602179055506060820151816003019080519060200190612baa929190613066565b506080820151816004015550505050565b6000612bc73384612e7b565b9050600260008281526020019081526020016000206040518060c00160405280600260008581526020019081526020016000208054905081526020013373ffffffffffffffffffffffffffffffffffffffff168152602001600160003373ffffffffffffffffffffffffffffffffffffffff1673ffffffffffffffffffffffffffffffffffffffff1681526020019081526020016000206000018054612c6c90614032565b80601f0160208091040260200160405190810160405280929190818152602001828054612c9890614032565b8015612ce55780601f10612cba57610100808354040283529160200191612ce5565b820191906000526020600020905b815481529060010190602001808311612cc857829003601f168201915b505050505081526020018573ffffffffffffffffffffffffffffffffffffffff1681526020018481526020014281525090806001815401808255809150506001900390600052602060002090600602016000909190919091506000820151816000015560208201518160010160006101000a81548173ffffffffffffffffffffffffffffffffffffffff021916908373ffffffffffffffffffffffffffffffffffffffff1602179055506040820151816002019080519060200190612dab929190613066565b5060608201518160030160006101000a81548173ffffffffffffffffffffffffffffffffffffffff021916908373ffffffffffffffffffffffffffffffffffffffff1602179055506080820151816004019080519060200190612e0f929190613066565b5060a082015181600501555050505050565b600080600160008473ffffffffffffffffffffffffffffffffffffffff1673ffffffffffffffffffffffffffffffffffffffff1681526020019081526020016000206000018054612e7190614032565b9050119050919050565b60008173ffffffffffffffffffffffffffffffffffffffff168373ffffffffffffffffffffffffffffffffffffffff161015612ee1578282604051602001612ec4929190614124565b604051602081830303815290604052805190602001209050612f0d565b8183604051602001612ef4929190614124565b6040516020818303038152906040528051906020012090505b92915050565b828054612f1f90614032565b90600052602060002090601f016020900481019282612f415760008555612f88565b82601f10612f5a57803560ff1916838001178555612f88565b82800160010185558215612f88579182015b82811115612f87578235825591602001919060010190612f6c565b5b509050612f95919061311d565b5090565b828054612fa590614032565b90600052602060002090601f016020900481019282612fc75760008555613015565b82601f10612fd85780548555613015565b8280016001018555821561301557600052602060002091601f016020900482015b82811115613014578254825591600101919060010190612ff9565b5b509050613022919061311d565b5090565b50805461303290614032565b6000825580601f106130445750613063565b601f016020900490600052602060002090810190613062919061311d565b5b50565b82805461307290614032565b90600052602060002090601f01602090048101928261309457600085556130db565b82601f106130ad57805160ff19168380011785556130db565b828001600101855582156130db579182015b828111156130da5782518255916020019190600101906130bf565b5b5090506130e8919061311d565b5090565b6040518060a00160405280606081526020016060815260200160608152602001606081526020016000151581525090565b5b8082111561313657600081600090555060010161311e565b5090565b6000604051905090565b600080fd5b600080fd5b600080fd5b600080fd5b600080fd5b60008083601f8401126131735761317261314e565b5b8235905067ffffffffffffffff8111156131905761318f613153565b5b6020830191508360018202830111156131ac576131ab613158565b5b9250929050565b60008115159050919050565b6131c8816131b3565b81146131d357600080fd5b50565b6000813590506131e5816131bf565b92915050565b60008060006040848603121561320457613203613144565b5b600084013567ffffffffffffffff81111561322257613221613149565b5b61322e8682870161315d565b93509350506020613241868287016131d6565b9150509250925092565b6000819050919050565b61325e8161324b565b811461326957600080fd5b50565b60008135905061327b81613255565b92915050565b60006020828403121561329757613296613144565b5b60006132a58482850161326c565b91505092915050565b600073ffffffffffffffffffffffffffffffffffffffff82169050919050565b60006132d9826132ae565b9050919050565b6132e9816132ce565b81146132f457600080fd5b50565b600081359050613306816132e0565b92915050565b60006020828403121561332257613321613144565b5b6000613330848285016132f7565b91505092915050565b600081519050919050565b600082825260208201905092915050565b6000819050602082019050919050565b61336e8161324b565b82525050565b61337d816132ce565b82525050565b600081519050919050565b600082825260208201905092915050565b60005b838110156133bd5780820151818401526020810190506133a2565b838111156133cc576000848401525b50505050565b6000601f19601f8301169050919050565b60006133ee82613383565b6133f8818561338e565b935061340881856020860161339f565b613411816133d2565b840191505092915050565b600060c0830160008301516134346000860182613365565b5060208301516134476020860182613374565b506040830151848203604086015261345f82826133e3565b91505060608301516134746060860182613374565b506080830151848203608086015261348c82826133e3565b91505060a08301516134a160a0860182613365565b508091505092915050565b60006134b8838361341c565b905092915050565b6000602082019050919050565b60006134d882613339565b6134e28185613344565b9350836020820285016134f485613355565b8060005b85811015613530578484038952815161351185826134ac565b945061351c836134c0565b925060208a019950506001810190506134f8565b50829750879550505050505092915050565b6000602082019050818103600083015261355c81846134cd565b905092915050565b6000819050919050565b61357781613564565b811461358257600080fd5b50565b6000813590506135948161356e565b92915050565b600080604083850312156135b1576135b0613144565b5b60006135bf85828601613585565b92505060206135d08582860161326c565b9150509250929050565b6135e38161324b565b82525050565b6135f2816132ce565b82525050565b600082825260208201905092915050565b600061361482613383565b61361e81856135f8565b935061362e81856020860161339f565b613637816133d2565b840191505092915050565b600060c08201905061365760008301896135da565b61366460208301886135e9565b81810360408301526136768187613609565b905061368560608301866135e9565b81810360808301526136978185613609565b90506136a660a08301846135da565b979650505050505050565b6000806000604084860312156136ca576136c9613144565b5b60006136d8868287016132f7565b935050602084013567ffffffffffffffff8111156136f9576136f8613149565b5b6137058682870161315d565b92509250509250925092565b600081519050919050565b600082825260208201905092915050565b6000819050602082019050919050565b600060a0830160008301516137556000860182613365565b506020830151848203602086015261376d82826133e3565b91505060408301516137826040860182613374565b506060830151848203606086015261379a82826133e3565b91505060808301516137af6080860182613365565b508091505092915050565b60006137c6838361373d565b905092915050565b6000602082019050919050565b60006137e682613711565b6137f0818561371c565b9350836020820285016138028561372d565b8060005b8581101561383e578484038952815161381f85826137ba565b945061382a836137ce565b925060208a01995050600181019050613806565b50829750879550505050505092915050565b6000602082019050818103600083015261386a81846137db565b905092915050565b600081519050919050565b600082825260208201905092915050565b6000819050602082019050919050565b60006040830160008301516138b66000860182613374565b50602083015184820360208601526138ce82826133e3565b9150508091505092915050565b60006138e7838361389e565b905092915050565b6000602082019050919050565b600061390782613872565b613911818561387d565b9350836020820285016139238561388e565b8060005b8581101561395f578484038952815161394085826138db565b945061394b836138ef565b925060208a01995050600181019050613927565b50829750879550505050505092915050565b6000602082019050818103600083015261398b81846138fc565b905092915050565b600080604083850312156139aa576139a9613144565b5b60006139b8858286016132f7565b92505060206139c9858286016131d6565b9150509250929050565b600081519050919050565b600082825260208201905092915050565b6000819050602082019050919050565b6000604083016000830151613a176000860182613374565b5060208301518482036020860152613a2f82826133e3565b9150508091505092915050565b6000613a4883836139ff565b905092915050565b6000602082019050919050565b6000613a68826139d3565b613a7281856139de565b935083602082028501613a84856139ef565b8060005b85811015613ac05784840389528151613aa18582613a3c565b9450613aac83613a50565b925060208a01995050600181019050613a88565b50829750879550505050505092915050565b600082825260208201905092915050565b6000613aee82613711565b613af88185613ad2565b935083602082028501613b0a8561372d565b8060005b85811015613b465784840389528151613b2785826137ba565b9450613b32836137ce565b925060208a01995050600181019050613b0e565b50829750879550505050505092915050565b600082825260208201905092915050565b6000613b7482613872565b613b7e8185613b58565b935083602082028501613b908561388e565b8060005b85811015613bcc5784840389528151613bad85826138db565b9450613bb8836138ef565b925060208a01995050600181019050613b94565b50829750879550505050505092915050565b613be7816131b3565b82525050565b600060a0830160008301518482036000860152613c0a82826133e3565b91505060208301518482036020860152613c248282613a5d565b91505060408301518482036040860152613c3e8282613ae3565b91505060608301518482036060860152613c588282613b69565b9150506080830151613c6d6080860182613bde565b508091505092915050565b60006020820190508181036000830152613c928184613bed565b905092915050565b600080fd5b7f4e487b7100000000000000000000000000000000000000000000000000000000600052604160045260246000fd5b613cd7826133d2565b810181811067ffffffffffffffff82111715613cf657613cf5613c9f565b5b80604052505050565b6000613d0961313a565b9050613d158282613cce565b919050565b600067ffffffffffffffff821115613d3557613d34613c9f565b5b613d3e826133d2565b9050602081019050919050565b82818337600083830152505050565b6000613d6d613d6884613d1a565b613cff565b905082815260208101848484011115613d8957613d88613c9a565b5b613d94848285613d4b565b509392505050565b600082601f830112613db157613db061314e565b5b8135613dc1848260208601613d5a565b91505092915050565b600060208284031215613de057613ddf613144565b5b600082013567ffffffffffffffff811115613dfe57613dfd613149565b5b613e0a84828501613d9c565b91505092915050565b60008060408385031215613e2a57613e29613144565b5b6000613e38858286016132f7565b925050602083013567ffffffffffffffff811115613e5957613e58613149565b5b613e6585828601613d9c565b9150509250929050565b613e78816131b3565b82525050565b6000602082019050613e936000830184613e6f565b92915050565b7f5573657220616c72656164792065786973747321000000000000000000000000600082015250565b6000613ecf6014836135f8565b9150613eda82613e99565b602082019050919050565b60006020820190508181036000830152613efe81613ec2565b9050919050565b7f557365726e616d652063616e6e6f7420626520656d7074792100000000000000600082015250565b6000613f3b6019836135f8565b9150613f4682613f05565b602082019050919050565b60006020820190508181036000830152613f6a81613f2e565b9050919050565b7f4e487b7100000000000000000000000000000000000000000000000000000000600052601160045260246000fd5b6000613fab8261324b565b9150613fb68361324b565b925082821015613fc957613fc8613f71565b5b828203905092915050565b7f4e487b7100000000000000000000000000000000000000000000000000000000600052603260045260246000fd5b7f4e487b7100000000000000000000000000000000000000000000000000000000600052602260045260246000fd5b6000600282049050600182168061404a57607f821691505b6020821081141561405e5761405d614003565b5b50919050565b7f4e487b7100000000000000000000000000000000000000000000000000000000600052603160045260246000fd5b600061409e8261324b565b91507fffffffffffffffffffffffffffffffffffffffffffffffffffffffffffffffff8214156140d1576140d0613f71565b5b600182019050919050565b60008160601b9050919050565b60006140f4826140dc565b9050919050565b6000614106826140e9565b9050919050565b61411e614119826132ce565b6140fb565b82525050565b6000614130828561410d565b601482019150614140828461410d565b601482019150819050939250505056fea26469706673582212202c7871f8f20b251a4ca2c3ff6fa0ed6e7b44712a12cc9fea0c5d73e86795288c64736f6c63430008090033",
  "linkReferences": {},
  "deployedLinkReferences": {}
}