{
  "_format": "hh-sol-artifact-1",
  "contractName": "Blog",
  "sourceName": "contracts/Blog.sol",
  "abi": [
    {
      "inputs": [
        {
          "internalType": "address",
          "name": "friend_key",
          "type": "address"
        },
        {
          "internalType": "string",
          "name": "name",
          "type": "string"
        }
      ],
      "name": "addFriend",
      "outputs": [],
      "stateMutability": "nonpayable",
      "type": "function"
    },
    {
      "inputs": [
        {
          "internalType": "string",
          "name": "vsebina",
          "type": "string"
        }
      ],
      "name": "addPost",
      "outputs": [],
      "stateMutability": "nonpayable",
      "type": "function"
    },
    {
      "inputs": [
        {
          "internalType": "bytes32",
          "name": "",
          "type": "bytes32"
        },
        {
          "internalType": "uint256",
          "name": "",
          "type": "uint256"
        }
      ],
      "name": "chats",
      "outputs": [
        {
          "internalType": "uint256",
          "name": "id",
          "type": "uint256"
        },
        {
          "internalType": "address",
          "name": "from",
          "type": "address"
        },
        {
          "internalType": "string",
          "name": "nameOfSender",
          "type": "string"
        },
        {
          "internalType": "address",
          "name": "to",
          "type": "address"
        },
        {
          "internalType": "string",
          "name": "content",
          "type": "string"
        },
        {
          "internalType": "uint256",
          "name": "timestamp",
          "type": "uint256"
        }
      ],
      "stateMutability": "view",
      "type": "function"
    },
    {
      "inputs": [
        {
          "internalType": "string",
          "name": "name",
          "type": "string"
        },
        {
          "internalType": "bool",
          "name": "isMod",
          "type": "bool"
        }
      ],
      "name": "createNewUser",
      "outputs": [],
      "stateMutability": "nonpayable",
      "type": "function"
    },
    {
      "inputs": [
        {
          "internalType": "uint256",
          "name": "id",
          "type": "uint256"
        }
      ],
      "name": "deletePost",
      "outputs": [],
      "stateMutability": "nonpayable",
      "type": "function"
    },
    {
      "inputs": [
        {
          "internalType": "address",
          "name": "pubkey",
          "type": "address"
        }
      ],
      "name": "doesUserExist",
      "outputs": [
        {
          "internalType": "bool",
          "name": "",
          "type": "bool"
        }
      ],
      "stateMutability": "view",
      "type": "function"
    },
    {
      "inputs": [
        {
          "internalType": "address",
          "name": "to",
          "type": "address"
        }
      ],
      "name": "getChat",
      "outputs": [
        {
          "components": [
            {
              "internalType": "uint256",
              "name": "id",
              "type": "uint256"
            },
            {
              "internalType": "address",
              "name": "from",
              "type": "address"
            },
            {
              "internalType": "string",
              "name": "nameOfSender",
              "type": "string"
            },
            {
              "internalType": "address",
              "name": "to",
              "type": "address"
            },
            {
              "internalType": "string",
              "name": "content",
              "type": "string"
            },
            {
              "internalType": "uint256",
              "name": "timestamp",
              "type": "uint256"
            }
          ],
          "internalType": "struct Blog.Message[]",
          "name": "",
          "type": "tuple[]"
        }
      ],
      "stateMutability": "view",
      "type": "function"
    },
    {
      "inputs": [],
      "name": "getPosts",
      "outputs": [
        {
          "components": [
            {
              "internalType": "uint256",
              "name": "id",
              "type": "uint256"
            },
            {
              "internalType": "string",
              "name": "author",
              "type": "string"
            },
            {
              "internalType": "address",
              "name": "pubkey",
              "type": "address"
            },
            {
              "internalType": "string",
              "name": "content",
              "type": "string"
            },
            {
              "internalType": "uint256",
              "name": "timestamp",
              "type": "uint256"
            }
          ],
          "internalType": "struct Blog.Post[]",
          "name": "",
          "type": "tuple[]"
        }
      ],
      "stateMutability": "view",
      "type": "function"
    },
    {
      "inputs": [
        {
          "internalType": "address",
          "name": "userAddress",
          "type": "address"
        }
      ],
      "name": "getUser",
      "outputs": [
        {
          "components": [
            {
              "internalType": "string",
              "name": "name",
              "type": "string"
            },
            {
              "components": [
                {
                  "internalType": "address",
                  "name": "pubkey",
                  "type": "address"
                },
                {
                  "internalType": "string",
                  "name": "name",
                  "type": "string"
                }
              ],
              "internalType": "struct Blog.Friend[]",
              "name": "friends",
              "type": "tuple[]"
            },
            {
              "components": [
                {
                  "internalType": "uint256",
                  "name": "id",
                  "type": "uint256"
                },
                {
                  "internalType": "string",
                  "name": "author",
                  "type": "string"
                },
                {
                  "internalType": "address",
                  "name": "pubkey",
                  "type": "address"
                },
                {
                  "internalType": "string",
                  "name": "content",
                  "type": "string"
                },
                {
                  "internalType": "uint256",
                  "name": "timestamp",
                  "type": "uint256"
                }
              ],
              "internalType": "struct Blog.Post[]",
              "name": "posts",
              "type": "tuple[]"
            },
            {
              "internalType": "bool",
              "name": "isMod",
              "type": "bool"
            }
          ],
          "internalType": "struct Blog.User",
          "name": "",
          "type": "tuple"
        }
      ],
      "stateMutability": "view",
      "type": "function"
    },
    {
      "inputs": [
        {
          "internalType": "address",
          "name": "to",
          "type": "address"
        },
        {
          "internalType": "string",
          "name": "content",
          "type": "string"
        }
      ],
      "name": "sendMessage",
      "outputs": [],
      "stateMutability": "nonpayable",
      "type": "function"
    }
  ],
  "bytecode": "0x608060405234801561001057600080fd5b506128fe806100206000396000f3fe608060405234801561001057600080fd5b506004361061009e5760003560e01c806341f3004a1161006657806341f3004a1461015c5780636f77926b1461017a578063a6322819146101aa578063de6f24bb146101c6578063ecb41054146101e25761009e565b806302a76135146100a3578063094cd5ee146100bf5780632efcb62f146100db578063354ed5f71461010b5780633b9f708d14610140575b600080fd5b6100bd60048036038101906100b89190611bad565b610212565b005b6100d960048036038101906100d49190611c43565b610358565b005b6100f560048036038101906100f09190611cce565b610561565b6040516101029190611f04565b60405180910390f35b61012560048036038101906101209190611f5c565b6107c6565b60405161013796959493929190612004565b60405180910390f35b61015a60048036038101906101559190612073565b61096f565b005b610164610c83565b6040516101719190612212565b60405180910390f35b610194600480360381019061018f9190611cce565b610e70565b6040516101a19190612439565b60405180910390f35b6101c460048036038101906101bf919061258b565b6112aa565b005b6101e060048036038101906101db91906125d4565b611584565b005b6101fc60048036038101906101f79190611cce565b6117ea565b604051610209919061263f565b60405180910390f35b6000151561021f336117ea565b151514610261576040517f08c379a0000000000000000000000000000000000000000000000000000000008152600401610258906126a6565b60405180910390fd5b600083839050116102a7576040517f08c379a000000000000000000000000000000000000000000000000000000000815260040161029e90612712565b60405180910390fd5b8282600160003373ffffffffffffffffffffffffffffffffffffffff1673ffffffffffffffffffffffffffffffffffffffff16815260200190815260200160002060000191906102f89291906118dc565b5080600160003373ffffffffffffffffffffffffffffffffffffffff1673ffffffffffffffffffffffffffffffffffffffff16815260200190815260200160002060030160006101000a81548160ff021916908315150217905550505050565b60011515600160003373ffffffffffffffffffffffffffffffffffffffff1673ffffffffffffffffffffffffffffffffffffffff16815260200190815260200160002060030160009054906101000a900460ff161515146103b857600080fd5b60008054905081106103c957600080fd5b600060016000805490506103dd9190612761565b815481106103ee576103ed612795565b5b9060005260206000209060050201600082815481106104105761040f612795565b5b906000526020600020906005020160008201548160000155600182018160010190805461043c906127f3565b610447929190611962565b506002820160009054906101000a900473ffffffffffffffffffffffffffffffffffffffff168160020160006101000a81548173ffffffffffffffffffffffffffffffffffffffff021916908373ffffffffffffffffffffffffffffffffffffffff16021790555060038201816003019080546104c3906127f3565b6104ce929190611962565b506004820154816004015590505060008054806104ee576104ed612825565b5b600190038181906000526020600020906005020160008082016000905560018201600061051b91906119ef565b6002820160006101000a81549073ffffffffffffffffffffffffffffffffffffffff021916905560038201600061055291906119ef565b60048201600090555050905550565b6060600061056f3384611844565b905060026000828152602001908152602001600020805480602002602001604051908101604052809291908181526020016000905b828210156107ba57838290600052602060002090600602016040518060c0016040529081600082015481526020016001820160009054906101000a900473ffffffffffffffffffffffffffffffffffffffff1673ffffffffffffffffffffffffffffffffffffffff1673ffffffffffffffffffffffffffffffffffffffff168152602001600282018054610637906127f3565b80601f0160208091040260200160405190810160405280929190818152602001828054610663906127f3565b80156106b05780601f10610685576101008083540402835291602001916106b0565b820191906000526020600020905b81548152906001019060200180831161069357829003601f168201915b505050505081526020016003820160009054906101000a900473ffffffffffffffffffffffffffffffffffffffff1673ffffffffffffffffffffffffffffffffffffffff1673ffffffffffffffffffffffffffffffffffffffff16815260200160048201805461071f906127f3565b80601f016020809104026020016040519081016040528092919081815260200182805461074b906127f3565b80156107985780601f1061076d57610100808354040283529160200191610798565b820191906000526020600020905b81548152906001019060200180831161077b57829003601f168201915b50505050508152602001600582015481525050815260200190600101906105a4565b50505050915050919050565b600260205281600052604060002081815481106107e257600080fd5b9060005260206000209060060201600091509150508060000154908060010160009054906101000a900473ffffffffffffffffffffffffffffffffffffffff1690806002018054610832906127f3565b80601f016020809104026020016040519081016040528092919081815260200182805461085e906127f3565b80156108ab5780601f10610880576101008083540402835291602001916108ab565b820191906000526020600020905b81548152906001019060200180831161088e57829003601f168201915b5050505050908060030160009054906101000a900473ffffffffffffffffffffffffffffffffffffffff16908060040180546108e6906127f3565b80601f0160208091040260200160405190810160405280929190818152602001828054610912906127f3565b801561095f5780601f106109345761010080835404028352916020019161095f565b820191906000526020600020905b81548152906001019060200180831161094257829003601f168201915b5050505050908060050154905086565b600060405180604001604052808573ffffffffffffffffffffffffffffffffffffffff16815260200184848080601f016020809104026020016040519081016040528093929190818152602001838380828437600081840152601f19601f820116905080830192505050505050508152509050600160003373ffffffffffffffffffffffffffffffffffffffff1673ffffffffffffffffffffffffffffffffffffffff16815260200190815260200160002060010181908060018154018082558091505060019003906000526020600020906002020160009091909190915060008201518160000160006101000a81548173ffffffffffffffffffffffffffffffffffffffff021916908373ffffffffffffffffffffffffffffffffffffffff1602179055506020820151816001019080519060200190610ab1929190611a2f565b50505060405180604001604052803373ffffffffffffffffffffffffffffffffffffffff168152602001600160003373ffffffffffffffffffffffffffffffffffffffff1673ffffffffffffffffffffffffffffffffffffffff1681526020019081526020016000206000018054610b28906127f3565b80601f0160208091040260200160405190810160405280929190818152602001828054610b54906127f3565b8015610ba15780601f10610b7657610100808354040283529160200191610ba1565b820191906000526020600020905b815481529060010190602001808311610b8457829003601f168201915b50505050508152509050600160008573ffffffffffffffffffffffffffffffffffffffff1673ffffffffffffffffffffffffffffffffffffffff16815260200190815260200160002060010181908060018154018082558091505060019003906000526020600020906002020160009091909190915060008201518160000160006101000a81548173ffffffffffffffffffffffffffffffffffffffff021916908373ffffffffffffffffffffffffffffffffffffffff1602179055506020820151816001019080519060200190610c7a929190611a2f565b50505050505050565b60606000805480602002602001604051908101604052809291908181526020016000905b82821015610e6757838290600052602060002090600502016040518060a001604052908160008201548152602001600182018054610ce4906127f3565b80601f0160208091040260200160405190810160405280929190818152602001828054610d10906127f3565b8015610d5d5780601f10610d3257610100808354040283529160200191610d5d565b820191906000526020600020905b815481529060010190602001808311610d4057829003601f168201915b505050505081526020016002820160009054906101000a900473ffffffffffffffffffffffffffffffffffffffff1673ffffffffffffffffffffffffffffffffffffffff1673ffffffffffffffffffffffffffffffffffffffff168152602001600382018054610dcc906127f3565b80601f0160208091040260200160405190810160405280929190818152602001828054610df8906127f3565b8015610e455780601f10610e1a57610100808354040283529160200191610e45565b820191906000526020600020905b815481529060010190602001808311610e2857829003601f168201915b5050505050815260200160048201548152505081526020019060010190610ca7565b50505050905090565b610e78611ab5565b600160008373ffffffffffffffffffffffffffffffffffffffff1673ffffffffffffffffffffffffffffffffffffffff168152602001908152602001600020604051806080016040529081600082018054610ed2906127f3565b80601f0160208091040260200160405190810160405280929190818152602001828054610efe906127f3565b8015610f4b5780601f10610f2057610100808354040283529160200191610f4b565b820191906000526020600020905b815481529060010190602001808311610f2e57829003601f168201915b5050505050815260200160018201805480602002602001604051908101604052809291908181526020016000905b8282101561109357838290600052602060002090600202016040518060400160405290816000820160009054906101000a900473ffffffffffffffffffffffffffffffffffffffff1673ffffffffffffffffffffffffffffffffffffffff1673ffffffffffffffffffffffffffffffffffffffff168152602001600182018054611002906127f3565b80601f016020809104026020016040519081016040528092919081815260200182805461102e906127f3565b801561107b5780601f106110505761010080835404028352916020019161107b565b820191906000526020600020905b81548152906001019060200180831161105e57829003601f168201915b50505050508152505081526020019060010190610f79565b50505050815260200160028201805480602002602001604051908101604052809291908181526020016000905b8282101561128057838290600052602060002090600502016040518060a0016040529081600082015481526020016001820180546110fd906127f3565b80601f0160208091040260200160405190810160405280929190818152602001828054611129906127f3565b80156111765780601f1061114b57610100808354040283529160200191611176565b820191906000526020600020905b81548152906001019060200180831161115957829003601f168201915b505050505081526020016002820160009054906101000a900473ffffffffffffffffffffffffffffffffffffffff1673ffffffffffffffffffffffffffffffffffffffff1673ffffffffffffffffffffffffffffffffffffffff1681526020016003820180546111e5906127f3565b80601f0160208091040260200160405190810160405280929190818152602001828054611211906127f3565b801561125e5780601f106112335761010080835404028352916020019161125e565b820191906000526020600020905b81548152906001019060200180831161124157829003601f168201915b50505050508152602001600482015481525050815260200190600101906110c0565b5050505081526020016003820160009054906101000a900460ff1615151515815250509050919050565b60006040518060a001604052806000805490508152602001600160003373ffffffffffffffffffffffffffffffffffffffff1673ffffffffffffffffffffffffffffffffffffffff168152602001908152602001600020600001805461130f906127f3565b80601f016020809104026020016040519081016040528092919081815260200182805461133b906127f3565b80156113885780601f1061135d57610100808354040283529160200191611388565b820191906000526020600020905b81548152906001019060200180831161136b57829003601f168201915b505050505081526020013373ffffffffffffffffffffffffffffffffffffffff168152602001838152602001428152509050600081908060018154018082558091505060019003906000526020600020906005020160009091909190915060008201518160000155602082015181600101908051906020019061140c929190611a2f565b5060408201518160020160006101000a81548173ffffffffffffffffffffffffffffffffffffffff021916908373ffffffffffffffffffffffffffffffffffffffff1602179055506060820151816003019080519060200190611470929190611a2f565b50608082015181600401555050600160003373ffffffffffffffffffffffffffffffffffffffff1673ffffffffffffffffffffffffffffffffffffffff16815260200190815260200160002060020181908060018154018082558091505060019003906000526020600020906005020160009091909190915060008201518160000155602082015181600101908051906020019061150f929190611a2f565b5060408201518160020160006101000a81548173ffffffffffffffffffffffffffffffffffffffff021916908373ffffffffffffffffffffffffffffffffffffffff1602179055506060820151816003019080519060200190611573929190611a2f565b506080820151816004015550505050565b60006115903384611844565b9050600260008281526020019081526020016000206040518060c00160405280600260008581526020019081526020016000208054905081526020013373ffffffffffffffffffffffffffffffffffffffff168152602001600160003373ffffffffffffffffffffffffffffffffffffffff1673ffffffffffffffffffffffffffffffffffffffff1681526020019081526020016000206000018054611635906127f3565b80601f0160208091040260200160405190810160405280929190818152602001828054611661906127f3565b80156116ae5780601f10611683576101008083540402835291602001916116ae565b820191906000526020600020905b81548152906001019060200180831161169157829003601f168201915b505050505081526020018573ffffffffffffffffffffffffffffffffffffffff1681526020018481526020014281525090806001815401808255809150506001900390600052602060002090600602016000909190919091506000820151816000015560208201518160010160006101000a81548173ffffffffffffffffffffffffffffffffffffffff021916908373ffffffffffffffffffffffffffffffffffffffff1602179055506040820151816002019080519060200190611774929190611a2f565b5060608201518160030160006101000a81548173ffffffffffffffffffffffffffffffffffffffff021916908373ffffffffffffffffffffffffffffffffffffffff16021790555060808201518160040190805190602001906117d8929190611a2f565b5060a082015181600501555050505050565b600080600160008473ffffffffffffffffffffffffffffffffffffffff1673ffffffffffffffffffffffffffffffffffffffff168152602001908152602001600020600001805461183a906127f3565b9050119050919050565b60008173ffffffffffffffffffffffffffffffffffffffff168373ffffffffffffffffffffffffffffffffffffffff1610156118aa57828260405160200161188d92919061289c565b6040516020818303038152906040528051906020012090506118d6565b81836040516020016118bd92919061289c565b6040516020818303038152906040528051906020012090505b92915050565b8280546118e8906127f3565b90600052602060002090601f01602090048101928261190a5760008555611951565b82601f1061192357803560ff1916838001178555611951565b82800160010185558215611951579182015b82811115611950578235825591602001919060010190611935565b5b50905061195e9190611adf565b5090565b82805461196e906127f3565b90600052602060002090601f01602090048101928261199057600085556119de565b82601f106119a157805485556119de565b828001600101855582156119de57600052602060002091601f016020900482015b828111156119dd5782548255916001019190600101906119c2565b5b5090506119eb9190611adf565b5090565b5080546119fb906127f3565b6000825580601f10611a0d5750611a2c565b601f016020900490600052602060002090810190611a2b9190611adf565b5b50565b828054611a3b906127f3565b90600052602060002090601f016020900481019282611a5d5760008555611aa4565b82601f10611a7657805160ff1916838001178555611aa4565b82800160010185558215611aa4579182015b82811115611aa3578251825591602001919060010190611a88565b5b509050611ab19190611adf565b5090565b60405180608001604052806060815260200160608152602001606081526020016000151581525090565b5b80821115611af8576000816000905550600101611ae0565b5090565b6000604051905090565b600080fd5b600080fd5b600080fd5b600080fd5b600080fd5b60008083601f840112611b3557611b34611b10565b5b8235905067ffffffffffffffff811115611b5257611b51611b15565b5b602083019150836001820283011115611b6e57611b6d611b1a565b5b9250929050565b60008115159050919050565b611b8a81611b75565b8114611b9557600080fd5b50565b600081359050611ba781611b81565b92915050565b600080600060408486031215611bc657611bc5611b06565b5b600084013567ffffffffffffffff811115611be457611be3611b0b565b5b611bf086828701611b1f565b93509350506020611c0386828701611b98565b9150509250925092565b6000819050919050565b611c2081611c0d565b8114611c2b57600080fd5b50565b600081359050611c3d81611c17565b92915050565b600060208284031215611c5957611c58611b06565b5b6000611c6784828501611c2e565b91505092915050565b600073ffffffffffffffffffffffffffffffffffffffff82169050919050565b6000611c9b82611c70565b9050919050565b611cab81611c90565b8114611cb657600080fd5b50565b600081359050611cc881611ca2565b92915050565b600060208284031215611ce457611ce3611b06565b5b6000611cf284828501611cb9565b91505092915050565b600081519050919050565b600082825260208201905092915050565b6000819050602082019050919050565b611d3081611c0d565b82525050565b611d3f81611c90565b82525050565b600081519050919050565b600082825260208201905092915050565b60005b83811015611d7f578082015181840152602081019050611d64565b83811115611d8e576000848401525b50505050565b6000601f19601f8301169050919050565b6000611db082611d45565b611dba8185611d50565b9350611dca818560208601611d61565b611dd381611d94565b840191505092915050565b600060c083016000830151611df66000860182611d27565b506020830151611e096020860182611d36565b5060408301518482036040860152611e218282611da5565b9150506060830151611e366060860182611d36565b5060808301518482036080860152611e4e8282611da5565b91505060a0830151611e6360a0860182611d27565b508091505092915050565b6000611e7a8383611dde565b905092915050565b6000602082019050919050565b6000611e9a82611cfb565b611ea48185611d06565b935083602082028501611eb685611d17565b8060005b85811015611ef25784840389528151611ed38582611e6e565b9450611ede83611e82565b925060208a01995050600181019050611eba565b50829750879550505050505092915050565b60006020820190508181036000830152611f1e8184611e8f565b905092915050565b6000819050919050565b611f3981611f26565b8114611f4457600080fd5b50565b600081359050611f5681611f30565b92915050565b60008060408385031215611f7357611f72611b06565b5b6000611f8185828601611f47565b9250506020611f9285828601611c2e565b9150509250929050565b611fa581611c0d565b82525050565b611fb481611c90565b82525050565b600082825260208201905092915050565b6000611fd682611d45565b611fe08185611fba565b9350611ff0818560208601611d61565b611ff981611d94565b840191505092915050565b600060c0820190506120196000830189611f9c565b6120266020830188611fab565b81810360408301526120388187611fcb565b90506120476060830186611fab565b81810360808301526120598185611fcb565b905061206860a0830184611f9c565b979650505050505050565b60008060006040848603121561208c5761208b611b06565b5b600061209a86828701611cb9565b935050602084013567ffffffffffffffff8111156120bb576120ba611b0b565b5b6120c786828701611b1f565b92509250509250925092565b600081519050919050565b600082825260208201905092915050565b6000819050602082019050919050565b600060a0830160008301516121176000860182611d27565b506020830151848203602086015261212f8282611da5565b91505060408301516121446040860182611d36565b506060830151848203606086015261215c8282611da5565b91505060808301516121716080860182611d27565b508091505092915050565b600061218883836120ff565b905092915050565b6000602082019050919050565b60006121a8826120d3565b6121b281856120de565b9350836020820285016121c4856120ef565b8060005b8581101561220057848403895281516121e1858261217c565b94506121ec83612190565b925060208a019950506001810190506121c8565b50829750879550505050505092915050565b6000602082019050818103600083015261222c818461219d565b905092915050565b600081519050919050565b600082825260208201905092915050565b6000819050602082019050919050565b60006040830160008301516122786000860182611d36565b50602083015184820360208601526122908282611da5565b9150508091505092915050565b60006122a98383612260565b905092915050565b6000602082019050919050565b60006122c982612234565b6122d3818561223f565b9350836020820285016122e585612250565b8060005b858110156123215784840389528151612302858261229d565b945061230d836122b1565b925060208a019950506001810190506122e9565b50829750879550505050505092915050565b600082825260208201905092915050565b600061234f826120d3565b6123598185612333565b93508360208202850161236b856120ef565b8060005b858110156123a75784840389528151612388858261217c565b945061239383612190565b925060208a0199505060018101905061236f565b50829750879550505050505092915050565b6123c281611b75565b82525050565b600060808301600083015184820360008601526123e58282611da5565b915050602083015184820360208601526123ff82826122be565b915050604083015184820360408601526124198282612344565b915050606083015161242e60608601826123b9565b508091505092915050565b6000602082019050818103600083015261245381846123c8565b905092915050565b600080fd5b7f4e487b7100000000000000000000000000000000000000000000000000000000600052604160045260246000fd5b61249882611d94565b810181811067ffffffffffffffff821117156124b7576124b6612460565b5b80604052505050565b60006124ca611afc565b90506124d6828261248f565b919050565b600067ffffffffffffffff8211156124f6576124f5612460565b5b6124ff82611d94565b9050602081019050919050565b82818337600083830152505050565b600061252e612529846124db565b6124c0565b90508281526020810184848401111561254a5761254961245b565b5b61255584828561250c565b509392505050565b600082601f83011261257257612571611b10565b5b813561258284826020860161251b565b91505092915050565b6000602082840312156125a1576125a0611b06565b5b600082013567ffffffffffffffff8111156125bf576125be611b0b565b5b6125cb8482850161255d565b91505092915050565b600080604083850312156125eb576125ea611b06565b5b60006125f985828601611cb9565b925050602083013567ffffffffffffffff81111561261a57612619611b0b565b5b6126268582860161255d565b9150509250929050565b61263981611b75565b82525050565b60006020820190506126546000830184612630565b92915050565b7f5573657220616c72656164792065786973747321000000000000000000000000600082015250565b6000612690601483611fba565b915061269b8261265a565b602082019050919050565b600060208201905081810360008301526126bf81612683565b9050919050565b7f557365726e616d652063616e6e6f7420626520656d7074792100000000000000600082015250565b60006126fc601983611fba565b9150612707826126c6565b602082019050919050565b6000602082019050818103600083015261272b816126ef565b9050919050565b7f4e487b7100000000000000000000000000000000000000000000000000000000600052601160045260246000fd5b600061276c82611c0d565b915061277783611c0d565b92508282101561278a57612789612732565b5b828203905092915050565b7f4e487b7100000000000000000000000000000000000000000000000000000000600052603260045260246000fd5b7f4e487b7100000000000000000000000000000000000000000000000000000000600052602260045260246000fd5b6000600282049050600182168061280b57607f821691505b6020821081141561281f5761281e6127c4565b5b50919050565b7f4e487b7100000000000000000000000000000000000000000000000000000000600052603160045260246000fd5b60008160601b9050919050565b600061286c82612854565b9050919050565b600061287e82612861565b9050919050565b61289661289182611c90565b612873565b82525050565b60006128a88285612885565b6014820191506128b88284612885565b601482019150819050939250505056fea26469706673582212205e289f8ccc3bb932ac7d3798a4d11ac32f6ce8290b4c8527585c147d42eacac064736f6c63430008090033",
  "linkReferences": {},
  "deployedLinkReferences": {}
}