{
  "_format": "hh-sol-artifact-1",
  "contractName": "Blog",
  "sourceName": "contracts/Blog.sol",
  "abi": [
    {
      "inputs": [
        {
          "internalType": "address",
          "name": "postOwner",
          "type": "address"
        },
        {
          "internalType": "address",
          "name": "userDeleting",
          "type": "address"
        }
      ],
      "name": "NotUsersPost",
      "type": "error"
    },
    {
      "anonymous": false,
      "inputs": [
        {
          "indexed": false,
          "internalType": "address",
          "name": "newUserAddress",
          "type": "address"
        },
        {
          "indexed": false,
          "internalType": "string",
          "name": "newUserName",
          "type": "string"
        }
      ],
      "name": "NewUserCreated",
      "type": "event"
    },
    {
      "inputs": [
        {
          "internalType": "address",
          "name": "friend_key",
          "type": "address"
        },
        {
          "internalType": "string",
          "name": "name",
          "type": "string"
        }
      ],
      "name": "addFriend",
      "outputs": [],
      "stateMutability": "nonpayable",
      "type": "function"
    },
    {
      "inputs": [
        {
          "internalType": "string",
          "name": "vsebina",
          "type": "string"
        }
      ],
      "name": "addPost",
      "outputs": [],
      "stateMutability": "nonpayable",
      "type": "function"
    },
    {
      "inputs": [
        {
          "internalType": "bytes32",
          "name": "",
          "type": "bytes32"
        },
        {
          "internalType": "uint256",
          "name": "",
          "type": "uint256"
        }
      ],
      "name": "chats",
      "outputs": [
        {
          "internalType": "uint256",
          "name": "id",
          "type": "uint256"
        },
        {
          "internalType": "address",
          "name": "from",
          "type": "address"
        },
        {
          "internalType": "string",
          "name": "nameOfSender",
          "type": "string"
        },
        {
          "internalType": "address",
          "name": "to",
          "type": "address"
        },
        {
          "internalType": "string",
          "name": "content",
          "type": "string"
        },
        {
          "internalType": "uint256",
          "name": "timestamp",
          "type": "uint256"
        }
      ],
      "stateMutability": "view",
      "type": "function"
    },
    {
      "inputs": [
        {
          "internalType": "string",
          "name": "name",
          "type": "string"
        },
        {
          "internalType": "bool",
          "name": "isMod",
          "type": "bool"
        }
      ],
      "name": "createNewUser",
      "outputs": [],
      "stateMutability": "nonpayable",
      "type": "function"
    },
    {
      "inputs": [
        {
          "internalType": "uint256",
          "name": "id",
          "type": "uint256"
        }
      ],
      "name": "deleteOwnPost",
      "outputs": [],
      "stateMutability": "nonpayable",
      "type": "function"
    },
    {
      "inputs": [
        {
          "internalType": "uint256",
          "name": "id",
          "type": "uint256"
        }
      ],
      "name": "deletePost",
      "outputs": [],
      "stateMutability": "nonpayable",
      "type": "function"
    },
    {
      "inputs": [
        {
          "internalType": "address",
          "name": "pubkey",
          "type": "address"
        }
      ],
      "name": "doesUserExist",
      "outputs": [
        {
          "internalType": "bool",
          "name": "",
          "type": "bool"
        }
      ],
      "stateMutability": "view",
      "type": "function"
    },
    {
      "inputs": [
        {
          "internalType": "address",
          "name": "to",
          "type": "address"
        }
      ],
      "name": "getChat",
      "outputs": [
        {
          "components": [
            {
              "internalType": "uint256",
              "name": "id",
              "type": "uint256"
            },
            {
              "internalType": "address",
              "name": "from",
              "type": "address"
            },
            {
              "internalType": "string",
              "name": "nameOfSender",
              "type": "string"
            },
            {
              "internalType": "address",
              "name": "to",
              "type": "address"
            },
            {
              "internalType": "string",
              "name": "content",
              "type": "string"
            },
            {
              "internalType": "uint256",
              "name": "timestamp",
              "type": "uint256"
            }
          ],
          "internalType": "struct Blog.Message[]",
          "name": "",
          "type": "tuple[]"
        }
      ],
      "stateMutability": "view",
      "type": "function"
    },
    {
      "inputs": [
        {
          "internalType": "address",
          "name": "user",
          "type": "address"
        }
      ],
      "name": "getFriendRequests",
      "outputs": [
        {
          "components": [
            {
              "internalType": "address",
              "name": "pubkey",
              "type": "address"
            },
            {
              "internalType": "string",
              "name": "name",
              "type": "string"
            }
          ],
          "internalType": "struct Blog.FriendRequest[]",
          "name": "",
          "type": "tuple[]"
        }
      ],
      "stateMutability": "view",
      "type": "function"
    },
    {
      "inputs": [],
      "name": "getPosts",
      "outputs": [
        {
          "components": [
            {
              "internalType": "uint256",
              "name": "id",
              "type": "uint256"
            },
            {
              "internalType": "string",
              "name": "author",
              "type": "string"
            },
            {
              "internalType": "address",
              "name": "pubkey",
              "type": "address"
            },
            {
              "internalType": "string",
              "name": "content",
              "type": "string"
            },
            {
              "internalType": "uint256",
              "name": "timestamp",
              "type": "uint256"
            }
          ],
          "internalType": "struct Blog.Post[]",
          "name": "",
          "type": "tuple[]"
        }
      ],
      "stateMutability": "view",
      "type": "function"
    },
    {
      "inputs": [
        {
          "internalType": "address",
          "name": "userAddress",
          "type": "address"
        }
      ],
      "name": "getUser",
      "outputs": [
        {
          "components": [
            {
              "internalType": "string",
              "name": "name",
              "type": "string"
            },
            {
              "components": [
                {
                  "internalType": "address",
                  "name": "pubkey",
                  "type": "address"
                },
                {
                  "internalType": "string",
                  "name": "name",
                  "type": "string"
                }
              ],
              "internalType": "struct Blog.Friend[]",
              "name": "friends",
              "type": "tuple[]"
            },
            {
              "components": [
                {
                  "internalType": "uint256",
                  "name": "id",
                  "type": "uint256"
                },
                {
                  "internalType": "string",
                  "name": "author",
                  "type": "string"
                },
                {
                  "internalType": "address",
                  "name": "pubkey",
                  "type": "address"
                },
                {
                  "internalType": "string",
                  "name": "content",
                  "type": "string"
                },
                {
                  "internalType": "uint256",
                  "name": "timestamp",
                  "type": "uint256"
                }
              ],
              "internalType": "struct Blog.Post[]",
              "name": "posts",
              "type": "tuple[]"
            },
            {
              "components": [
                {
                  "internalType": "address",
                  "name": "pubkey",
                  "type": "address"
                },
                {
                  "internalType": "string",
                  "name": "name",
                  "type": "string"
                }
              ],
              "internalType": "struct Blog.FriendRequest[]",
              "name": "friendRequests",
              "type": "tuple[]"
            },
            {
              "internalType": "enum Blog.UserType",
              "name": "userType",
              "type": "uint8"
            }
          ],
          "internalType": "struct Blog.User",
          "name": "",
          "type": "tuple"
        }
      ],
      "stateMutability": "view",
      "type": "function"
    },
    {
      "inputs": [
        {
          "internalType": "address",
          "name": "friend_request_key",
          "type": "address"
        },
        {
          "internalType": "bool",
          "name": "accept",
          "type": "bool"
        }
      ],
      "name": "handleFriendRequest",
      "outputs": [],
      "stateMutability": "nonpayable",
      "type": "function"
    },
    {
      "inputs": [
        {
          "internalType": "address",
          "name": "user",
          "type": "address"
        }
      ],
      "name": "removeFriend",
      "outputs": [],
      "stateMutability": "nonpayable",
      "type": "function"
    },
    {
      "inputs": [
        {
          "internalType": "address",
          "name": "friend_key",
          "type": "address"
        }
      ],
      "name": "sendFriendRequest",
      "outputs": [],
      "stateMutability": "nonpayable",
      "type": "function"
    },
    {
      "inputs": [
        {
          "internalType": "address",
          "name": "to",
          "type": "address"
        },
        {
          "internalType": "string",
          "name": "content",
          "type": "string"
        }
      ],
      "name": "sendMessage",
      "outputs": [],
      "stateMutability": "nonpayable",
      "type": "function"
    }
  ],
  "bytecode": "0x608060405234801561001057600080fd5b50614da1806100206000396000f3fe608060405234801561001057600080fd5b50600436106100f55760003560e01c806353d056c011610097578063837b770a11610066578063837b770a14610285578063a6322819146102a1578063de6f24bb146102bd578063ecb41054146102d9576100f5565b806353d056c0146101ed5780636ee0a58a1461021d5780636f77926b1461023957806380cee8a514610269576100f5565b8063354ed5f7116100d3578063354ed5f7146101625780633b9f708d1461019757806341f3004a146101b35780634fe312f0146101d1576100f5565b806302a76135146100fa578063094cd5ee146101165780632efcb62f14610132575b600080fd5b610114600480360381019061010f9190613d16565b610309565b005b610130600480360381019061012b9190613dac565b610511565b005b61014c60048036038101906101479190613e37565b610ae1565b604051610159919061406d565b60405180910390f35b61017c600480360381019061017791906140c5565b610d46565b60405161018e9695949392919061416d565b60405180910390f35b6101b160048036038101906101ac91906141dc565b610eef565b005b6101bb611203565b6040516101c8919061437b565b60405180910390f35b6101eb60048036038101906101e69190613dac565b6113f0565b005b61020760048036038101906102029190613e37565b611a3b565b604051610214919061449c565b60405180910390f35b610237600480360381019061023291906144be565b611bc4565b005b610253600480360381019061024e9190613e37565b6125cd565b604051610260919061480b565b60405180910390f35b610283600480360381019061027e9190613e37565b612b6e565b005b61029f600480360381019061029a9190613e37565b61322d565b005b6102bb60048036038101906102b6919061495d565b6133fc565b005b6102d760048036038101906102d291906149a6565b6136d6565b005b6102f360048036038101906102ee9190613e37565b61393c565b6040516103009190614a11565b60405180910390f35b600015156103163361393c565b151514610358576040517f08c379a000000000000000000000000000000000000000000000000000000000815260040161034f90614a78565b60405180910390fd5b6000838390501161039e576040517f08c379a000000000000000000000000000000000000000000000000000000000815260040161039590614ae4565b60405180910390fd5b8282600160003373ffffffffffffffffffffffffffffffffffffffff1673ffffffffffffffffffffffffffffffffffffffff16815260200190815260200160002060000191906103ef929190613a2e565b508015610466576000600160003373ffffffffffffffffffffffffffffffffffffffff1673ffffffffffffffffffffffffffffffffffffffff16815260200190815260200160002060040160006101000a81548160ff0219169083600181111561045c5761045b614709565b5b02179055506104d1565b60018060003373ffffffffffffffffffffffffffffffffffffffff1673ffffffffffffffffffffffffffffffffffffffff16815260200190815260200160002060040160006101000a81548160ff021916908360018111156104cb576104ca614709565b5b02179055505b7f5fa5f50e6b42cbacab74293083577ca25d00fec42953ad32041f43efc65d561a33848460405161050493929190614b31565b60405180910390a1505050565b6000600181111561052557610524614709565b5b600160003373ffffffffffffffffffffffffffffffffffffffff1673ffffffffffffffffffffffffffffffffffffffff16815260200190815260200160002060040160009054906101000a900460ff16600181111561058757610586614709565b5b1461059157600080fd5b60005b6000805490508110156107775781600082815481106105b6576105b5614b63565b5b906000526020600020906005020160000154141561076457600060016000805490506105e29190614bc1565b815481106105f3576105f2614b63565b5b90600052602060002090600502016000828154811061061557610614614b63565b5b906000526020600020906005020160008201548160000155600182018160010190805461064190614c24565b61064c929190613ab4565b506002820160009054906101000a900473ffffffffffffffffffffffffffffffffffffffff168160020160006101000a81548173ffffffffffffffffffffffffffffffffffffffff021916908373ffffffffffffffffffffffffffffffffffffffff16021790555060038201816003019080546106c890614c24565b6106d3929190613ab4565b506004820154816004015590505060008054806106f3576106f2614c56565b5b60019003818190600052602060002090600502016000808201600090556001820160006107209190613b41565b6002820160006101000a81549073ffffffffffffffffffffffffffffffffffffffff02191690556003820160006107579190613b41565b6004820160009055505090555b808061076f90614c85565b915050610594565b5060005b600160003373ffffffffffffffffffffffffffffffffffffffff1673ffffffffffffffffffffffffffffffffffffffff16815260200190815260200160002060020180549050811015610add5781600160003373ffffffffffffffffffffffffffffffffffffffff1673ffffffffffffffffffffffffffffffffffffffff168152602001908152602001600020600201828154811061081d5761081c614b63565b5b9060005260206000209060050201600001541415610aca57600160003373ffffffffffffffffffffffffffffffffffffffff1673ffffffffffffffffffffffffffffffffffffffff16815260200190815260200160002060020160018060003373ffffffffffffffffffffffffffffffffffffffff1673ffffffffffffffffffffffffffffffffffffffff168152602001908152602001600020600201805490506108c89190614bc1565b815481106108d9576108d8614b63565b5b9060005260206000209060050201600160003373ffffffffffffffffffffffffffffffffffffffff1673ffffffffffffffffffffffffffffffffffffffff168152602001908152602001600020600201828154811061093b5761093a614b63565b5b906000526020600020906005020160008201548160000155600182018160010190805461096790614c24565b610972929190613ab4565b506002820160009054906101000a900473ffffffffffffffffffffffffffffffffffffffff168160020160006101000a81548173ffffffffffffffffffffffffffffffffffffffff021916908373ffffffffffffffffffffffffffffffffffffffff16021790555060038201816003019080546109ee90614c24565b6109f9929190613ab4565b5060048201548160040155905050600160003373ffffffffffffffffffffffffffffffffffffffff1673ffffffffffffffffffffffffffffffffffffffff168152602001908152602001600020600201805480610a5957610a58614c56565b5b6001900381819060005260206000209060050201600080820160009055600182016000610a869190613b41565b6002820160006101000a81549073ffffffffffffffffffffffffffffffffffffffff0219169055600382016000610abd9190613b41565b6004820160009055505090555b8080610ad590614c85565b91505061077b565b5050565b60606000610aef3384613996565b905060026000828152602001908152602001600020805480602002602001604051908101604052809291908181526020016000905b82821015610d3a57838290600052602060002090600602016040518060c0016040529081600082015481526020016001820160009054906101000a900473ffffffffffffffffffffffffffffffffffffffff1673ffffffffffffffffffffffffffffffffffffffff1673ffffffffffffffffffffffffffffffffffffffff168152602001600282018054610bb790614c24565b80601f0160208091040260200160405190810160405280929190818152602001828054610be390614c24565b8015610c305780601f10610c0557610100808354040283529160200191610c30565b820191906000526020600020905b815481529060010190602001808311610c1357829003601f168201915b505050505081526020016003820160009054906101000a900473ffffffffffffffffffffffffffffffffffffffff1673ffffffffffffffffffffffffffffffffffffffff1673ffffffffffffffffffffffffffffffffffffffff168152602001600482018054610c9f90614c24565b80601f0160208091040260200160405190810160405280929190818152602001828054610ccb90614c24565b8015610d185780601f10610ced57610100808354040283529160200191610d18565b820191906000526020600020905b815481529060010190602001808311610cfb57829003601f168201915b5050505050815260200160058201548152505081526020019060010190610b24565b50505050915050919050565b60026020528160005260406000208181548110610d6257600080fd5b9060005260206000209060060201600091509150508060000154908060010160009054906101000a900473ffffffffffffffffffffffffffffffffffffffff1690806002018054610db290614c24565b80601f0160208091040260200160405190810160405280929190818152602001828054610dde90614c24565b8015610e2b5780601f10610e0057610100808354040283529160200191610e2b565b820191906000526020600020905b815481529060010190602001808311610e0e57829003601f168201915b5050505050908060030160009054906101000a900473ffffffffffffffffffffffffffffffffffffffff1690806004018054610e6690614c24565b80601f0160208091040260200160405190810160405280929190818152602001828054610e9290614c24565b8015610edf5780601f10610eb457610100808354040283529160200191610edf565b820191906000526020600020905b815481529060010190602001808311610ec257829003601f168201915b5050505050908060050154905086565b600060405180604001604052808573ffffffffffffffffffffffffffffffffffffffff16815260200184848080601f016020809104026020016040519081016040528093929190818152602001838380828437600081840152601f19601f820116905080830192505050505050508152509050600160003373ffffffffffffffffffffffffffffffffffffffff1673ffffffffffffffffffffffffffffffffffffffff16815260200190815260200160002060010181908060018154018082558091505060019003906000526020600020906002020160009091909190915060008201518160000160006101000a81548173ffffffffffffffffffffffffffffffffffffffff021916908373ffffffffffffffffffffffffffffffffffffffff1602179055506020820151816001019080519060200190611031929190613b81565b50505060405180604001604052803373ffffffffffffffffffffffffffffffffffffffff168152602001600160003373ffffffffffffffffffffffffffffffffffffffff1673ffffffffffffffffffffffffffffffffffffffff16815260200190815260200160002060000180546110a890614c24565b80601f01602080910402602001604051908101604052809291908181526020018280546110d490614c24565b80156111215780601f106110f657610100808354040283529160200191611121565b820191906000526020600020905b81548152906001019060200180831161110457829003601f168201915b50505050508152509050600160008573ffffffffffffffffffffffffffffffffffffffff1673ffffffffffffffffffffffffffffffffffffffff16815260200190815260200160002060010181908060018154018082558091505060019003906000526020600020906002020160009091909190915060008201518160000160006101000a81548173ffffffffffffffffffffffffffffffffffffffff021916908373ffffffffffffffffffffffffffffffffffffffff16021790555060208201518160010190805190602001906111fa929190613b81565b50505050505050565b60606000805480602002602001604051908101604052809291908181526020016000905b828210156113e757838290600052602060002090600502016040518060a00160405290816000820154815260200160018201805461126490614c24565b80601f016020809104026020016040519081016040528092919081815260200182805461129090614c24565b80156112dd5780601f106112b2576101008083540402835291602001916112dd565b820191906000526020600020905b8154815290600101906020018083116112c057829003601f168201915b505050505081526020016002820160009054906101000a900473ffffffffffffffffffffffffffffffffffffffff1673ffffffffffffffffffffffffffffffffffffffff1673ffffffffffffffffffffffffffffffffffffffff16815260200160038201805461134c90614c24565b80601f016020809104026020016040519081016040528092919081815260200182805461137890614c24565b80156113c55780601f1061139a576101008083540402835291602001916113c5565b820191906000526020600020905b8154815290600101906020018083116113a857829003601f168201915b5050505050815260200160048201548152505081526020019060010190611227565b50505050905090565b3373ffffffffffffffffffffffffffffffffffffffff166000828154811061141b5761141a614b63565b5b906000526020600020906005020160020160009054906101000a900473ffffffffffffffffffffffffffffffffffffffff1673ffffffffffffffffffffffffffffffffffffffff16146114eb576000818154811061147c5761147b614b63565b5b906000526020600020906005020160020160009054906101000a900473ffffffffffffffffffffffffffffffffffffffff16336040517e0718210000000000000000000000000000000000000000000000000000000081526004016114e2929190614cce565b60405180910390fd5b60005b6000805490508110156116d15781600082815481106115105761150f614b63565b5b90600052602060002090600502016000015414156116be576000600160008054905061153c9190614bc1565b8154811061154d5761154c614b63565b5b90600052602060002090600502016000828154811061156f5761156e614b63565b5b906000526020600020906005020160008201548160000155600182018160010190805461159b90614c24565b6115a6929190613ab4565b506002820160009054906101000a900473ffffffffffffffffffffffffffffffffffffffff168160020160006101000a81548173ffffffffffffffffffffffffffffffffffffffff021916908373ffffffffffffffffffffffffffffffffffffffff160217905550600382018160030190805461162290614c24565b61162d929190613ab4565b5060048201548160040155905050600080548061164d5761164c614c56565b5b600190038181906000526020600020906005020160008082016000905560018201600061167a9190613b41565b6002820160006101000a81549073ffffffffffffffffffffffffffffffffffffffff02191690556003820160006116b19190613b41565b6004820160009055505090555b80806116c990614c85565b9150506114ee565b5060005b600160003373ffffffffffffffffffffffffffffffffffffffff1673ffffffffffffffffffffffffffffffffffffffff16815260200190815260200160002060020180549050811015611a375781600160003373ffffffffffffffffffffffffffffffffffffffff1673ffffffffffffffffffffffffffffffffffffffff168152602001908152602001600020600201828154811061177757611776614b63565b5b9060005260206000209060050201600001541415611a2457600160003373ffffffffffffffffffffffffffffffffffffffff1673ffffffffffffffffffffffffffffffffffffffff16815260200190815260200160002060020160018060003373ffffffffffffffffffffffffffffffffffffffff1673ffffffffffffffffffffffffffffffffffffffff168152602001908152602001600020600201805490506118229190614bc1565b8154811061183357611832614b63565b5b9060005260206000209060050201600160003373ffffffffffffffffffffffffffffffffffffffff1673ffffffffffffffffffffffffffffffffffffffff168152602001908152602001600020600201828154811061189557611894614b63565b5b90600052602060002090600502016000820154816000015560018201816001019080546118c190614c24565b6118cc929190613ab4565b506002820160009054906101000a900473ffffffffffffffffffffffffffffffffffffffff168160020160006101000a81548173ffffffffffffffffffffffffffffffffffffffff021916908373ffffffffffffffffffffffffffffffffffffffff160217905550600382018160030190805461194890614c24565b611953929190613ab4565b5060048201548160040155905050600160003373ffffffffffffffffffffffffffffffffffffffff1673ffffffffffffffffffffffffffffffffffffffff1681526020019081526020016000206002018054806119b3576119b2614c56565b5b60019003818190600052602060002090600502016000808201600090556001820160006119e09190613b41565b6002820160006101000a81549073ffffffffffffffffffffffffffffffffffffffff0219169055600382016000611a179190613b41565b6004820160009055505090555b8080611a2f90614c85565b9150506116d5565b5050565b6060600160008373ffffffffffffffffffffffffffffffffffffffff1673ffffffffffffffffffffffffffffffffffffffff168152602001908152602001600020600301805480602002602001604051908101604052809291908181526020016000905b82821015611bb957838290600052602060002090600202016040518060400160405290816000820160009054906101000a900473ffffffffffffffffffffffffffffffffffffffff1673ffffffffffffffffffffffffffffffffffffffff1673ffffffffffffffffffffffffffffffffffffffff168152602001600182018054611b2890614c24565b80601f0160208091040260200160405190810160405280929190818152602001828054611b5490614c24565b8015611ba15780601f10611b7657610100808354040283529160200191611ba1565b820191906000526020600020905b815481529060010190602001808311611b8457829003601f168201915b50505050508152505081526020019060010190611a9f565b505050509050919050565b60005b600160003373ffffffffffffffffffffffffffffffffffffffff1673ffffffffffffffffffffffffffffffffffffffff168152602001908152602001600020600301805490508110156125c8578273ffffffffffffffffffffffffffffffffffffffff16600160003373ffffffffffffffffffffffffffffffffffffffff1673ffffffffffffffffffffffffffffffffffffffff1681526020019081526020016000206003018281548110611c7f57611c7e614b63565b5b906000526020600020906002020160000160009054906101000a900473ffffffffffffffffffffffffffffffffffffffff1673ffffffffffffffffffffffffffffffffffffffff16148015611cd15750815b156122b057600060405180604001604052808573ffffffffffffffffffffffffffffffffffffffff168152602001600160008773ffffffffffffffffffffffffffffffffffffffff1673ffffffffffffffffffffffffffffffffffffffff1681526020019081526020016000206000018054611d4c90614c24565b80601f0160208091040260200160405190810160405280929190818152602001828054611d7890614c24565b8015611dc55780601f10611d9a57610100808354040283529160200191611dc5565b820191906000526020600020905b815481529060010190602001808311611da857829003601f168201915b50505050508152509050600160003373ffffffffffffffffffffffffffffffffffffffff1673ffffffffffffffffffffffffffffffffffffffff16815260200190815260200160002060010181908060018154018082558091505060019003906000526020600020906002020160009091909190915060008201518160000160006101000a81548173ffffffffffffffffffffffffffffffffffffffff021916908373ffffffffffffffffffffffffffffffffffffffff1602179055506020820151816001019080519060200190611e9e929190613b81565b50505060405180604001604052803373ffffffffffffffffffffffffffffffffffffffff168152602001600160003373ffffffffffffffffffffffffffffffffffffffff1673ffffffffffffffffffffffffffffffffffffffff1681526020019081526020016000206000018054611f1590614c24565b80601f0160208091040260200160405190810160405280929190818152602001828054611f4190614c24565b8015611f8e5780601f10611f6357610100808354040283529160200191611f8e565b820191906000526020600020905b815481529060010190602001808311611f7157829003601f168201915b50505050508152509050600160008573ffffffffffffffffffffffffffffffffffffffff1673ffffffffffffffffffffffffffffffffffffffff16815260200190815260200160002060010181908060018154018082558091505060019003906000526020600020906002020160009091909190915060008201518160000160006101000a81548173ffffffffffffffffffffffffffffffffffffffff021916908373ffffffffffffffffffffffffffffffffffffffff1602179055506020820151816001019080519060200190612067929190613b81565b505050600160003373ffffffffffffffffffffffffffffffffffffffff1673ffffffffffffffffffffffffffffffffffffffff16815260200190815260200160002060030160018060003373ffffffffffffffffffffffffffffffffffffffff1673ffffffffffffffffffffffffffffffffffffffff168152602001908152602001600020600301805490506120fd9190614bc1565b8154811061210e5761210d614b63565b5b9060005260206000209060020201600160003373ffffffffffffffffffffffffffffffffffffffff1673ffffffffffffffffffffffffffffffffffffffff16815260200190815260200160002060030183815481106121705761216f614b63565b5b90600052602060002090600202016000820160009054906101000a900473ffffffffffffffffffffffffffffffffffffffff168160000160006101000a81548173ffffffffffffffffffffffffffffffffffffffff021916908373ffffffffffffffffffffffffffffffffffffffff16021790555060018201816001019080546121f990614c24565b612204929190613ab4565b50905050600160003373ffffffffffffffffffffffffffffffffffffffff1673ffffffffffffffffffffffffffffffffffffffff16815260200190815260200160002060030180548061225a57612259614c56565b5b6001900381819060005260206000209060020201600080820160006101000a81549073ffffffffffffffffffffffffffffffffffffffff02191690556001820160006122a69190613b41565b50509055506125b5565b8273ffffffffffffffffffffffffffffffffffffffff16600160003373ffffffffffffffffffffffffffffffffffffffff1673ffffffffffffffffffffffffffffffffffffffff168152602001908152602001600020600301828154811061231b5761231a614b63565b5b906000526020600020906002020160000160009054906101000a900473ffffffffffffffffffffffffffffffffffffffff1673ffffffffffffffffffffffffffffffffffffffff1614801561236e575081155b156125b457600160003373ffffffffffffffffffffffffffffffffffffffff1673ffffffffffffffffffffffffffffffffffffffff16815260200190815260200160002060030160018060003373ffffffffffffffffffffffffffffffffffffffff1673ffffffffffffffffffffffffffffffffffffffff168152602001908152602001600020600301805490506124069190614bc1565b8154811061241757612416614b63565b5b9060005260206000209060020201600160003373ffffffffffffffffffffffffffffffffffffffff1673ffffffffffffffffffffffffffffffffffffffff168152602001908152602001600020600301828154811061247957612478614b63565b5b90600052602060002090600202016000820160009054906101000a900473ffffffffffffffffffffffffffffffffffffffff168160000160006101000a81548173ffffffffffffffffffffffffffffffffffffffff021916908373ffffffffffffffffffffffffffffffffffffffff160217905550600182018160010190805461250290614c24565b61250d929190613ab4565b50905050600160003373ffffffffffffffffffffffffffffffffffffffff1673ffffffffffffffffffffffffffffffffffffffff16815260200190815260200160002060030180548061256357612562614c56565b5b6001900381819060005260206000209060020201600080820160006101000a81549073ffffffffffffffffffffffffffffffffffffffff02191690556001820160006125af9190613b41565b505090555b5b80806125c090614c85565b915050611bc7565b505050565b6125d5613c07565b600160008373ffffffffffffffffffffffffffffffffffffffff1673ffffffffffffffffffffffffffffffffffffffff1681526020019081526020016000206040518060a001604052908160008201805461262f90614c24565b80601f016020809104026020016040519081016040528092919081815260200182805461265b90614c24565b80156126a85780601f1061267d576101008083540402835291602001916126a8565b820191906000526020600020905b81548152906001019060200180831161268b57829003601f168201915b5050505050815260200160018201805480602002602001604051908101604052809291908181526020016000905b828210156127f057838290600052602060002090600202016040518060400160405290816000820160009054906101000a900473ffffffffffffffffffffffffffffffffffffffff1673ffffffffffffffffffffffffffffffffffffffff1673ffffffffffffffffffffffffffffffffffffffff16815260200160018201805461275f90614c24565b80601f016020809104026020016040519081016040528092919081815260200182805461278b90614c24565b80156127d85780601f106127ad576101008083540402835291602001916127d8565b820191906000526020600020905b8154815290600101906020018083116127bb57829003601f168201915b505050505081525050815260200190600101906126d6565b50505050815260200160028201805480602002602001604051908101604052809291908181526020016000905b828210156129dd57838290600052602060002090600502016040518060a00160405290816000820154815260200160018201805461285a90614c24565b80601f016020809104026020016040519081016040528092919081815260200182805461288690614c24565b80156128d35780601f106128a8576101008083540402835291602001916128d3565b820191906000526020600020905b8154815290600101906020018083116128b657829003601f168201915b505050505081526020016002820160009054906101000a900473ffffffffffffffffffffffffffffffffffffffff1673ffffffffffffffffffffffffffffffffffffffff1673ffffffffffffffffffffffffffffffffffffffff16815260200160038201805461294290614c24565b80601f016020809104026020016040519081016040528092919081815260200182805461296e90614c24565b80156129bb5780601f10612990576101008083540402835291602001916129bb565b820191906000526020600020905b81548152906001019060200180831161299e57829003601f168201915b505050505081526020016004820154815250508152602001906001019061281d565b50505050815260200160038201805480602002602001604051908101604052809291908181526020016000905b82821015612b2457838290600052602060002090600202016040518060400160405290816000820160009054906101000a900473ffffffffffffffffffffffffffffffffffffffff1673ffffffffffffffffffffffffffffffffffffffff1673ffffffffffffffffffffffffffffffffffffffff168152602001600182018054612a9390614c24565b80601f0160208091040260200160405190810160405280929190818152602001828054612abf90614c24565b8015612b0c5780601f10612ae157610100808354040283529160200191612b0c565b820191906000526020600020905b815481529060010190602001808311612aef57829003601f168201915b50505050508152505081526020019060010190612a0a565b5050505081526020016004820160009054906101000a900460ff166001811115612b5157612b50614709565b5b6001811115612b6357612b62614709565b5b815250509050919050565b60005b600160003373ffffffffffffffffffffffffffffffffffffffff1673ffffffffffffffffffffffffffffffffffffffff16815260200190815260200160002060010180549050811015612ecb578173ffffffffffffffffffffffffffffffffffffffff16600160003373ffffffffffffffffffffffffffffffffffffffff1673ffffffffffffffffffffffffffffffffffffffff1681526020019081526020016000206001018281548110612c2957612c28614b63565b5b906000526020600020906002020160000160009054906101000a900473ffffffffffffffffffffffffffffffffffffffff1673ffffffffffffffffffffffffffffffffffffffff161415612eb857600160003373ffffffffffffffffffffffffffffffffffffffff1673ffffffffffffffffffffffffffffffffffffffff16815260200190815260200160002060010160018060003373ffffffffffffffffffffffffffffffffffffffff1673ffffffffffffffffffffffffffffffffffffffff16815260200190815260200160002060010180549050612d0a9190614bc1565b81548110612d1b57612d1a614b63565b5b9060005260206000209060020201600160003373ffffffffffffffffffffffffffffffffffffffff1673ffffffffffffffffffffffffffffffffffffffff1681526020019081526020016000206001018281548110612d7d57612d7c614b63565b5b90600052602060002090600202016000820160009054906101000a900473ffffffffffffffffffffffffffffffffffffffff168160000160006101000a81548173ffffffffffffffffffffffffffffffffffffffff021916908373ffffffffffffffffffffffffffffffffffffffff1602179055506001820181600101908054612e0690614c24565b612e11929190613ab4565b50905050600160003373ffffffffffffffffffffffffffffffffffffffff1673ffffffffffffffffffffffffffffffffffffffff168152602001908152602001600020600101805480612e6757612e66614c56565b5b6001900381819060005260206000209060020201600080820160006101000a81549073ffffffffffffffffffffffffffffffffffffffff0219169055600182016000612eb39190613b41565b505090555b8080612ec390614c85565b915050612b71565b5060005b600160008373ffffffffffffffffffffffffffffffffffffffff1673ffffffffffffffffffffffffffffffffffffffff16815260200190815260200160002060010180549050811015613229573373ffffffffffffffffffffffffffffffffffffffff16600160008473ffffffffffffffffffffffffffffffffffffffff1673ffffffffffffffffffffffffffffffffffffffff1681526020019081526020016000206001018281548110612f8757612f86614b63565b5b906000526020600020906002020160000160009054906101000a900473ffffffffffffffffffffffffffffffffffffffff1673ffffffffffffffffffffffffffffffffffffffff16141561321657600160008373ffffffffffffffffffffffffffffffffffffffff1673ffffffffffffffffffffffffffffffffffffffff16815260200190815260200160002060010160018060008573ffffffffffffffffffffffffffffffffffffffff1673ffffffffffffffffffffffffffffffffffffffff168152602001908152602001600020600101805490506130689190614bc1565b8154811061307957613078614b63565b5b9060005260206000209060020201600160008473ffffffffffffffffffffffffffffffffffffffff1673ffffffffffffffffffffffffffffffffffffffff16815260200190815260200160002060010182815481106130db576130da614b63565b5b90600052602060002090600202016000820160009054906101000a900473ffffffffffffffffffffffffffffffffffffffff168160000160006101000a81548173ffffffffffffffffffffffffffffffffffffffff021916908373ffffffffffffffffffffffffffffffffffffffff160217905550600182018160010190805461316490614c24565b61316f929190613ab4565b50905050600160008373ffffffffffffffffffffffffffffffffffffffff1673ffffffffffffffffffffffffffffffffffffffff1681526020019081526020016000206001018054806131c5576131c4614c56565b5b6001900381819060005260206000209060020201600080820160006101000a81549073ffffffffffffffffffffffffffffffffffffffff02191690556001820160006132119190613b41565b505090555b808061322190614c85565b915050612ecf565b5050565b600060405180604001604052803373ffffffffffffffffffffffffffffffffffffffff168152602001600160003373ffffffffffffffffffffffffffffffffffffffff1673ffffffffffffffffffffffffffffffffffffffff16815260200190815260200160002060000180546132a390614c24565b80601f01602080910402602001604051908101604052809291908181526020018280546132cf90614c24565b801561331c5780601f106132f15761010080835404028352916020019161331c565b820191906000526020600020905b8154815290600101906020018083116132ff57829003601f168201915b50505050508152509050600160008373ffffffffffffffffffffffffffffffffffffffff1673ffffffffffffffffffffffffffffffffffffffff16815260200190815260200160002060030181908060018154018082558091505060019003906000526020600020906002020160009091909190915060008201518160000160006101000a81548173ffffffffffffffffffffffffffffffffffffffff021916908373ffffffffffffffffffffffffffffffffffffffff16021790555060208201518160010190805190602001906133f5929190613b81565b5050505050565b60006040518060a001604052806000805490508152602001600160003373ffffffffffffffffffffffffffffffffffffffff1673ffffffffffffffffffffffffffffffffffffffff168152602001908152602001600020600001805461346190614c24565b80601f016020809104026020016040519081016040528092919081815260200182805461348d90614c24565b80156134da5780601f106134af576101008083540402835291602001916134da565b820191906000526020600020905b8154815290600101906020018083116134bd57829003601f168201915b505050505081526020013373ffffffffffffffffffffffffffffffffffffffff168152602001838152602001428152509050600081908060018154018082558091505060019003906000526020600020906005020160009091909190915060008201518160000155602082015181600101908051906020019061355e929190613b81565b5060408201518160020160006101000a81548173ffffffffffffffffffffffffffffffffffffffff021916908373ffffffffffffffffffffffffffffffffffffffff16021790555060608201518160030190805190602001906135c2929190613b81565b50608082015181600401555050600160003373ffffffffffffffffffffffffffffffffffffffff1673ffffffffffffffffffffffffffffffffffffffff168152602001908152602001600020600201819080600181540180825580915050600190039060005260206000209060050201600090919091909150600082015181600001556020820151816001019080519060200190613661929190613b81565b5060408201518160020160006101000a81548173ffffffffffffffffffffffffffffffffffffffff021916908373ffffffffffffffffffffffffffffffffffffffff16021790555060608201518160030190805190602001906136c5929190613b81565b506080820151816004015550505050565b60006136e23384613996565b9050600260008281526020019081526020016000206040518060c00160405280600260008581526020019081526020016000208054905081526020013373ffffffffffffffffffffffffffffffffffffffff168152602001600160003373ffffffffffffffffffffffffffffffffffffffff1673ffffffffffffffffffffffffffffffffffffffff168152602001908152602001600020600001805461378790614c24565b80601f01602080910402602001604051908101604052809291908181526020018280546137b390614c24565b80156138005780601f106137d557610100808354040283529160200191613800565b820191906000526020600020905b8154815290600101906020018083116137e357829003601f168201915b505050505081526020018573ffffffffffffffffffffffffffffffffffffffff1681526020018481526020014281525090806001815401808255809150506001900390600052602060002090600602016000909190919091506000820151816000015560208201518160010160006101000a81548173ffffffffffffffffffffffffffffffffffffffff021916908373ffffffffffffffffffffffffffffffffffffffff16021790555060408201518160020190805190602001906138c6929190613b81565b5060608201518160030160006101000a81548173ffffffffffffffffffffffffffffffffffffffff021916908373ffffffffffffffffffffffffffffffffffffffff160217905550608082015181600401908051906020019061392a929190613b81565b5060a082015181600501555050505050565b600080600160008473ffffffffffffffffffffffffffffffffffffffff1673ffffffffffffffffffffffffffffffffffffffff168152602001908152602001600020600001805461398c90614c24565b9050119050919050565b60008173ffffffffffffffffffffffffffffffffffffffff168373ffffffffffffffffffffffffffffffffffffffff1610156139fc5782826040516020016139df929190614d3f565b604051602081830303815290604052805190602001209050613a28565b8183604051602001613a0f929190614d3f565b6040516020818303038152906040528051906020012090505b92915050565b828054613a3a90614c24565b90600052602060002090601f016020900481019282613a5c5760008555613aa3565b82601f10613a7557803560ff1916838001178555613aa3565b82800160010185558215613aa3579182015b82811115613aa2578235825591602001919060010190613a87565b5b509050613ab09190613c48565b5090565b828054613ac090614c24565b90600052602060002090601f016020900481019282613ae25760008555613b30565b82601f10613af35780548555613b30565b82800160010185558215613b3057600052602060002091601f016020900482015b82811115613b2f578254825591600101919060010190613b14565b5b509050613b3d9190613c48565b5090565b508054613b4d90614c24565b6000825580601f10613b5f5750613b7e565b601f016020900490600052602060002090810190613b7d9190613c48565b5b50565b828054613b8d90614c24565b90600052602060002090601f016020900481019282613baf5760008555613bf6565b82601f10613bc857805160ff1916838001178555613bf6565b82800160010185558215613bf6579182015b82811115613bf5578251825591602001919060010190613bda565b5b509050613c039190613c48565b5090565b6040518060a001604052806060815260200160608152602001606081526020016060815260200160006001811115613c4257613c41614709565b5b81525090565b5b80821115613c61576000816000905550600101613c49565b5090565b6000604051905090565b600080fd5b600080fd5b600080fd5b600080fd5b600080fd5b60008083601f840112613c9e57613c9d613c79565b5b8235905067ffffffffffffffff811115613cbb57613cba613c7e565b5b602083019150836001820283011115613cd757613cd6613c83565b5b9250929050565b60008115159050919050565b613cf381613cde565b8114613cfe57600080fd5b50565b600081359050613d1081613cea565b92915050565b600080600060408486031215613d2f57613d2e613c6f565b5b600084013567ffffffffffffffff811115613d4d57613d4c613c74565b5b613d5986828701613c88565b93509350506020613d6c86828701613d01565b9150509250925092565b6000819050919050565b613d8981613d76565b8114613d9457600080fd5b50565b600081359050613da681613d80565b92915050565b600060208284031215613dc257613dc1613c6f565b5b6000613dd084828501613d97565b91505092915050565b600073ffffffffffffffffffffffffffffffffffffffff82169050919050565b6000613e0482613dd9565b9050919050565b613e1481613df9565b8114613e1f57600080fd5b50565b600081359050613e3181613e0b565b92915050565b600060208284031215613e4d57613e4c613c6f565b5b6000613e5b84828501613e22565b91505092915050565b600081519050919050565b600082825260208201905092915050565b6000819050602082019050919050565b613e9981613d76565b82525050565b613ea881613df9565b82525050565b600081519050919050565b600082825260208201905092915050565b60005b83811015613ee8578082015181840152602081019050613ecd565b83811115613ef7576000848401525b50505050565b6000601f19601f8301169050919050565b6000613f1982613eae565b613f238185613eb9565b9350613f33818560208601613eca565b613f3c81613efd565b840191505092915050565b600060c083016000830151613f5f6000860182613e90565b506020830151613f726020860182613e9f565b5060408301518482036040860152613f8a8282613f0e565b9150506060830151613f9f6060860182613e9f565b5060808301518482036080860152613fb78282613f0e565b91505060a0830151613fcc60a0860182613e90565b508091505092915050565b6000613fe38383613f47565b905092915050565b6000602082019050919050565b600061400382613e64565b61400d8185613e6f565b93508360208202850161401f85613e80565b8060005b8581101561405b578484038952815161403c8582613fd7565b945061404783613feb565b925060208a01995050600181019050614023565b50829750879550505050505092915050565b600060208201905081810360008301526140878184613ff8565b905092915050565b6000819050919050565b6140a28161408f565b81146140ad57600080fd5b50565b6000813590506140bf81614099565b92915050565b600080604083850312156140dc576140db613c6f565b5b60006140ea858286016140b0565b92505060206140fb85828601613d97565b9150509250929050565b61410e81613d76565b82525050565b61411d81613df9565b82525050565b600082825260208201905092915050565b600061413f82613eae565b6141498185614123565b9350614159818560208601613eca565b61416281613efd565b840191505092915050565b600060c0820190506141826000830189614105565b61418f6020830188614114565b81810360408301526141a18187614134565b90506141b06060830186614114565b81810360808301526141c28185614134565b90506141d160a0830184614105565b979650505050505050565b6000806000604084860312156141f5576141f4613c6f565b5b600061420386828701613e22565b935050602084013567ffffffffffffffff81111561422457614223613c74565b5b61423086828701613c88565b92509250509250925092565b600081519050919050565b600082825260208201905092915050565b6000819050602082019050919050565b600060a0830160008301516142806000860182613e90565b50602083015184820360208601526142988282613f0e565b91505060408301516142ad6040860182613e9f565b50606083015184820360608601526142c58282613f0e565b91505060808301516142da6080860182613e90565b508091505092915050565b60006142f18383614268565b905092915050565b6000602082019050919050565b60006143118261423c565b61431b8185614247565b93508360208202850161432d85614258565b8060005b85811015614369578484038952815161434a85826142e5565b9450614355836142f9565b925060208a01995050600181019050614331565b50829750879550505050505092915050565b600060208201905081810360008301526143958184614306565b905092915050565b600081519050919050565b600082825260208201905092915050565b6000819050602082019050919050565b60006040830160008301516143e16000860182613e9f565b50602083015184820360208601526143f98282613f0e565b9150508091505092915050565b600061441283836143c9565b905092915050565b6000602082019050919050565b60006144328261439d565b61443c81856143a8565b93508360208202850161444e856143b9565b8060005b8581101561448a578484038952815161446b8582614406565b94506144768361441a565b925060208a01995050600181019050614452565b50829750879550505050505092915050565b600060208201905081810360008301526144b68184614427565b905092915050565b600080604083850312156144d5576144d4613c6f565b5b60006144e385828601613e22565b92505060206144f485828601613d01565b9150509250929050565b600081519050919050565b600082825260208201905092915050565b6000819050602082019050919050565b60006040830160008301516145426000860182613e9f565b506020830151848203602086015261455a8282613f0e565b9150508091505092915050565b6000614573838361452a565b905092915050565b6000602082019050919050565b6000614593826144fe565b61459d8185614509565b9350836020820285016145af8561451a565b8060005b858110156145eb57848403895281516145cc8582614567565b94506145d78361457b565b925060208a019950506001810190506145b3565b50829750879550505050505092915050565b600082825260208201905092915050565b60006146198261423c565b61462381856145fd565b93508360208202850161463585614258565b8060005b85811015614671578484038952815161465285826142e5565b945061465d836142f9565b925060208a01995050600181019050614639565b50829750879550505050505092915050565b600082825260208201905092915050565b600061469f8261439d565b6146a98185614683565b9350836020820285016146bb856143b9565b8060005b858110156146f757848403895281516146d88582614406565b94506146e38361441a565b925060208a019950506001810190506146bf565b50829750879550505050505092915050565b7f4e487b7100000000000000000000000000000000000000000000000000000000600052602160045260246000fd5b6002811061474957614748614709565b5b50565b600081905061475a82614738565b919050565b600061476a8261474c565b9050919050565b61477a8161475f565b82525050565b600060a083016000830151848203600086015261479d8282613f0e565b915050602083015184820360208601526147b78282614588565b915050604083015184820360408601526147d1828261460e565b915050606083015184820360608601526147eb8282614694565b91505060808301516148006080860182614771565b508091505092915050565b600060208201905081810360008301526148258184614780565b905092915050565b600080fd5b7f4e487b7100000000000000000000000000000000000000000000000000000000600052604160045260246000fd5b61486a82613efd565b810181811067ffffffffffffffff8211171561488957614888614832565b5b80604052505050565b600061489c613c65565b90506148a88282614861565b919050565b600067ffffffffffffffff8211156148c8576148c7614832565b5b6148d182613efd565b9050602081019050919050565b82818337600083830152505050565b60006149006148fb846148ad565b614892565b90508281526020810184848401111561491c5761491b61482d565b5b6149278482856148de565b509392505050565b600082601f83011261494457614943613c79565b5b81356149548482602086016148ed565b91505092915050565b60006020828403121561497357614972613c6f565b5b600082013567ffffffffffffffff81111561499157614990613c74565b5b61499d8482850161492f565b91505092915050565b600080604083850312156149bd576149bc613c6f565b5b60006149cb85828601613e22565b925050602083013567ffffffffffffffff8111156149ec576149eb613c74565b5b6149f88582860161492f565b9150509250929050565b614a0b81613cde565b82525050565b6000602082019050614a266000830184614a02565b92915050565b7f5573657220616c72656164792065786973747321000000000000000000000000600082015250565b6000614a62601483614123565b9150614a6d82614a2c565b602082019050919050565b60006020820190508181036000830152614a9181614a55565b9050919050565b7f557365726e616d652063616e6e6f7420626520656d7074792100000000000000600082015250565b6000614ace601983614123565b9150614ad982614a98565b602082019050919050565b60006020820190508181036000830152614afd81614ac1565b9050919050565b6000614b108385614123565b9350614b1d8385846148de565b614b2683613efd565b840190509392505050565b6000604082019050614b466000830186614114565b8181036020830152614b59818486614b04565b9050949350505050565b7f4e487b7100000000000000000000000000000000000000000000000000000000600052603260045260246000fd5b7f4e487b7100000000000000000000000000000000000000000000000000000000600052601160045260246000fd5b6000614bcc82613d76565b9150614bd783613d76565b925082821015614bea57614be9614b92565b5b828203905092915050565b7f4e487b7100000000000000000000000000000000000000000000000000000000600052602260045260246000fd5b60006002820490506001821680614c3c57607f821691505b60208210811415614c5057614c4f614bf5565b5b50919050565b7f4e487b7100000000000000000000000000000000000000000000000000000000600052603160045260246000fd5b6000614c9082613d76565b91507fffffffffffffffffffffffffffffffffffffffffffffffffffffffffffffffff821415614cc357614cc2614b92565b5b600182019050919050565b6000604082019050614ce36000830185614114565b614cf06020830184614114565b9392505050565b60008160601b9050919050565b6000614d0f82614cf7565b9050919050565b6000614d2182614d04565b9050919050565b614d39614d3482613df9565b614d16565b82525050565b6000614d4b8285614d28565b601482019150614d5b8284614d28565b601482019150819050939250505056fea2646970667358221220225618542c88c437232aa1c21557cf9113bb00b8294ce61099d141a58964deb764736f6c63430008090033",
  "linkReferences": {},
  "deployedLinkReferences": {}
}